:100000000C942A000C9495090C94BC090C94E309F7
:100010000C9447000C9447000C9447000C94470044
:100020000C9447000C9447000C9447000C94470034
:100030000C9447000C9447000C9447000C94470024
:100040000C9447000C9447000C9447000C94470014
:100050000C94470011241FBECFE5D8E0DEBFCDBF12
:1000600011E0A0E6B0E0EAE9FCE102C005900D92E3
:10007000A838B107D9F711E0A8E8B1E001C01D9296
:10008000A239B107E1F70E94B80C0C944B0E0C9406
:100090000000EF92FF920F931F937B018C0120E0F1
:1000A00030E040E05FE40E94490388238CF0C801FF
:1000B000B70120E030E040E05FE40E94C1010E940F
:1000C00007049B01AC01205030404040504806C01E
:1000D000C801B7010E9407049B01AC01B901CA0124
:1000E0001F910F91FF90EF900895A0E0B0E0EBE733
:1000F000F0E00C94140EDC012B01FA019C9192307B
:1001000008F439C1EB018881823008F433C194309E
:1001100069F4843009F02FC111969C91119789815F
:10012000981709F428C1A0E6B0E025C1843009F48D
:1001300021C18230A9F4923009F01DC19A01AD01AC
:1001400088E0EA010990AE01E90109929E0181501F
:10015000C1F7E201898111969C918923818308C1AD
:10016000923009F407C112962D903C901397EB0141
:100170008A819B811496AD90BD90CD90DC901797AD
:10018000EC80FD800E811F819101281B390BB90184
:1001900037FF04C066277727621B730B6032710537
:1001A0000CF061C0121613066CF537014801062EDB
:1001B00004C096948794779467940A94D2F721E0C8
:1001C00030E040E050E004C0220F331F441F551FB1
:1001D0006A95D2F721503040404050402E213F21B7
:1001E00040235123211531054105510521F021E01E
:1001F00030E040E050E079018A01E628F72808293C
:1002000019293CC0232BD1F1260E371E350146019A
:10021000062E04C096948794779467940A94D2F734
:1002200021E030E040E050E004C0220F331F441FC3
:10023000551F6A95D2F721503040404050402A2146
:100240003B214C215D21211531054105510521F04E
:1002500021E030E040E050E059016A01A628B728CB
:10026000C828D9280BC0821593052CF01C01AA249C
:10027000BB24650103C0EE24FF24870111969C91E5
:10028000D20111968C91981709F445C0992339F041
:10029000A80197012A193B094C095D0906C0A6016E
:1002A00095012E193F09400B510B57FD08C01182D3
:1002B0003382228224833583468357831DC081E0A5
:1002C00081833382228288279927DC01821B930B4A
:1002D000A40BB50B84839583A683B7830DC0220F2F
:1002E000331F441F551F24833583468357838281E0
:1002F000938101979383828324813581468157813D
:10030000DA01C9010197A109B1098F5F9F4FAF4F72
:10031000BF4328F30BC0918333822282EA0CFB1C7B
:100320000C1D1D1DE482F5820683178383E0808304
:10033000248135814681578157FF1AC0C901AA27F8
:1003400097FDA095BA2F81709070A070B0705695EF
:10035000479537952795822B932BA42BB52B848318
:100360009583A683B7838281938101969383828349
:10037000DF0101C0D201CD01CDB7DEB7E2E10C94BF
:10038000300EA0E2B0E0E7ECF1E00C94200E6983BF
:100390007A838B839C832D833E834F835887E9E048
:1003A000EE2EF12CEC0EFD1ECE010196B7010E943F
:1003B000F8058E010F5E1F4FCE010596B8010E9411
:1003C000F8058A8991E089278A8BC701B801AE01B7
:1003D000475E5F4F0E9475000E942305A096E6E0ED
:1003E0000C943C0EA0E2B0E0E8EFF1E00C94200E9B
:1003F00069837A838B839C832D833E834F835887C5
:10040000F9E0EF2EF12CEC0EFD1ECE010196B701A6
:100410000E94F8058E010F5E1F4FCE010596B801B0
:100420000E94F805C701B801AE01475E5F4F0E9408
:1004300075000E942305A096E6E00C943C0EA0E215
:10044000B0E0E5E2F2E00C94140E69837A838B83CA
:100450009C832D833E834F835887CE010196BE0136
:10046000675F7F4F0E94F805CE010596BE016F5E63
:100470007F4F0E94F8059985923088F089898230F3
:10048000C8F0943019F4823051F404C0843029F457
:10049000923081F480E690E0C6C0923049F420E0CA
:1004A0009A858A89981321E02A87CE010996BBC0D4
:1004B000823049F420E09A858A89981321E02A8BBA
:1004C000CE014196B0C02D843E844F8458886D88FB
:1004D0007E888F88988CEE24FF248701AA24BB2471
:1004E000650140E050E060E070E0E0E0F0E0C10174
:1004F00081709070892BE9F0E60CF71C081D191D1E
:100500009A01AB012A0D3B1D4C1D5D1D80E090E062
:10051000A0E0B0E0E614F7040805190520F481E036
:1005200090E0A0E0B0E0BA01A901480F591F6A1F8E
:100530007B1FAA0CBB1CCC1CDD1C97FE08C081E0F5
:1005400090E0A0E0B0E0A82AB92ACA2ADB2A3196B6
:10055000E032F10549F0660C771C881C991C569412
:10056000479437942794C3CFFA85EA892B893C892D
:100570008B859C85280F391F2E5F3F4F17C0CA01FE
:1005800081709070892B61F016950795F794E79428
:1005900080E090E0A0E0B0E8E82AF92A0A2B1B2BC3
:1005A00076956795579547952F5F3F4F77FDE7CF36
:1005B0000CC0440F551F661F771F17FD4160EE0CDE
:1005C000FF1C001F111F21503040403090E05907A0
:1005D00090E0690790E4790760F32B8F3C8FDB0193
:1005E000CA018F779070A070B07080349105A1051A
:1005F000B10561F447FD0AC0E114F10401051105DC
:1006000029F0405C5F4F6F4F7F4F40781A8EFE1786
:1006100011F081E08A8F4D8F5E8F6F8F78A383E01A
:10062000898FCE0149960E942305A096E2E10C94A1
:10063000300EA8E1B0E0EFE1F3E00C94200E698306
:100640007A838B839C832D833E834F83588789E0F5
:10065000E82EF12CEC0EFD1ECE010196B7010E9492
:10066000F8058E010F5E1F4FCE010596B8010E945E
:10067000F8058985823040F08989823028F0C701E9
:10068000B8010E94700601C08FEF6896E6E00C94F6
:100690003C0EA8E1B0E0EFE4F3E00C94200E698397
:1006A0007A838B839C832D833E834F83588789E095
:1006B000E82EF12CEC0EFD1ECE010196B7010E9432
:1006C000F8058E010F5E1F4FCE010596B8010E94FE
:1006D000F8058985823040F08989823028F0C70189
:1006E000B8010E94700601C08FEF6896E6E00C9496
:1006F0003C0EA8E1B0E0EFE7F3E00C94200E698334
:100700007A838B839C832D833E834F83588789E034
:10071000E82EF12CEC0EFD1ECE010196B7010E94D1
:10072000F8058E010F5E1F4FCE010596B8010E949D
:10073000F8058985823040F08989823028F0C70128
:10074000B8010E94700601C081E06896E6E00C9452
:100750003C0EA8E0B0E0EFEAF3E00C941D0E9B0124
:10076000AC0183E08983DA01C9018827B7FD83954D
:100770009927AA27BB27B82E211531054105510518
:1007800019F482E089833AC08823A9F0203080E000
:10079000380780E0480780E8580729F460E070E0F7
:1007A00080E09FEC30C0EE24FF248701E21AF30AB8
:1007B000040B150B02C079018A018EE1C82ED12CE1
:1007C000DC82CB82ED82FE820F831887C801B701DD
:1007D0000E94D40401971816190684F4082E04C048
:1007E000EE0CFF1C001F111F0A94D2F7ED82FE824F
:1007F0000F831887C81AD90ADC82CB82BA82CE014D
:1008000001960E9423052896E9E00C94390EACE08D
:10081000B0E0EDE0F4E00C94240E69837A838B83DE
:100820009C83CE010196BE016B5F7F4F0E94F8054D
:100830008D81823061F1823050F1843021F48E81DB
:10084000882351F12EC02F81388537FD20C06E815D
:100850002F3131051CF06623F9F023C08EE190E0C2
:10086000821B930B29853A854B855C8504C0569580
:100870004795379527958A95D2F76623B1F050951D
:100880004095309521953F4F4F4F5F4F0EC020E070
:1008900030E040E050E009C02FEF3FEF4FEF5FE75F
:1008A00004C020E030E040E050E8B901CA012C96D5
:1008B000E2E00C94400EA8E0B0E0E1E6F4E00C9435
:1008C0001C0E7B018C01611571058105910519F4E0
:1008D00082E0898360C083E089838EE1C82ED12CB9
:1008E000DC82CB82ED82FE820F831887C801B701BC
:1008F0000E94D404FC013197F7FF3BC02227332725
:100900002E1B3F0B57016801022E04C0D694C794DA
:10091000B794A7940A94D2F740E050E060E070E00A
:1009200081E090E0A0E0B0E004C0880F991FAA1F0A
:10093000BB1F2A95D2F70197A109B1098E219F21EA
:10094000A023B1230097A105B10521F041E050E0BB
:1009500060E070E04A295B296C297D294D835E8324
:100960006F8378878EE190E08E1B9F0B9C838B8337
:1009700012C0309781F00E2E04C0EE0CFF1C001F39
:10098000111F0A94D2F7ED82FE820F831887CE1AC8
:10099000DF0ADC82CB821A82CE0101960E942305F7
:1009A0002896EAE00C94380EEF92FF920F931F9373
:1009B0007B018C0180E0E81680E0F80681E0080702
:1009C00080E0180788F48FEFE816F104010511059F
:1009D00031F028F088E090E0A0E0B0E017C080E0BF
:1009E00090E0A0E0B0E012C080E0E81680E0F806F9
:1009F00080E0080781E0180728F088E190E0A0E097
:100A0000B0E004C080E190E0A0E0B0E020E230E09F
:100A100040E050E0281B390B4A0B5B0B04C01695D5
:100A20000795F794E7948A95D2F7F701E859FF4FB5
:100A30008081281B310941095109C9011F910F917A
:100A4000FF90EF900895DF92EF92FF920F931F9324
:100A5000FC01E480F58006811781D180808182309D
:100A600048F480E090E0A0E1B0E0E82AF92A0A2BFF
:100A70001B2BA5C0843009F49FC0823021F4EE24E2
:100A8000FF24870105C0E114F1040105110519F4E3
:100A9000E0E0F0E096C0628173819FEF62387907F1
:100AA0000CF05BC022E83FEF261B370B2A313105E3
:100AB0002CF020E030E040E050E02AC0B801A7016F
:100AC000022E04C076956795579547950A94D2F7FC
:100AD00081E090E0A0E0B0E004C0880F991FAA1F59
:100AE000BB1F2A95D2F70197A109B1098E219F2139
:100AF000A023B1230097A105B10521F081E090E08A
:100B0000A0E0B0E09A01AB01282B392B4A2B5B2BDC
:100B1000DA01C9018F779070A070B07080349105B0
:100B2000A105B10539F427FF09C0205C3F4F4F4FA5
:100B30005F4F04C0215C3F4F4F4F5F4FE0E0F0E05C
:100B40002030A0E03A07A0E04A07A0E45A0710F0DE
:100B5000E1E0F0E079018A0127C06038710564F5B1
:100B6000FB01E158FF4FD801C7018F779070A0704B
:100B7000B07080349105A105B10539F4E7FE0DC0D0
:100B800080E490E0A0E0B0E004C08FE390E0A0E05B
:100B9000B0E0E80EF91E0A1F1B1F17FF05C01695CF
:100BA0000795F794E794319687E016950795F794A3
:100BB000E7948A95D1F705C0EE24FF248701EFEF73
:100BC000F0E06E2F679566276795902F9F77D794F3
:100BD000DD24D7948E2F8695492F462B582F5D29DB
:100BE000B701CA011F910F91FF90EF90DF90089518
:100BF000FC01DB01408151812281622F6F7770E01F
:100C0000221F2227221F9381892F880F822B282FB2
:100C100030E0991F9927991F11969C9311972115E0
:100C20003105A9F5411551056105710511F482E001
:100C300037C082E89FEF13969C938E9312979A0188
:100C4000AB0167E0220F331F441F551F6A95D1F790
:100C500083E08C930DC0220F331F441F551F129643
:100C60008D919C911397019713969C938E93129755
:100C7000203080E0380780E0480780E4580758F3C8
:100C800014962D933D934D935C93179708952F3FA2
:100C9000310579F4411551056105710519F484E0B8
:100CA0008C93089564FF03C081E08C9312C01C9262
:100CB00010C02F57304013963C932E93129783E029
:100CC0008C9387E0440F551F661F771F8A95D1F7D5
:100CD000706414964D935D936D937C93179708956C
:100CE0001F93DC01FB019C91923008F447C0808186
:100CF000823008F443C0943051F411961C91843032
:100D000099F58181682F70E0611B71093FC08430C3
:100D100021F0923031F48230B9F18181882389F158
:100D20002DC011961C9111978230F1F08181181716
:100D3000D9F412962D913C91139782819381821759
:100D4000930794F028173907BCF014968D919D9164
:100D50000D90BC91A02D24813581468157812817A3
:100D600039074A075B0718F4112341F00AC08217BC
:100D70009307A407B50740F4112319F061E070E070
:100D800005C06FEF7FEF02C060E070E0CB011F9104
:100D90000895FC01808180538A30C0F481818053A2
:100DA0008A30A0F4828180538A3080F48381863433
:100DB00059F0823549F08C3439F020E0823409F45E
:100DC00021E081E0282703C020E001C021E0822F3C
:100DD0000895DC01E0E8F1E08D91819381E0E43851
:100DE000F807D1F7089580918301809386010895D3
:100DF00030918201305D8091800124E6829FC001A4
:100E00001124380F809181012AE0829FC0011124B2
:100E1000380F353608F034E6309385010895209177
:100E20008201205D8091800134E6839FC0011124FE
:100E3000280F809181013AE0839FC0011124280F7F
:100E40002093840108950F931F9308E611E0C801D1
:100E50006091850140E00E94670BC8010696609191
:100E6000850140E00E94670BC8010C9660918501E6
:100E700040E00E94670BC80142966091850140E006
:100E80000E94670B1F910F910895AF92BF92CF926E
:100E9000DF92EF92FF920F931F9388E691E06091AB
:100EA000850140E00E94670B8EE691E0609185012C
:100EB00041E00E94670B84E791E06091850140E08A
:100EC0000E94670B8AE791E06091850141E00E94F2
:100ED000670B6091840124E1629FB001112488278F
:100EE00077FD8095982F0E94A9035B016C0120E09B
:100EF00030E04AEF54E40E941F027B018C0120E0A5
:100F000030E040E85FE30E94790388231CF461E04D
:100F100070E024C0C801B70120E03FEF4FE757E47D
:100F20000E9419031816B4F4C601B50120E030E0A0
:100F300040E251E40E941F020E94490088EC90E0C8
:100F400005C0FC013197F1F76150704061157105E2
:100F5000C1F707C0C801B7010E944900CB01019742
:100F6000F1F70E9423071F910F91FF90EF90DF9000
:100F7000CF90BF90AF900895AF92BF92CF92DF9283
:100F8000EF92FF920F931F9388E691E060918501A5
:100F900041E00E94670B8EE691E06091850140E0A0
:100FA0000E94670B84E791E06091850141E00E9417
:100FB000670B8AE791E06091850140E00E94670B32
:100FC0006091840124E1629FB0011124882777FD9C
:100FD0008095982F0E94A9035B016C0120E030E00E
:100FE0004AEF54E40E941F027B018C0120E030E0B4
:100FF00040E85FE30E94790388231CF461E070E01D
:1010000024C0C801B70120E03FEF4FE757E40E943A
:1010100019031816B4F4C601B50120E030E040E22F
:1010200051E40E941F020E94490088EC90E005C034
:10103000FC013197F1F76150704061157105C1F7FE
:1010400007C0C801B7010E944900CB010197F1F721
:101050000E9423071F910F91FF90EF90DF90CF9098
:10106000BF90AF9008950F931F9308E611E0C80159
:1010700060E00E94600BC801069660E00E94600B71
:10108000C8010C9660E00E94600BC801429660E0C7
:101090000E94600B1F910F910895AF92BF92CF9263
:1010A000DF92EF92FF920F931F937C0188E691E00D
:1010B00064E640E00E94670B8EE691E064E641E062
:1010C0000E94670B00E010E0C801B7010E945B04BA
:1010D0005B016C0120E030E04AEF54E40E941F0203
:1010E0007B018C0120E030E040E85FE30E9479035F
:1010F00088231CF461E070E024C0C801B70120E03F
:101100003FEF4FE757E40E9419031816B4F4C601E5
:10111000B50120E030E040E251E40E941F020E944D
:10112000490088EC90E005C0FC013197F1F761506F
:10113000704061157105C1F707C0C801B7010E9471
:101140004900CB010197F1F70E94230780E197E264
:1011500028EC30E0F9013197F1F70197D9F788E6EB
:1011600091E064E641E00E94670B8EE691E064E660
:1011700040E00E94670BC801B70120E030E040E882
:101180005FE30E94790388231CF461E070E024C0CF
:10119000C801B70120E03FEF4FE757E40E94190371
:1011A0001816B4F4C601B50120E030E040E251E485
:1011B0000E941F020E94490088EC90E005C0FC01DB
:1011C0003197F1F76150704061157105C1F707C0A3
:1011D000C801B7010E944900CB010197F1F70E94B5
:1011E00033081F910F91FF90EF90DF90CF90BF9049
:1011F000AF90089588E691E06091850141E00E94FA
:10120000670B8EE691E06091850141E00E94670BDB
:1012100084E791E06091850141E00E94670B8AE7D5
:1012200091E06091850141E00E94670B80E49FE1BD
:1012300028EC30E0F9013197F1F70197D9F70E94D6
:10124000330808950F931F93182F092F0E94C90682
:10125000882331F5812F902F9C01D901E0E8F1E03E
:101260008D91819381E0E438F807D1F78091830173
:101270008283863429F40E94F8060E94230710C056
:10128000823419F40E94FA080BC0823529F40E94B6
:101290000F070E94BC0704C00E940F070E94450769
:1012A0001F910F910895AF92BF92CF92DF92EF926C
:1012B000FF920F931F9308E611E0C8010E94FB0BF9
:1012C00026E0E22EF12CE00EF11EC7010E94FB0B7E
:1012D0009CE0C92ED12CC00ED11EC6010E94FB0B72
:1012E00082E1A82EB12CA00EB11EC5010E94FB0BFD
:1012F000C80160E040E00E94670BC70160E040E089
:101300000E94670BC60160E040E00E94670BC501C8
:1013100060E040E00E94670B1F910F91FF90EF90FB
:10132000DF90CF90BF90AF9008951F920F920FB6AD
:101330000F9211242F933F934F935F936F937F935B
:101340008F939F93AF93BF93EF93FF93E09190019F
:10135000F09191010995FF91EF91BF91AF919F910C
:101360008F917F916F915F914F913F912F910F904E
:101370000FBE0F901F9018951F920F920FB60F92ED
:1013800011242F933F934F935F936F937F938F938A
:101390009F93AF93BF93EF93FF93E0918E01F091F2
:1013A0008F010995FF91EF91BF91AF919F918F911F
:1013B0007F916F915F914F913F912F910F900FBE51
:1013C0000F901F9018951F920F920FB60F92112435
:1013D0002F933F934F935F936F937F938F939F933D
:1013E000AF93BF93EF93FF93E0918C01F0918D0148
:1013F0000995FF91EF91BF91AF919F918F917F914F
:101400006F915F914F913F912F910F900FBE0F9071
:101410001F90189585B78E7F85BF85B7826085BF81
:101420000895813061F0813018F08230B9F40FC036
:1014300070939101609390018BB7806406C07093A4
:101440008F0160938E018BB780688BBF0895709376
:101450008D0160938C018BB780628BBF08958130C2
:1014600041F0813018F0823059F407C08BB78F7B80
:1014700002C08BB78F778BBF08958BB78F7D8BBFE3
:101480000895882391F4662319F0613071F407C040
:1014900085B78E7F85BF85B7826085BF089585B784
:1014A000816085BF85B7826085BF08958FB78068EA
:1014B0008FBF08958FB78F778FBF0895880F82B938
:1014C00086B7846086BF0895880F82B981E080B9AD
:1014D00081B18C7F81B981B181B986B7846086BFC3
:1014E000089586B7806986BF089586B7806A86BFEB
:1014F00006B607FEFDCF81B1887F0895880F862B41
:1015000083B984E886BF06B607FEFDCF81B1887F28
:10151000089583B986B7806886BF06B607FEFDCFFB
:1015200081B1887F0895FC0186B7806886BF06B6C2
:1015300007FEFDCF83B1808381B1887F089586B790
:10154000881F8827881F089586B7806886BF0895FA
:1015500081B1887F089586B7806486BF089586B775
:101560008F7B86BF0895109A089510980895982F3C
:1015700086B7806A86BF06B607FEFDCF81B1887F39
:10158000883011F085E00895892F90E0880F991F29
:1015900083B984E886BF06B607FEFDCF81B1887F98
:1015A000883119F4FB0190E018C086B7806986BFC6
:1015B00080E00895808183B986B7806886BF06B6CB
:1015C00007FEFDCF81B13196887F883229F086B73A
:1015D000806986BF81E008959F5F941758F386B7AE
:1015E000806986BF86E008959C0186B7806486BFC7
:1015F00086B7806886BF06B607FEFDCF81B1887FBB
:10160000803611F083E00895F90190E00FC086B7AD
:10161000806886BF06B607FEFDCF23B181B1887F03
:10162000803811F082E0089521939F5F961778F338
:1016300086B78F7B86BF86E00895982F86B7806A2D
:1016400086BF06B607FEFDCF81B1887F883011F0D6
:1016500085E00895990F916093B984E886BF06B636
:1016600007FEFDCF81B1887F803429F086B780697D
:1016700086BF80E0089586B7806486BFFB0190E056
:1016800015C086B7806886BF06B607FEFDCF23B1BA
:1016900081B1887F803541F086B78F7B86BF86B762
:1016A000806986BF82E0089521939F5F941748F375
:1016B00086B78F7B86BF86B7806986BF86E0089530
:1016C000FC0185810E94DB0C811181E008951F934C
:1016D000CF93DF93EC01142F8D810E94DB0C8111DD
:1016E00081E0112369F48823A1F08881698141E0B8
:1016F0000E94640C882369F08A816B8140E00FC0EE
:10170000882339F08881698140E00E94640C882335
:1017100019F480E090E00CC08A816B8141E00E9466
:10172000640C90E0882309F491E081E09827892FE8
:10173000DF91CF911F910895AF92BF92CF92DF9228
:10174000EF92FF920F931F938C0180E090E00E9434
:101750005B0427E535E545E851E40E941F025B0183
:101760006C01C80160E540E00E94670BC601B5014D
:1017700020E030E04AEF54E40E941F027B018C011C
:1017800020E030E040E85FE30E94790388231CF406
:1017900061E070E024C0C801B70120E03FEF4FE7EF
:1017A00057E40E9419031816B4F4C601B50120E0ED
:1017B00030E040E251E40E941F020E94490088ECA0
:1017C00090E005C0FC013197F1F761507040611560
:1017D0007105C1F707C0C801B7010E944900CB01DC
:1017E0000197F1F71F910F91FF90EF90DF90CF904D
:1017F000BF90AF9008950F93CF93DF93EC01888152
:10180000698141E020E000E00E94210C882341F042
:101810008A816B8141E020E00E94210C882319F429
:1018200080E090E00AC08D810E943D0D90E0882309
:1018300009F491E081E09827892FDF91CF910F91F2
:1018400008950F93522F813069F0813028F0823053
:1018500061F0833021F40CC0E9E3F0E00BC0E0E07C
:10186000F0E008C0E6E3F0E005C0E3E3F0E002C02A
:10187000E0E3F0E081E090E0062E02C0880F991FBF
:101880000A94E2F7382F309521812323842F90E0AA
:10189000062E02C0880F991F0A94E2F7282B218395
:1018A000413021F482813823852F03C0828138237F
:1018B000802F90E002C0880F991F6A95E2F7382BBD
:1018C000328381E00F910895813069F0813028F0F2
:1018D000823061F0833021F40CC0E9E3F0E00BC00A
:1018E000E0E0F0E008C0E6E3F0E005C0E3E3F0E0AC
:1018F00002C0E0E3F0E081E090E0062E02C0880F35
:10190000991F0A94E2F7809522818223242F30E0E8
:1019100002C0220F331F6A95E2F7822B828381E097
:101920000895DA01813069F0813028F0823061F069
:10193000833021F40CC0E9E3F0E00BC0E0E0F0E01C
:1019400008C0E6E3F0E005C0E3E3F0E002C0E0E356
:10195000F0E0808190E002C0959587956A95E2F766
:1019600080FF03C081E08C9301C01C9281E0089548
:101970000E9453090E942307FFCF0E940A0A80E0B9
:1019800068ED7CE00E94110A0E94560A0E945309E9
:101990008FE00E945E0A85B3836085BB88E891E092
:1019A00064E00E94F40A88E891E00E942209F6CFE0
:1019B0000E9433080895262F813051F0813050F075
:1019C000823021F0833041F46FEF46C06FEF32C0B8
:1019D0006FEF1EC06FEF0BC08130C9F0813030F067
:1019E000823039F1833009F046C035C060E070E0E4
:1019F00080E090E030E040E050E00E94D30D24E62B
:101A000030E040E050E00E94F20D2CBF34C060E0B6
:101A100070E080E090E030E040E050E00E94D30DC4
:101A200024E630E040E050E00E94F20D3BBD2ABDCC
:101A300022C060E070E080E090E030E040E050E004
:101A40000E94D30D24E630E040E050E00E94F20D09
:101A500039BD28BD10C060E070E080E090E030E06B
:101A600040E050E00E94D30D24E630E040E050E03A
:101A70000E94F20D23BD81E008950F93813039F16A
:101A8000813038F0823009F445C0833009F088C0D5
:101A900064C012BE8FEF8CBF83B78F7B83BF83B7C9
:101AA000877F83BF83B7806483BF83B7886083BF2A
:101AB00083B78F7C83BF83B7806283BF83B7887F00
:101AC00083BF83B7816083BF81E063E063C01DBCD7
:101AD0001CBC2FEF30E03BBD2ABD8FB58C7F8FBD86
:101AE0008EB5877E8EBD8FB582608FBD8EB58861C5
:101AF0008EBD37BD26BD8FB58F738FBD8FB5806806
:101B00008FBD8EB5887F8EBD8EB581608EBD83E022
:101B100065E040C01DBC1CBC2FEF30E039BD28BDC6
:101B20008FB58C7F8FBD8EB5877E8EBD8FB5826061
:101B30008FBD8EB588618EBD37BD26BD8FB58F7CBC
:101B40008FBD8FB580628FBD8EB5887F8EBD8EB5FF
:101B500081608EBD83E064E01DC014BC8FEF83BD47
:101B600085B58F7B85BD85B5877F85BD85B580644F
:101B700085BD85B5886085BD85B58F7C85BD85B5FE
:101B8000806285BD85B5887F85BD85B5816085BD51
:101B900083E067E041E020E000E00E94210C811139
:101BA00081E00F910895629FD001739FF001829FA1
:101BB000E00DF11D649FE00DF11D929FF00D839FDC
:101BC000F00D749FF00D659FF00D9927729FB00D79
:101BD000E11DF91F639FB00DE11DF91FBD01CF018C
:101BE00011240895A1E21A2EAA1BBB1BFD010DC0F2
:101BF000AA1FBB1FEE1FFF1FA217B307E407F507BD
:101C000020F0A21BB30BE40BF50B661F771F881F98
:101C1000991F1A9469F760957095809590959B012E
:101C2000AC01BD01CF0108952F923F924F925F9278
:101C30006F927F928F929F92AF92BF92CF92DF92DC
:101C4000EF92FF920F931F93CF93DF93CDB7DEB741
:101C5000CA1BDB0B0FB6F894DEBF0FBECDBF0994D5
:101C60002A88398848885F846E847D848C849B842C
:101C7000AA84B984C884DF80EE80FD800C811B813A
:101C8000AA81B981CE0FD11D0FB6F894DEBF0FBE69
:0A1C9000CDBFED010895F894FFCFD9
:101C9A000000000000000000000102020303030329
:101CAA0004040404040404040505050505050505E2
:101CBA0005050505050505050606060606060606C2
:101CCA0006060606060606060606060606060606AA
:101CDA000606060606060606070707070707070792
:101CEA00070707070707070707070707070707077A
:101CFA00070707070707070707070707070707076A
:101D0A000707070707070707070707070707070759
:101D1A000707070707070707080808080808080841
:101D2A000808080808080808080808080808080829
:101D3A000808080808080808080808080808080819
:101D4A000808080808080808080808080808080809
:101D5A0008080808080808080808080808080808F9
:101D6A0008080808080808080808080808080808E9
:101D7A0008080808080808080808080808080808D9
:101D8A0008080808080808080808080808080808C9
:101D9A0008080808080808080204020500000202E8
:101DAA00020301010001000202020003000403030E
:081DBA000000000000460000DB
:00000001FF
