S01200004156525F53797374656D2E7372656345
S11300000C942A000C943F000C943F000C943F0085
S11300100C943F000C943F000C943F000C943F0060
S11300200C943F000C943F000C943F000C943F0050
S11300300C943F000C943F000C943F000C943F0040
S11300400C943F000C943F000C943F000C943F0030
S11300500C943F0011241FBECFE5D8E0DEBFCDBF16
S113006010E0A0E6B0E0E4E4F5E002C005900D92F3
S1130070AC36B107D9F70E9442010C94A0020C944B
S113008000000F93CF93DF93EC0100E020E041E008
S1130090698188810E94C600882311F081E001C033
S11300A080E0882359F000E020E041E06B818A8100
S11300B00E94C600882321F081E003C080E001C0D3
S11300C080E0882339F08D810E947301882321F018
S11300D081E003C080E001C080E0DF91CF910F9107
S11300E00895FC0185810E942B02882311F081E090
S11300F0089580E008951F93CF93DF93EC01142FAC
S11301000E947100882311F081E001C080E0111188
S11301101DC0882349F041E0698188810E9418014B
S1130120882321F081E003C080E001C080E08823BF
S113013049F040E06B818A810E941801882321F0F4
S113014081E020C080E01EC080E01CC0882349F00C
S113015040E0698188810E941801882321F081E0B0
S113016003C080E001C080E0882349F041E06B8156
S11301708A810E941801882321F081E003C080E075
S113018001C080E0DF91CF911F9108950F931F93D9
S1130190813041F080F0823041F0833049F0A0E0BA
S11301A0B0E00BC0A6E3B0E008C0A3E3B0E005C034
S11301B0A0E3B0E002C0A9E3B0E011963C9111972E
S11301C081E090E0062E02C0880F991F0A94E2F79E
S11301D08095E42FF0E0062E02C0EE0FFF1F0A9474
S11301E0E2F7932F9823E92B1196EC931197413062
S11301F071F412969C91129730E002C0220F331FC3
S11302006A95E2F78923822B12968C930DC012967D
S11302109C91129710E002C0000F111F6A95E2F73B
S11302208923802B12968C9381E01F910F9108955E
S1130230813041F080F0823041F0833049F0E0E0D9
S1130240F0E00BC0E6E3F0E008C0E3E3F0E005C053
S1130250E0E3F0E002C0E9E3F0E0228181E090E035
S1130260062E02C0880F991F0A94E2F750E002C0DC
S1130270440F551F6A95E2F780958223482B4283E9
S113028081E00895CF93DF93CDB7DEB72C970FB6F7
S1130290F894DEBF0FBECDBF86E0E0E6F0E0DE01FD
S11302A0119601900D928A95E1F786E0E6E6F0E07A
S11302B0DE01179601900D928A95E1F7CE01019621
S11302C00E94410040E064E6CE0101960E947B005A
S11302D0CE0107960E94410040E064E6CE010796F5
S11302E00E947B00FFCF0F93813081F138F0823080
S11302F009F459C0833009F483C0AAC012BE8FEF39
S11303008CBF83B78F7B83BF83B7877F83BF83B75C
S1130310806483BF83B7886083BF83B78F7C83BFC8
S113032083B7806283BF83B7887F83BF83B78160CD
S113033083BF00E020E041E063E081E00E94C6006A
S1130340882311F081E085C080E083C01DBC1CBC03
S11303502FEF30E03BBD2ABD8FB58C7F8FBD8EB5AE
S1130360877E8EBD8FB582608FBD8EB588618EBD50
S113037037BD26BD8FB58F738FBD8FB580688FBD98
S11303808EB5887F8EBD8EB581608EBD00E020E085
S113039041E065E083E00E94C600882311F081E01B
S11303A058C080E056C01DBC1CBC2FEF30E039BDE6
S11303B028BD8FB58C7F8FBD8EB5877E8EBD8FB5E2
S11303C082608FBD8EB588618EBD37BD26BD8FB569
S11303D08F7C8FBD8FB580628FBD8EB5887F8EBDBB
S11303E08EB581608EBD00E020E041E064E083E0F2
S11303F00E94C600882311F081E02BC080E029C050
S113040014BC8FEF83BD85B58F7B85BD85B5877F94
S113041085BD85B5806485BD85B5886085BD85B598
S11304208F7C85BD85B5806285BD85B5887F85BD9A
S113043085B5816085BD00E020E041E067E083E0B0
S11304400E94C600882311F081E003C080E001C04F
S113045081E00F910895843010F020E001C02FEF67
S1130460813099F028F08230F1F0833051F135C0B9
S113047030E0A62FB0E00E94910224E630E040E094
S113048050E00E946F022CBF28C030E0A62FB0E0DD
S11304900E94910224E630E040E050E00E946F02A6
S11304A03BBD2ABD1AC030E0A62FB0E00E949102E5
S11304B024E630E040E050E00E946F0239BD28BDE0
S11304C00CC030E0A62FB0E00E94910224E630E098
S11304D040E050E00E946F0223BD81E00895A1E254
S11304E01A2EAA1BBB1BFD010DC0AA1FBB1FEE1FAA
S11304F0FF1FA217B307E407F50720F0A21BB30BF5
S1130500E40BF50B661F771F881F991F1A9469F770
S113051060957095809590959B01AC01BD01CF01CC
S11305200895A29FB001B39FC001A39F700D811DC8
S11305301124911DB29F700D811D1124911D0895E8
S1070540F894FFCF59
S10F054402000201000003000301010199
S9030000FC
