:020000040800F2
:100000000820002031050008CD040008CD040008B8
:10001000CD040008CD040008CD0400080000000055
:10002000000000000000000000000000CD040008F7
:10003000CD04000800000000CD040008CD04000835
:1000400000B587B06A48006850F001006849086050
:100050006848006850F0020066490860654800681A
:1000600050F00100634908606348D0E90023CDE9FE
:1000700004236248D0E90023CDE9022304A800F05C
:10008000D1F802A800F0CEF85D48D0E90023CDE910
:10009000002300A800F042F900A800F083F91A211B
:1000A00000A800F09FF900A800F0ABF90B2100A810
:1000B00000F0B0F9012100A800F0ACF900A800F0B0
:1000C00083F900A800F06EF91A2100A800F08AF95F
:1000D00000A800F096F9092100A800F09BF91D2165
:1000E00000A800F097F900A800F06EF900A800F051
:1000F00059F91A2100A800F075F900A800F081F95B
:10010000092100A800F086F900A800F04BF91B2196
:1001100000A800F067F900A800F0A3F900A800F01B
:1001200070F900A800F050F9364900A800F081F9F4
:1001300000A800F037F91A2100A800F053F900A830
:1001400000F05FF9062100A800F064F900A800F0B3
:1001500029F91B2100A800F045F900A800F081F959
:1001600000A800F04EF900A800F02EF9264900A8DA
:1001700000F05FF924480078C007D9D500A800F046
:1001800069F900A800F00EF91A2100A800F02AF978
:1001900000A800F036F9002100A800F03BF900A803
:1001A00000F000F91B2100A800F01CF900A800F0E5
:1001B00028F9164900A800F03CF9154900A800F0FC
:1001C00038F9144900A800F034F9134900A800F0E8
:1001D00030F9124900A800F02CF900A800F041F90C
:1001E00000A800F0F1F80E4900A800F022F99FE7FE
:1001F00000380240303802403C0500084405000841
:100200004C05000800000020010000200200002032
:10021000030000200400002005000020060000204C
:100220000700002010B400210278002A03D0022A1F
:1002300005D002D304E0364902E0364900E03649F1
:100240000A6803234478E4B26400A3409A430A6036
:100250000A6883784478E4B26400A3401A430A60D1
:100260004A68012390F90140A3409A434A604A68D2
:10027000C37890F90140A3401A434A60CA68032337
:100280004478E4B26400A3409A43CA60CA68037920
:100290004478E4B26400A3401A43CA604A69012367
:1002A00090F90140A3409A434A614A69437990F921
:1002B0000140A3401A434A618279FF2A26D042783E
:1002C000082A11DA0A6A0F234478E4B2A400A34092
:1002D0009A430A620A6A83794078C0B2800013FAAE
:1002E00000F01043086211E04A6A0F234478E4B238
:1002F000A400A3409A434A624A6A83794078083846
:10030000C0B2800013FA00F01043486210BC70477E
:1003100000000240000402400008024001000020EA
:10032000002901D1012038E01D4A126852F4001260
:100330001B4B1A6000220B681A600A6812680B686F
:100340001A600A6812680B7952EA43020B681A6055
:1003500000220B685A600A68526852F010020B685B
:100360005A6000220B68DA610A68D2690B68DA61A8
:100370000A68D26952F050020B68DA6100220B68F9
:100380001A620A68126A52F011020B681A620A684D
:10039000126852F0010209680A60C0B2704700009A
:1003A000403802400021002801D1012109E0026803
:1003B000126852F4807203681A600268127DD207D4
:1003C000FBD50800C0B270470021002801D10121EF
:1003D00005E00268126852F40072006802600800CA
:1003E000C0B270470022002801D1012206E0C9B244
:1003F000036819610168097D8907FBD51000C0B247
:10040000704781B001684969009100688069009077
:1004100001B070470022002801D1012206E0C9B2D4
:10042000036819610168097D4907FBD51000C0B256
:1004300070470022002801D0002901D1012206E0E6
:1004400003681B7D5B06FBD500680069087010001F
:10045000C0B270470168096851F4806100680160AA
:1004600070470168096831F4806100680160704775
:1004700010B5074979441831064C7C44163404E021
:100480000A68081D511888470146A142F8D110BDDD
:100490002C0000003800000050F8041B61B150F837
:1004A000042BD30744BFA9F101039A18002342F893
:1004B000043B091FFAD1EFE770470000DDFFFFFFA3
:1004C000080000000000002000000000FEE700001F
:1004D0004EF68851CEF20001086840F470000860C2
:1004E0004FF00070E1EE100A7047000000F00BF8CA
:1004F000002801D0FFF7BCFF0020C046C046FFF730
:100500009FFD00F002F80120704700F001B80000E4
:100510000746384600F002F8FBE7000080B5C04609
:10052000C046024A11001820ABBEFBE726000200BD
:10053000C046C046FFF7CCFFFFF7D8FF0106020117
:100540000101040001070201010104000054004000
:0405500000000000A7
:0400000508000531B9
:00000001FF
