:020000040800F2
:1000000000200020E10100089B0100089B0100087E
:100010009B0100089B0100089B01000800000000F4
:100020000000000000000000000000009B0100082C
:100030009B010008000000009B0100089B010008D4
:1000400010B400210278002A03D0022A05D002D37E
:1000500004E0364902E0364900E036490A680323E5
:100060004478E4B26400A3409A430A600A68837843
:100070004478E4B26400A3401A430A604A6801234A
:1000800090F90140A3409A434A604A68C37890F9C6
:100090000140A3401A434A60CA6803234478E4B28B
:1000A0006400A3409A43CA60CA6803794478E4B202
:1000B0006400A3401A43CA604A69012390F90140D1
:1000C000A3409A434A614A69437990F90140A340A9
:1000D0001A434A618279FF2A26D04278082A11DA27
:1000E0000A6A0F234478E4B2A400A3409A430A6248
:1000F0000A6A83794078C0B2800013FA00F0104396
:10010000086211E04A6A0F234478E4B2A400A340D5
:100110009A434A624A6A837940780838C0B28000BC
:1001200013FA00F01043486210BC70470000024010
:1001300000040240000802401CB50E48006850F060
:1001400001000C4908600C48006850F001000A49A1
:10015000086000240AE00948D0E90023CDE9002323
:100160008DF8014000A8FFF76BFF641CE4B2102C6F
:10017000F1DBFEE70038024030380240EC010008B5
:100180004EF68851CEF20001086840F47000086015
:100190004FF00070E1EE100A7047FEE700F00BF838
:1001A000002801D0C046C0460020C046C046FFF728
:1001B000C3FF00F002F80120704700F001B8000012
:1001C0000746384600F002F8FBE7000080B5C0465D
:1001D000C046024A11001820ABBEFBE72600020011
:1001E000C046C046FFF7CCFFFFF7D8FF0000000075
:0401F0000100FF000B
:04000005080001E10D
:00000001FF
