:020000040800F2
:100000000020002045060008070300080703000839
:1000100007030008070300080703000800000000AA
:1000200000000000000000000000000007030008BE
:10003000070300080000000007030008070300088A
:10004000841A71EB030604D26E40001BB1411219F1
:1000500073414FF4001C1CEB410F34BF7CEB430693
:1000600084E00C0DA4EB1356362E7DDC012E43DC10
:1000700045EAC32343EA525312BFD20292025B08FD
:10008000240545EAC12141EA5051D2EBC0209941F3
:1000900025D407D1B0FA80F610FA06F164D000201A
:1000A000203608E0B1FA81F6B140C6F1200220FA0C
:1000B00002F21143B0404FEAF474B4EB465434F00A
:1000C00001064FEA74040AD8D6F50016760D04F03E
:1000D0000044F04061FA06F25040F1404840C00A46
:1000E00040EA415021F0004128BF5FEA500550F13D
:1000F000000044EBD12137E045EAC323DB0A45EA9F
:10010000C121C90AB6F120050EDD42EA0242120CF5
:10011000C5F1200603FA06F6EB4042EA06056D42F9
:10012000984161F100010DE062FA06F5F240554098
:1001300063FA06FC82EA0C02F3405A406D42904199
:1001400061EB030111F4801F05D1641E620502D02A
:100150006D004041494121F48011430875F100438D
:1001600050F1000041EB045170BC70471CEB410F93
:1001700015D223F0004352EA43060BD04FEA4C0C51
:10018000BCEB410F04D80C0D661E342EB7DDEBE737
:10019000801A994150EA410608BF0021E4E708BFF0
:1001A0001CEB430F28BF6FF00001DDE738B50400FA
:1001B0002F48006850F010002D4908600020216889
:1001C000C8602068C06850F400502168C86020688A
:1001D000C068617950EA01302168C8602068006910
:1001E000A17950EA01302168086100202168886007
:1001F000A068000100EE100AB8EE400ADFED1B0A0D
:1002000080EE800AFDEEC00A10EE905AADB200EE0C
:10021000905AF8EE600A30EE600AF3EE000A20EE23
:10022000200A10EE100A00F047F80022114B00F0EF
:100230006BF800F0DDF821688968ADB251EA05116C
:100240002268916021688968C0B20843216888608B
:100250002068C06850F008002168C8602068C06845
:1002600050F004002168C86031BD00000024744BC8
:10027000443802400000E03F026812781206FBD5C5
:10028000C9B2006841607047016809788906FBD5EA
:1002900000684068C0B2704770B504000D000026C9
:1002A00005E0F6B2715D2000FFF7E6FF761CF6B2BE
:1002B000705D0028F5D170BD5FF0FF0C1CEAD051D5
:1002C00014BF614506E0C110400721F0E04101F193
:1002D0006051704779B900F0004100020AD0B0FACD
:1002E00080FC00FA0CF001F16051A1EB0C5101EB24
:1002F000D0214005704741020CBF40F4E0016FF08F
:10030000000100207047FEE770B44FF0004591EA0D
:10031000030C44BF6B40FFF793BE00BF841A71EB20
:10032000030603D2001BB141121973414FF4001CA4
:100330001CEB410F34BF7CEB430443E00C0DA4EBFA
:100340001356352E50DC45EAC323DB0A45EAC121AA
:10035000C912B6F120050DDD63FA05F6EB4086EA19
:100360000305124218BF45F00105C01851F1000104
:100370000CD213E062FA06F5F2405540F3415A40C0
:10038000B340F3405A408018594107D349085FEA07
:1003900030005FEA350528BF45F0010501F5801101
:1003A000420875F1004250F1000041EB045170BC6D
:1003B0004FF4001C1CEB410F38BF70470020090DA3
:1003C000090570471CEB410F10D252EA43060BD0CF
:1003D000BCEB410F05D80C0DAB43661E342EB5DDCA
:1003E00002E0AB438018594170BC704770BC704745
:1003F000F446400D40EAC120490006D200F00EF854
:10040000004248BF6FF00040604700F007F84FF02F
:10041000004188428CBF08464042604740F000409F
:10042000490DA1F58061491C05D4D1F11F0154BFCC
:10043000C840C01770474FF00000704710B400214B
:100440000278002A03D0022A05D002D304E03649FC
:1004500002E0364900E036490A6803234478E4B2F2
:100460006400A3409A430A600A6883784478E4B23F
:100470006400A3401A430A604A68012390F90140CE
:10048000A3409A434A604A68C37890F90140A34068
:100490001A434A60CA6803234478E4B26400A34064
:1004A0009A43CA60CA6803794478E4B26400A340FE
:1004B0001A43CA604A69012390F90140A3409A4354
:1004C0004A614A69437990F90140A3401A434A615D
:1004D0008279FF2A26D04278082A11DA0A6A0F2385
:1004E0004478E4B2A400A3409A430A620A6A83797A
:1004F0004078C0B2800013FA00F01043086211E0A7
:100500004A6A0F234478E4B2A400A3409A434A62A3
:100510004A6A837940780838C0B2800013FA00F044
:100520001043486210BC70470000024000040240C3
:100530000008024010B58AB02048006850F0010061
:100540001E4908601E48006850F001001C49086000
:1005500000240AE01B48D0E90023CDE903238DF8ED
:100560000D4003A8FFF76AFF641CE4B2102CF1DB16
:100570001548D0E90023CDE907231448D0E900232A
:10058000CDE9052307A8FFF759FF05A8FFF756FF98
:1005900000A80F491CC91CC00C390C3800A8FFF773
:1005A00005FE0C4900A8FFF777FE00A8FFF76CFED8
:1005B0000100C9B200A8FFF75FFEF6E7003802406D
:1005C000303802405006000858060008600600084F
:1005D00038060008680600084EF68851CEF2000181
:1005E000086840F4700008604FF00070E1EE100AF7
:1005F0007047000000F00BF8002801D0C046C0464C
:100600000020C046C046FFF795FF00F002F8012029
:10061000704700F001B800000746384600F002F8C5
:10062000FBE7000080B5C046C046024A1100182012
:10063000ABBEFBE7260002000010014001000000F5
:1006400080250000C046C046FFF7C6FFFFF7D2FF77
:10065000000000000100FF00000902000100070087
:10066000000A02000100070066696E616C0D0A0055
:0400000508000645A4
:00000001FF
