:020000040800F2
:1000000088210020A9240008FB0D0008FB0D000832
:10001000FB0D0008FB0D0008FB0D000800000000B0
:10002000000000000000000000000000FB0D0008C0
:10003000FB0D000800000000FB0D0008FB0D000890
:1000400000B583B001210B2000F01DF81D2109200F
:1000500000F019F840F2AF500190DFF8CC050090A5
:100060004FF4A563DFF8C42540F27A61DFF8C005DC
:1000700000F0CEF92D21042000F0B6FA07BDDFF81C
:10008000B4150860704738B504000D00DFF8A4050A
:10009000006800F02FFB1A21DFF89805006800F0D7
:1000A00049FBDFF89005006800F053FB2100C9B25E
:1000B000DFF88005006800F055FB2900C9B2DFF8C1
:1000C0007405006800F04EFBDFF86805006800F07A
:1000D00023FB31BD38B505000C00DFF8580500687A
:1000E00000F008FB1A21DFF84C05006800F022FB45
:1000F000DFF84005006800F02CFB2900C9B2DFF8EA
:100100003405006800F02EFBDFF82805006800F0D9
:10011000F1FA1B21DFF81C05006800F00BFBDFF88B
:100120001405006800F045FBDFF80805006800F0E2
:1001300010FBDFF80005006800F0EEFA2100DFF8A0
:10014000F404006800F01DFB31BD80B500208DF87F
:10015000000003E000A90620FFF7BCFF9DF80000A7
:10016000C007F7D5DFF8CC04006800F01BFBDFF810
:10017000C404006800F0BEFA1A21DFF8B804006871
:1001800000F0D8FADFF8AC04006800F0E2FA0021D1
:10019000DFF8A004006800F0E5FADFF898040068D2
:1001A00000F0A8FA1B21DFF88C04006800F0C2FA06
:1001B000DFF88004006800F0CCFADFF87C14DFF888
:1001C0007404006800F0DDFADFF87014DFF86404EE
:1001D000006800F0D6FADFF86814DFF85804006809
:1001E00000F0CFFADFF85C14DFF84804006800F094
:1001F000C8FADFF85414DFF83C04006800F0C1FAD4
:10020000DFF83004006800F0D4FADFF82804006852
:1002100000F082FADFF83414DFF81804006800F008
:10022000B0FA01BD10B52DED028B0400FFF78DFF74
:10023000DFF804044078DFF80014097851EA002060
:100240002080DFF8F403C078DFF8EC13897851EAF6
:1002500000206080DFF8E0034079DFF8DC130979E3
:1002600051EA0020A080200000F074F9B4F90000E9
:1002700000F0A6FA41EC110BB0EE418AF0EE618A73
:10028000B4F9020000F09CFA41EC100BB0EE481AF1
:10029000F0EE681A00F01CFB53EC102BDFF8B003F3
:1002A000DFF8B01300F01EFB00F004FCA06094ED3A
:1002B000020ADFF8A403D0ED000A30EE200A84ED34
:1002C000020A94ED020AB5EE400AF1EE10FA07D5E3
:1002D00094ED020ADFEDBF0A30EE200A84ED020A37
:1002E00094ED020ADFEDBC0AB4EE600AF1EE10FAFA
:1002F0000BDB94ED020ADFEDB90AB4EE600AF1EE11
:1003000010FA02D5072020737FE094ED020ADFED9A
:10031000B40AB4EE600AF1EE10FA0BDB94ED020AB7
:10032000DFEDB00AB4EE600AF1EE10FA02D501205A
:1003300020736AE094ED020ADFEDAA0AB4EE600AC7
:10034000F1EE10FA0BDB94ED020ADFEDB30AB4EE26
:10035000600AF1EE10FA02D50220207355E094ED08
:10036000020ADFEDAD0AB4EE600AF1EE10FA0BDB23
:1003700094ED020ADFEDA90AB4EE600AF1EE10FA7C
:1003800002D50320207340E094ED020ADFEDA30ABA
:10039000B4EE600AF1EE10FA0BDB94ED020ADFED29
:1003A000A00AB4EE600AF1EE10FA02D50420207320
:1003B0002BE094ED020ADFED9A0AB4EE600AF1EE4A
:1003C00010FA0BDB94ED020ADFED960AB4EE600A38
:1003D000F1EE10FA02D50520207316E094ED020A22
:1003E000DFED900AB4EE600AF1EE10FA0BDB94ED4B
:1003F000020ADFED790AB4EE600AF1EE10FA02D5D6
:100400000620207301E000202073BDEC028B10BD9C
:100410002DE9F8432DED048B81460C0090461D001C
:10042000BDF93060BDF934703FB207FA86F000F0D4
:10043000C7F900225FF0804300F084FB00F03AFB34
:1004400001EE100AB0EE418A2DB205FA88F000F0F4
:10045000B7F900225FF0804300F074FB00F02AFB44
:1004600000EE900AB0EE481AB0EE608AF0EE418AD3
:1004700024B204FA89F000F0A3F900225FF080436F
:1004800000F060FB00F016FB00EE100AB0EE681AF8
:10049000F0EE480A00F04AF824B20FFA89F9B4EBFA
:1004A000090000F08DF900225FF0804300F04AFB64
:1004B00000F000FB08EE100A2DB20FFA88F8B5EB39
:1004C000080000F07DF900225FF0804300F03AFB65
:1004D00000F0F0FA08EE900A3FB236B2B81B00F016
:1004E0006FF900225FF0804300F02CFB00F0E2FA8D
:1004F00009EE100A38EE280A30EE090A10EE100A4A
:1005000000F054FC0022554B00F01CFB00F0D2FA26
:1005100000EE100A80EE091AC0EE280A80EE080AE2
:1005200000F00EF8BDEC048BBDE8F1834C4880ED83
:10053000000A4B48C0ED010A494880ED021A704795
:10054000484880ED000A4748C0ED010A454880ED63
:10055000021A7047B0F9001000EE101AB8EEC00A87
:100560003F49D1ED000A30EE600A3E49D1ED000A64
:1005700020EE200ABDEEC00A10EE101A0180B0F97C
:10058000021000EE101AB8EEC00A3549D1ED010A8A
:1005900030EE600A3349D1ED010A20EE200ABDEEAB
:1005A000C00A10EE101A4180B0F9041000EE101AC3
:1005B000B8EEC00A2A49D1ED020A30EE600A294994
:1005C000D1ED020A20EE200ABDEEC00A10EE101A8C
:1005D000818070470000B4430140924301C0A843AA
:1005E0000100B4410100874270B50E00C0B200F0B6
:1005F000F1F804000D00F6B2300000F0EBF8002234
:10060000194B00F09FFA22002B0000F0F7FB00F0DE
:1006100051FA1149086070BD0100E14201801D439B
:1006200001804A43018077439DFBFFFFE2F9FFFF12
:10063000E4FAFFFF84010020700100207101002016
:100640007201002073010020740100207501002058
:10065000775AF01ADCA54C408001002000000840C9
:10066000540100206400002000004E4001000020E2
:10067000002901D1012038E01D4A126852F400120D
:100680001B4B1A6000220B681A600A6812680B681C
:100690001A600A6812680B7952EA43020B681A6002
:1006A00000220B685A600A68526852F010020B6808
:1006B0005A6000220B68DA610A68D2690B68DA6155
:1006C0000A68D26952F050020B68DA6100220B68A6
:1006D0001A620A68126A52F011020B681A620A68FA
:1006E000126852F0010209680A60C0B27047000047
:1006F000403802400021002801D1012109E00268B0
:10070000126852F4807203681A600268127DD20780
:10071000FBD50800C0B270470021002801D101219B
:1007200005E00268126852F4007200680260080076
:10073000C0B270470022002801D1012206E0C9B2F0
:10074000036819610168097D8907FBD51000C0B2F3
:10075000704781B001684969009100688069009024
:1007600001B070470022002801D1012206E0C9B281
:10077000036819610168097D4907FBD51000C0B203
:1007800070470022002801D0002901D1012206E093
:1007900003681B7D5B06FBD50068006908701000CC
:1007A000C0B270470168096851F480610068016057
:1007B00070470168096831F4806100680160704722
:1007C000010040F10980F446404200F005F851F084
:1007D00000416047010000BF09D0B0FA80F18840B5
:1007E000C91CC1F58461090501EBD02140057047A2
:1007F00038B50FB4DDE9020100F074FB0546DDE910
:10080000000100F06FFB012DB8BF012830DA01981C
:10081000002807D5DDE9000181F00041CDE90001A4
:10082000082400E000240398002807D5DDE9020130
:1008300081F00041CDE9020184F00604DDE9020106
:10084000DDE9002300F06EFB04D200F07BF941ECFF
:10085000100B29E0002D08D5DDE90001DDE90223B8
:1008600000F070F941EC100B20E09FED150B1DE03E
:10087000022808BFDDE9000120D0022D08BFDDE914
:1008800002011BD085420CBF9FED0F0B9FED0C0B9F
:10089000019900294CBF082400240399002948BF6E
:1008A00084F00604012801D184F00204224605B038
:1008B000BDE8304051EC100B00F04EBB05B030BD30
:1008C0000000000000000000000000000000F03FF9
:1008D00080B553EC112B51EC100BFFF789FF41EC65
:1008E000100B01BDB0B581EA030C0CF0004C40F2D6
:1008F000FF7515EA11541DBF15EA1357AC42AF42FC
:1009000039E0E41923EA455343F48013C90241F066
:10091000004141EA505EC7021100A7FB0202002815
:100920004FF00000EEFB01204FF00001E3FB072138
:1009300018BF42F00102401800214941E3FB0E01BB
:10094000A4F580640F0302D252004041494154F1A2
:1009500001046CDD470872F1004250F1000051EBD8
:100960000451A1F580115CBF41EA0C01B0BD4CEA15
:1009700005510020B0BD05EA1357AC4214BFAF4289
:1009800041E050EA410E1CBF52EA430E02E06146CC
:100990000020B0BD24423C441BD15FEA070EF6D0D4
:1009A000090302BF01460020AEF1140EB1FA81F72F
:1009B000AEEB070401FA07FE0C37C7F1200100FA7D
:1009C00007F7C8404EEA000E23EA455343F480136C
:1009D000A2E733F00043B3FA83F704BFB2FA82FE12
:1009E00077440B3FE41BB7F1200E2FBF02FA0EF342
:1009F000BB40C7F1200E22FA0EFE38BF43EA0E03B9
:100A0000BA40641C82E750EA410E14BF52EA430E1A
:100A10006FF000014FF4001717EB430F8ABF194620
:100A200017EB410FB5E74CEA05510020B0BDD4F1FA
:100A30000104B4F120070FDAC4F12007520828BFDF
:100A400042F0010210FA07F501FA07F7E1BF2A4365
:100A5000E0403843E1400FE0352C98DCC7F120043A
:100A600052EA400220FA07F218BF42F0010231FABE
:100A700007F0A1400A43002172F1004250F100004A
:100A800051EB0C01B0BD10B450F8041B81B10268E9
:100A90001218001D50F8043BDC0744BFA9F1010403
:100AA000E31852F8044B43F8044B091FF9D1EBE764
:100AB00010BC70474FEAF17CBCF1E04C2CBFBCF598
:100AC000001F11E05FEA4C0C34BFBCF17F5F2EE0E9
:100AD0005FEA9C0C4FEA0C1C4FEA3C0CC10071F120
:100AE00000414CEB50707047C90241EA5051C002BE
:100AF00018BF41F0010141F000414FEA6C50C0F1D4
:100B00000900212810D240EACC7CCCF1200C11FA4B
:100B10000CF070F10040CCF1200C21FA0CF00CF03C
:100B2000004C40EB0C0070474FEACC707047490016
:100B300011F5001F04D84FEACC10FF30C0057047F4
:100B4000C8177047F0B540F2FF7581EA030C0CF04E
:100B5000004C15EA11541DBF15EA1357AC42AF42C1
:100B6000E5E0BC41C1F31301C3F31303801A9941BB
:100B700043F4801304D2641E400049418018594157
:100B8000C90241EA5051B1FBF3F603FB1611A2FB77
:100B90000675D7EBC020A94102D2761E80185941B4
:100BA000C90241EA5051B1FBF3FE03FB1E11A2FB47
:100BB0000E75D7EBC020A94103D2AEF1010E80180B
:100BC0005941890241EA9051760546EA8E2EB1FBE1
:100BD000F3F603FB1611A2FB0675D7EB8020A941A3
:100BE00002D2761E80185941C90241EA50514EEA9C
:100BF000060EB1FBF3F603FB1611A2FB0675D7EB4D
:100C0000C020A94102D2761E80185941C90241EA8A
:100C10005051B1FBF3F703FB1711A2FB0735D3EBE0
:100C2000C020A94167F100070CBF004247F001074F
:100C300066F3D5274FEA1E31B80814F5806412DD3B
:100C4000BD0775F1004250EB0E5051EB045111F508
:100C5000801F5CBF41EA0C01F0BD4CF07F6141F0A8
:100C6000E0410020F0BDBD076D0840EA0E5041F4A0
:100C70008011D4F10104B4F120060ADAC4F120068F
:100C80000200E04001FA06F3E1401843B240154388
:100C90000EE0342C13DCC6F1200445EA40056D0853
:100CA00020FA06F2154321FA06F0A1400D43002177
:100CB00075F1004250F1000051EB0C01F0BD002035
:100CC0005FEA0C01F0BDCFB992185B41B3FA83F72C
:100CD00004BFB2FA82F6BF190B3FB7F120062FBF4F
:100CE00002FA06F3BB40C7F1200622FA06F638BF27
:100CF0003343BA401CB1E419641E33E77F4231F03C
:100D00000041B1FA81F404BFB0FA80F6A4190B3C9B
:100D1000B4F120062FBF00FA06F1A140C4F120066D
:100D200020FA06F638BF3143A0403C1B1AE7AC421C
:100D30001ABF05EA1357AF4212E050EA41061CBF42
:100D400052EA4306BFE750EA4107304661461CBFFE
:100D500041EA0551F0BD52EA430C08BFC143F0BD62
:100D600000204FF4001616EB410F98BF16EB430F0F
:100D700008BF16EB410F24BFC14305E016EB430F3C
:100D80000CBF61464CEA0551F0BD50F8041B61B13F
:100D900050F8042BD30744BFA9F101039A1800238C
:100DA00042F8043B091FFAD1EFE770475FF0FF0CF0
:100DB0001CEAD05114BF614506E0C110400721F084
:100DC000E04101F16051704779B900F00041000243
:100DD0000AD0B0FA80FC00FA0CF001F16051A1EBEE
:100DE0000C5101EBD0214005704741020CBF40F48B
:100DF000E0016FF0000100207047FEE770B44FF093
:100E0000004591EA030C44BF6B4000F0A7B900BF56
:100E1000841A71EB030603D2001BB141121973410E
:100E20004FF4001C1CEB410F34BF7CEB430443E048
:100E30000C0DA4EB1356352E50DC45EAC323DB0A18
:100E400045EAC121C912B6F120050DDD63FA05F6A8
:100E5000EB4086EA0305124218BF45F00105C018B1
:100E600051F100010CD213E062FA06F5F240554050
:100E7000F3415A40B340F3405A408018594107D3D8
:100E800049085FEA30005FEA350528BF45F00105F3
:100E900001F58011420875F1004250F1000041EB6C
:100EA000045170BC4FF4001C1CEB410F38BF70475D
:100EB0000020090D090570471CEB410F10D252EAC2
:100EC00043060BD0BCEB410F05D80C0DAB43661E9F
:100ED000342EB5DD02E0AB438018594170BC704739
:100EE00070BC704703B4DDE90023C3F30A5140F23C
:100EF000FF72914206D001B10CE0190350EA1130A3
:100F000006D00BE0190350EA113014BF0220012073
:100F100002B070474FF0FF3002B070476FF0010031
:100F200002B070474FF4001C1CEB410F94BF1CEB48
:100F3000430F09E041EA030C50EA4C0C52EA0C0C56
:100F400003D2994208BF9042704714BF8B4282423D
:100F50007047000000000000D0B514462DED048B52
:100F6000534A544B00F0B0F941EC180B1DD89FEDDB
:100F7000529B53EC182B51EC190BFFF7B3FC0022DA
:100F80004F4BFFF73BFF06460F4653EC182B51EC37
:100F9000190BFFF733FF02460B4630463946FFF781
:100FA000D1FD41EC180B44F0010451EC180B002268
:100FB000444BFFF7B7FF05D301224FF0795300F000
:100FC00083F951D853EC182BFFF78CFC41EC190B2B
:100FD00053EC182BFFF786FC06460F4653EC192BF3
:100FE00039483A49FFF77EFC394A3A4BFFF706FF8A
:100FF00053EC192BFFF776FC374A384BFFF7FEFE10
:1010000032463B46FFF76EFC53EC182BFFF7F6FE1B
:1010100006460F4653EC192B31483249FFF762FC64
:10102000314A324BFFF7EAFE53EC192BFFF75AFC1B
:101030002F4A304BFFF7E2FE53EC192BFFF752FC1F
:101040002D4A2E4BFFF7DAFE53EC192BFFF74AFC23
:101050002B4B0022FFF7D2FE02460B4630463946A4
:10106000FFF770FD41EC180BA00705D551EC180BEC
:1010700081F0004141EC180B14F007020BD00FF285
:10108000880303EBC20251EC180B53681268FFF798
:10109000B5FE41EC180B200705D551EC180B81F07B
:1010A000004141EC180B51EC180BBDEC048BD0BD8A
:1010B00057CD9E5E1426D13FAA4C58E87AB6FB3F26
:1010C0000000F0BF000040BE845D57134B57B03F97
:1010D000B2934C19ED5EE43FBEDE02B90240F83F28
:1010E000DE39028FC7C0743F8AAB1283000CC83F41
:1010F00024D7E508B6D8F03F0F34580E5895FD3F79
:101100000000F03F000000000000000000000000B0
:1011100066732D3852C1E03F182D4454FB21F93F2E
:1011200066732D3852C1F03F182D4454FB21F93F0E
:1011300066732D3852C10040182D4454FB210940DC
:101140003FD038C6A6F1044070B44FF0004591EA94
:10115000030F44BF6B40FFF75BBE00BF841A71EB07
:10116000030604D26E40001BB141121973414FF4C3
:10117000001C1CEB410F34BF7CEB430684E00C0DDC
:10118000A4EB1356362E7DDC012E43DC45EAC32347
:1011900043EA525312BFD20292025B08240545EA89
:1011A000C12141EA5051D2EBC020994125D407D149
:1011B000B0FA80F610FA06F164D00020203608E07C
:1011C000B1FA81F6B140C6F1200220FA02F21143D1
:1011D000B0404FEAF474B4EB465434F001064FEAE1
:1011E00074040AD8D6F50016760D04F00044F040D9
:1011F00061FA06F25040F1404840C00A40EA4150CE
:1012000021F0004128BF5FEA500550F1000044EB97
:10121000D12137E045EAC323DB0A45EAC121C90AE7
:10122000B6F120050EDD42EA0242120CC5F120069D
:1012300003FA06F6EB4042EA06056D42984161F179
:1012400000010DE062FA06F5F240554063FA06FC33
:1012500082EA0C02F3405A406D42904161EB030177
:1012600011F4801F05D1641E620502D06D0040415B
:10127000494121F48011430875F1004350F1000009
:1012800041EB045170BC70471CEB410F15D223F0A9
:10129000004352EA43060BD04FEA4C0CBCEB410F23
:1012A00004D80C0D661E342EB7DDEBE7801A994189
:1012B00050EA410608BF0021E4E708BF1CEB430FDA
:1012C00028BF6FF00001DDE74FF4001C1CEB410F5D
:1012D00094BF1CEB430F09E041EA030C50EA4C0CAD
:1012E00052EA0C0C03D28B4208BF8242704714BFF3
:1012F00099429042704700002DE9F54F8BB00025D0
:101300001698C0EBC0080E461C46B8F1240FA8BFC3
:101310004FF0230825606560002701E0761C012757
:1013200030783028FAD00FF2A01AA946CDF800A0E4
:101330000DF1040B04E02068401C2060761C01279E
:1013400031781622504600F0D7F858B1C845F2DB84
:101350000099401A0FF28811405C09F80B0009F15E
:101360000109EBE730782E2808BF761CB9F1000F91
:1013700008D104E02068401E2060761C01273078E8
:101380003028F7D031781622504600F0B5F888B1F1
:10139000C8450CDBA0EB0A000FF24411405C01A928
:1013A00009F8010009F101092068401E2060761C3F
:1013B0000127E7E7C8451ADA01A818F8000008284D
:1013C00006DB01A8404410F8011C491C00F8011C70
:1013D000C1462068401C206009E001A8484410F87C
:1013E000010C70B92068401C2060A9F10109B9F115
:1013F000010FF2DAB9F1000F04BF8DF804504FF07D
:101400000109206880002060002F52D0072299FB3C
:10141000F2F2C9F10701C2EBC2025118072291FB97
:10142000F2F20020C2EBC2028A1A05D0012503E0C5
:1014300044F82520491C401C48450EDA072391FB3F
:10144000F3F310F80B20C3EBC303CB1A0EBF6D1CD4
:1014500054F8253002EB0312EAE7307840F0200020
:10146000702826D1304616F8011F2B2916BF2D29CA
:1014700016F8011B2B2100220023DFF848C009E0E9
:10148000634505DA03EB83020EEB4202A2F130035F
:10149000761C012296F800E0AEF13008B8F10A0F90
:1014A000EED32D2908BF5B4221685918216002B98B
:1014B00006460C9810B107B90B9E066028460DB081
:1014C000BDE8F08F00E1F505303132333435363781
:1014D00038396162636465664142434445460000B1
:1014E000000102030405060708090A0B0C0D0E0F84
:1014F0000A0B0C0D0E0F0000C9B2830706D0521E56
:1015000022D310F8013B9942F7D11FE0083A13D3D8
:1015100002F1040241EA012141EA014150F8043B91
:10152000121F21BF4B40A3F1013C2CEA030C1CF01D
:10153000803FF3D0C9B2001F083210F8013B521EA1
:1015400028BF91EA030FF8D818BF0120401E70474A
:1015500038B505462DED028B6868C0F30A5040F29D
:10156000FF7143EC182B884206D0012806DA284682
:1015700000F0EEF8012801DB002406E06A6840F282
:10158000FE3161F31E526A60441AD5E9000153EC42
:10159000182BFFF7A7F9C5E90001BDEC028B21B2BA
:1015A0002846BDE8344000F0F5B80000F8B52DED50
:1015B000028B140003B482B01F4600F09080DDE976
:1015C00002230020002100F06FF900F088809FEDD9
:1015D000478B002C40D564420FF22C1508260CE0F6
:1015E000E00707D5D5E9000153EC182BFFF77AF98E
:1015F00041EC180B64080835761E002C18BF002E2D
:10160000EED102A900A800F05FF9DDE9020153EC78
:10161000182BFFF797FACDE90201BDF9001002A8D7
:1016200000F0B8F805004DD5002C4DD002A900A857
:1016300000F04AF9DDE902012E4A2F4BFFF752F97B
:10164000CDE90201BDF9001002A800F0A3F80500E1
:1016500038D5641EEAD137E0012C33DB0FF2A80540
:101660000826E00707D5D5E9000153EC182BFFF752
:1016700039F941EC180B64100835761E012C01DB9A
:10168000002EEED153EC182B02A8FFF761FF0500E6
:1016900018D5012C18DB02A900A800F015F9DDE926
:1016A0000201164A164BFFF71DF9CDE90201BDF9FB
:1016B000001002A800F06EF8050003D5641E012C8E
:1016C000E9DA01E02DB20DB1012D08D100F028F9C1
:1016D000222101601FB1386840F001003860DDE967
:1016E000020104B0BDEC028BF4BD0000000000005C
:1016F0000000F03F436FAC642806C80A3CBF737F0C
:10170000DD4F1575000000000000000000002440BF
:101710000000000000005940000000000088C340A5
:101720000000000084D797410080E03779C341432F
:10173000176E05B5B5B89346F5F93FE9034F384D37
:10174000321D30F94877825A3CBF737FDD4F1575E3
:1017500030B4436803F0004201211B031B0B4360BC
:1017600004BF0368002B08D10DE00368DD0F45EAD4
:10177000440444605B000360491E4468E302F4D5FE
:1017800023031B0B436043681A434260084630BC86
:101790007047000070B504460D466068C0F30A50FB
:1017A00040F2FF71884207D16068000304BF2068DF
:1017B000002817D0022070BD20B92046FFF7C8FFCF
:1017C000012867DA012D0FDB40F2FF71091A8D4203
:1017D0000AD3606800284CBF9FED2F0B9FED300BA4
:1017E00084ED000B012070BD4142A942616806DA18
:1017F0006FF31E51401941EA0050606041E0401E05
:1018000063680122451962F31F5305F1350001F0A9
:1018100000416360352803D361600020206070BD03
:10182000002215F11F0F04DA226823600020203502
:101830006060684213D0521E25689241C0F12003B7
:10184000D2439D4045EAD27225686668C54006FAD3
:1018500003F32B432360636823FA00F06060606841
:1018600008436060B2F1004F03D80DD12078C00763
:101870000AD52068401C2060206828B96068401C98
:1018800060604FF0FF3070BD6068884204BF206820
:101890000028F6D1002070BD000000000000F0FF1D
:1018A000000000000000F07F90420CD141EA030CE0
:1018B00050EA4C0C07D0994205D14FF4001C1CEBA8
:1018C000410F38BF8942704738B50C4605466068FD
:1018D000C0F30A5040F2FF7188420BD100202880EB
:1018E0006068000304BF2068002801D0022032BDD8
:1018F000012032BD012804DA2046FFF729FF012824
:101900000ADA626840F2FE3161F31E526260401AE8
:1019100028804FF0FF3032BD0020288032BD00000B
:10192000014800F003B80000DC0000207047000010
:101930002DE9F0478CB00D4614998046002001EB4C
:10194000C1012E29A8BF2D2100261E605E6001E086
:101950006D1C01262F78302FFAD000270DF1000CD6
:1019600004E01E68761C1E606D1C012695F800E0E0
:10197000AEF130040A2C05D3BEF12E0F08BF6D1C4A
:1019800087B90CE0B942ECDBAEF1300607F80C6029
:101990007F1CE9E71E68761E1E606D1C01262C78F0
:1019A000302CF7D02C78A4F1300EBEF10A0F11D3F1
:1019B000B94225DA00AFCF5D052F06DB00AFCF19A6
:1019C00017F8014C641C07F8014C0F461968491CB4
:1019D000196015E0B94207DBA4F1300600AC3E55B2
:1019E0007F1C1E68761E1E606D1C0126DAE700A9AA
:1019F000791811F8011C49B91968491C19607F1E32
:101A0000012FF4DA17B98DF800000127002E5ED0FF
:101A10004FF0090E97FBFEFEC7F1090C0EEBCE0E40
:101A2000E6444FF0090C9EFBFCFC00210CEBCC04BF
:101A3000BEEB04040ED001200CE053F8204011F856
:101A40000CC004EB84040CEB440443F820400EF17A
:101A5000010E491CB9420DDA09249EFBF4F404EB93
:101A6000C4040DF1000CBEEB0404E6D111F80C40E7
:101A7000401CEAE7297841F02001652927D1294651
:101A800015F8017F2B2F16BF2D2F15F8017B2B2763
:101A90000024A646DFF848C009E0E64505DA0EEB6B
:101AA0008E0409EB4404A4F1300E6D1C012495F85A
:101AB0000090A9F1300ABAF10A0FEED32D2F08BF1A
:101AC000CEF1000E1F6877441F6004B90D461AB1AD
:101AD00006B1A846C2F800800CB0BDE8F08700BF90
:101AE00000E1F50580B55B48006800F015F85A483C
:101AF000006800F011F85948006800F00DF85848E7
:101B0000006800F009F85748006800F005F85648EA
:101B1000006800F001F801BD80B50100534800687D
:101B200000F036F901BD51490860704780B5504852
:101B30000068FFF7F1FF4F494C48006800F038F9A2
:101B400049480068FFF7E8FF00F001F801BD80B5E3
:101B50002DED028B474800F04FF94649401810F828
:101B6000060C562872D0444800F061F9434880EDD5
:101B7000000B434800F05BF9424880ED000B3F4802
:101B8000416800680022404BFEF7DCFF00F06EF970
:101B9000FEF720FE41EC180B53EC182B00203A49BD
:101BA000FEF7A0FE02000B00344841680068FFF712
:101BB000CBFA0022354BFEF7C5FF53EC182BFFF78D
:101BC0001DF92E4AC2E900012E4841680068002232
:101BD0002D4BFEF7B7FF00F049F9FEF7FBFD41EC96
:101BE000180B53EC182B00202749FEF77BFE020050
:101BF0000B00244841680068FFF7A6FA0022234B37
:101C0000FEF7A0FF53EC182BFFF7F8F81D4AC2E9C6
:101C100000011848807C532809D11848D0E90023D6
:101C200000201B49FEF75EFE144AC2E9000111487C
:101C300090F82000572809D11248D0E9002300204D
:101C40001349FEF74FFE0F4AC2E90001BDEC028BBB
:101C500001BD0000C0000020C4000020C80000201A
:101C6000CC000020D0000020D40000207C01002007
:101C7000D8000020E0000020E700002060010020E4
:101C8000F4000020680100200000594000004E4090
:101C90000000F0BF38B504003248006850F400304E
:101CA000304908603048006850F010002E49086044
:101CB00000202168C8602068C06850F40050216886
:101CC000C8602068C068617950EA01302168C86046
:101CD00020680069A17950EA01302168086100207C
:101CE00021688860A068000100EE100AB8EE400A82
:101CF000DFED1B0A80EE800AFDEEC00A10EE905A5E
:101D0000ADB200EE905AF8EE600A30EE600AF3EEE3
:101D1000000A20EE200A10EE100AFFF747F8002212
:101D2000124BFFF76BF800F08BF821688968ADB2B1
:101D300051EA05112268916021688968C0B20843A0
:101D4000216888602068C06850F008002168C86079
:101D50002068C06850F004002168C86031BD0000F0
:101D60000024744B40380240443802400000E03FF9
:101D7000026812781206FBD5C9B20068416070474C
:101D8000016809788906FBD500684068C0B27047D1
:101D900070B504000D00002605E0F6B2715D20006C
:101DA000FFF7E6FF761CF6B2705D0028F5D170BD36
:101DB00070B582B004000D0000262000FFF7E0FFA0
:101DC000F6B2705505E0761C2000FFF7D9FFF6B299
:101DD0007055F6B2705D0D28F5D12000FFF7D0FFE9
:101DE0000020F6B2705500208DF800009DF800002C
:101DF000401C8DF8000073BD00F10103810704D081
:101E000010F8011B89B18107FAD10268B2F10131E2
:101E1000914311F0803F04BF50F8042FF6E710F80B
:101E2000011B11B110F8011BFBE7C01A704780B508
:101E30000022002100F0E2F841EC100B01BD00008F
:101E4000F446400D40EAC120490006D200F014F8E3
:101E5000004248BF6FF00040604700F00DF84FF0BF
:101E6000004188428CBF084640426047400D40EA2E
:101E7000C120490080F00D8040F00040490DA1F5DF
:101E80008061491C05D4D1F11F0154BFC840C0175F
:101E900070474FF0000070472DE9F14D81B00646C4
:101EA0002DED028B88B0884614461F460BA800F023
:101EB000A7F805460FB10021396020F0080001287D
:101EC00035D10220009004AB0B9942463046FFF713
:101ED0002FFD060003D10020CDE902001FE0059888
:101EE000FEF76EFCCDE90201022E18DB0DF1180899
:101EF000761E9FED3D8BDDE9022351EC180BFEF7BA
:101F0000F1FC824658F8040B8B46FEF759FC52460A
:101F10005B46FEF773FFCDE90201761EEBD1049814
:101F20000219DDE902013B46FFF740FB44E00228CD
:101F300037D1009004AB0B9942463046FFF7DCF9ED
:101F4000060003D10020CDE902001FE00598FEF74E
:101F500037FCCDE90201022E18DB0DF11808761EC0
:101F60009FED238BDDE9022351EC180BFEF7BAFC41
:101F7000824658F8040B8B46FEF722FC52465B461D
:101F8000FEF73CFFCDE90201761EEBD1049902A8D1
:101F9000FFF700FCDDE902013B462246FFF706FBA6
:101FA0000AE0032802D10020134905E0042806D1E5
:101FB0004FF0FF306FF00041CDE9020102E0002058
:101FC000CDE90200280743BFDDE9020181F00041AD
:101FD00041EC100B9DED020B08B051EC100BBDEC69
:101FE000028BBDE8FC8D00000000000065CDCD41F6
:101FF000000000000000B0410000F07F00234BE72C
:1020000070B402681346002400E05B1C1D78A5F143
:102010000906052EF9D3202DF7D02D2D0CBF08244D
:102020002B2D00D15B1C1D7845F020066E2E28D18B
:102030005B1C13F8014B44F02004612C02BF13F821
:10204000014B44F020046E2C02D0134600224BE0DA
:102050001C4604222578282D46D114F8015FA5F1ED
:1020600061061A2EF9D3A5F141061A2E24BF303D80
:102070000A2DF2D325785F2DEFD0292D34D1631CA2
:1020800032E0692E33D15B1C13F8015B45F020056B
:102090006E2D02BF13F8015B45F02005662D02D0BE
:1020A0001346002220E01D4644F003022C7844F041
:1020B0002004692C02BF15F8014F44F020046E2C57
:1020C00012D115F8014F44F02004692C02BF15F815
:1020D000014F44F02004742C06D115F8014F44F050
:1020E0002004792C08BF6B1CF1B10B601CE0302D73
:1020F00002BF597841F02001782913D1991C0A7840
:102100002E2A08BF491C0978A1F16102062A21BFC5
:10211000A1F14102062A30390A2903D29B1C44F05E
:10212000020201E044F001020360104670BC7047F7
:1021300010B400210278002A03D0022A05D002D36D
:1021400004E0364902E0364900E036490A680323D4
:102150004478E4B26400A3409A430A600A68837832
:102160004478E4B26400A3401A430A604A68012339
:1021700090F90140A3409A434A604A68C37890F9B5
:102180000140A3401A434A60CA6803234478E4B27A
:102190006400A3409A43CA60CA6803794478E4B2F1
:1021A0006400A3401A43CA604A69012390F90140C0
:1021B000A3409A434A614A69437990F90140A34098
:1021C0001A434A618279FF2A26D04278082A11DA16
:1021D0000A6A0F234478E4B2A400A3409A430A6237
:1021E0000A6A83794078C0B2800013FA00F0104385
:1021F000086211E04A6A0F234478E4B2A400A340C5
:102200009A434A624A6A837940780838C0B28000AB
:1022100013FA00F01043486210BC704700000240FF
:10222000000402400008024080B51448FFF780FF18
:102230001348FFF77DFF1348FFF77AFF1248FFF7B7
:1022400077FF1248FFF774FF1148FFF771FF11483D
:10225000FFF720FD1048FFF71DFD1048FEF706FAB6
:102260000C48FFF760FCFFF73DFC0B4800F018F846
:102270000A48FDF704FFFDF7E3FE01BD88000020DA
:102280009000002098000020A0000020A80000205E
:10229000B0000020700000207C000020B80000206A
:1022A00008490860704780B5010006480068FFF7DC
:1022B0007FFD01BD80B5010002480068FFF768FDA1
:1022C00001BD00007801002080B51048006850F082
:1022D00001000E4908600E48006850F002000C49E9
:1022E00008600B48006850F0010009490860FFF7DA
:1022F0009BFFFFF71BFC0748FFF7DCFF0548FFF7D4
:10230000D2FF0548FDF78EFFFEE700BF0038024010
:1023100030380240000000204401002010B5074979
:1023200079441831064C7C44163404E00A68081DD0
:10233000511888470146A142F8D110BD080000009D
:102340002800000047EAFFFFA8000000E00000208E
:102350000000000033E7FFFFE0000000580100002C
:10236000000000200000000024505542582C34305A
:102370002C5654472C302C302C302C302C302C3018
:102380002A35450D0A00000024505542582C34309F
:102390002C524D432C302C302C302C302C302C3007
:1023A0002A34370D0A00000024505542582C34308E
:1023B0002C4747412C302C302C302C302C302C30FA
:1023C0002A35410D0A00000024505542582C343063
:1023D0002C4753412C302C302C302C302C302C30CE
:1023E0002A34450D0A00000024505542582C343040
:1023F0002C4753562C302C302C302C302C302C3099
:102400002A35390D0A00000024505542582C34302A
:102410002C474C4C2C302C302C302C302C302C3089
:102420002A35430D0A00000024505542582C343000
:102430002C474C4C2C312C312C312C312C312C3163
:102440002A35430D0A0000004EF68851CEF20001F5
:10245000086840F4700008604FF00070E1EE100A68
:102460007047000000F00BF8002801D0FFF756FF7E
:102470000020C046C046FFF727FF00F002F8012009
:10248000704700F001B800000746384600F002F837
:10249000FBE7000080B5C046C046024A1100182084
:1024A000ABBEFBE726000200C046C046FFF7CCFFEC
:1024B000FFF7D8FF416264656C7261686D616E0DF3
:1024C0000A00000000000000000000000000000002
:1024D00000000000000000000000000000000000FC
:1024E00000000000000000000000000000000000EC
:1024F00000000000000000000000000000000000DC
:1025000000000000000000000000000000000000CB
:1025100000000000000000000000803F0000803F3D
:102520000000803F001001400100000080250000F5
:102530000044004001000000009600000009020075
:1025400000010700000A020000010700000202006B
:10255000000107000003020000010700010702015B
:1025600001010400010602010101040000540040C1
:10257000000000006823000888230008A823000842
:10258000C8230008E82300080824000828240008BD
:042590000000000047
:04000005080024A922
:00000001FF
