:020000040800F2
:1000000000200020D50300088F0300088F0300089C
:100010008F0300088F0300088F0300080000000012
:100020000000000000000000000000008F03000836
:100030008F030008000000008F0300088F030008F2
:1000400001000020002901D1012038E01D4A12687A
:1000500052F400121B4B1A6000220B681A600A68E7
:1000600012680B681A600A6812680B7952EA430238
:100070000B681A6000220B685A600A68526852F0D6
:1000800010020B685A6000220B68DA610A68D269B4
:100090000B68DA610A68D26952F050020B68DA61C3
:1000A00000220B681A620A68126A52F011020B6889
:1000B0001A620A68126852F0010209680A60C0B246
:1000C00070470000403802400021002801D1012182
:1000D00009E00268126852F4807203681A600268CC
:1000E000127DD207FBD50800C0B27047002100285E
:1000F00001D1012105E00268126852F40072006823
:1001000002600800C0B270470022002801D101221D
:1001100006E0C9B2036819610168097D8907FBD54A
:100120001000C0B270470022002801D1012206E071
:10013000C9B2036819610168097D4907FBD5100040
:10014000C0B270470022002801D0002901D101224D
:1001500006E003681B7D5B06FBD50068006908703C
:100160001000C0B2704738B500230468246854F406
:10017000807405682C600468247DE407FBD5C9B24F
:10018000046821610168097D8907FBD508E0DBB2BD
:10019000995C046821610168097D4907FBD55B1CF6
:1001A000DBB2995C0029F2D1FFF7A0FF32BD8411C8
:1001B00010B400210278002A03D0022A05D002D30D
:1001C00004E0364902E0364900E036490A68032374
:1001D0004478E4B26400A3409A430A600A688378D2
:1001E0004478E4B26400A3401A430A604A680123D9
:1001F00090F90140A3409A434A604A68C37890F955
:100200000140A3401A434A60CA6803234478E4B219
:100210006400A3409A43CA60CA6803794478E4B290
:100220006400A3401A43CA604A69012390F901405F
:10023000A3409A434A614A69437990F90140A34037
:100240001A434A618279FF2A26D04278082A11DAB5
:100250000A6A0F234478E4B2A400A3409A430A62D6
:100260000A6A83794078C0B2800013FA00F0104324
:10027000086211E04A6A0F234478E4B2A400A34064
:100280009A434A624A6A837940780838C0B280004B
:1002900013FA00F01043486210BC7047000002409F
:1002A000000402400008024010B58AB02A480068E5
:1002B00050F00100284908602848006850F002000A
:1002C000264908602548006850F00100234908606D
:1002D0002348D0E90023CDE907232248D0E90023B1
:1002E000CDE9052307A8FFF763FF05A8FFF760FF27
:1002F0001D48D0E90023CDE9002300A8FFF7A0FEA8
:100300001A480088ADF8080002AAAC2100A8FFF73F
:100310002AFF00A8FFF7D8FEAC2100A8FFF7F4FEE3
:10032000842100A8FFF7FFFE00A8FFF7CDFEAD2156
:1003300000A8FFF7E9FE210000A8FFF703FF2078DF
:10034000112807D10A48D0E90023CDE9032303A8E7
:10035000FFF72EFFFEE700BF0038024030380240B2
:10036000E0030008E8030008F0030008AE010008FD
:10037000F80300084EF68851CEF20001086840F4F8
:10038000700008604FF00070E1EE100A7047FEE761
:1003900000F00BF8002801D0C046C0460020C0463F
:1003A000C046FFF781FF00F002F80120704700F01F
:1003B00001B800000746384600F002F8FBE70000ED
:1003C00080B5C046C046024A11001820ABBEFBE70C
:1003D00026000200C046C046FFF7CCFFFFF7D8FF5B
:1003E00001060201010104000107020101010400EC
:1003F0000054004000000000000501000001FF0063
:04000005080003D517
:00000001FF
