:020000040800F2
:100000004021002035310008670E0008670E000807
:10001000670E0008670E0008670E00080000000069
:10002000000000000000000000000000670E000853
:10003000670E000800000000670E0008670E000849
:1000400000B583B001210B2000F01DF81D2109200F
:1000500000F019F840F2AF500190DFF8340600903C
:100060004FF4A563DFF82C2640F27A61DFF828060A
:1000700000F0FCF92D21042000F0ECFA07BDDFF8B8
:100080001C160860704738B504000D00DFF80C0638
:10009000006800F065FB1A21DFF80006006800F038
:1000A0007FFBDFF8F805006800F089FB2100C9B28A
:1000B000DFF8E805006800F08BFB2900C9B2DFF823
:1000C000DC05006800F084FBDFF8D005006800F074
:1000D00059FB31BD38B505000C00DFF8C0050068DC
:1000E00000F03EFB1A21DFF8B405006800F058FB71
:1000F000DFF8A805006800F062FB2900C9B2DFF84C
:100100009C05006800F064FBDFF89005006800F0D3
:1001100027FB1B21DFF88405006800F041FBDFF8B6
:100120007C05006800F07BFBDFF87005006800F0DC
:1001300046FBDFF86805006800F024FB2100DFF8CB
:100140005C05006800F053FB31BD80B500208DF8E0
:10015000000003E000A90620FFF7BCFF9DF80000A7
:10016000C007F7D5DFF83405006800F051FBDFF871
:100170002C05006800F0F4FA1A21DFF82005006869
:1001800000F00EFBDFF81405006800F018FB0021FA
:10019000DFF80805006800F01BFBDFF800050068C9
:1001A00000F0DEFA1B21DFF8F404006800F0F8FA32
:1001B000DFF8E804006800F002FBDFF8E414DFF881
:1001C000DC04006800F013FBDFF8D814DFF8CC047F
:1001D000006800F00CFBDFF8D014DFF8C004006802
:1001E00000F005FBDFF8C414DFF8B004006800F08D
:1001F000FEFADFF8BC14DFF8A404006800F0F7FA98
:10020000DFF89804006800F00AFBDFF8900400684B
:1002100000F0B8FADFF89C14DFF88004006800F002
:10022000E6FA01BD80B52DED028BFFF78EFFDFF8FA
:1002300070044078DFF86814097851EA0020DFF88C
:1002400078140880DFF85804C078DFF854148978EF
:1002500051EA0020DFF860144880DFF84404407958
:10026000DFF83C14097951EA0020DFF84C1488804B
:1002700000F0A4F9DFF84004B0F9000000F0D6FA6D
:1002800041EC110BB0EE418AF0EE618ADFF82804F0
:10029000B0F9020000F0CAFA41EC100BB0EE481AB7
:1002A000F0EE681A00F04AFB53EC102BDFF80C0458
:1002B000DFF80C1400F04CFB00F032FCDFF8F81310
:1002C0008860DFF8F40390ED020ADFF8F803D0ED60
:1002D000000A30EE200ADFF8E00380ED020ADFF8C2
:1002E000D80390ED020AB5EE400AF1EE10FA0BD5F4
:1002F000DFF8C40390ED020ADFEDAD0A30EE200A0C
:10030000DFF8B40380ED020ADFF8AC0390ED020AD7
:10031000DFEDA80AB4EE600AF1EE10FA0FDBDFF8A9
:10032000980390ED020ADFEDA40AB4EE600AF1EE44
:1003300010FA04D50720DFF88013087393E0DFF884
:10034000780390ED020ADFEDC00AB4EE600AF1EE28
:1003500010FA0DDBD84890ED020ADFEDBC0AB4EECE
:10036000600AF1EE10FA03D50120D34908737AE050
:10037000D14890ED020ADFEDB50AB4EE600AF1EE65
:1003800010FA0DDBCC4890ED020ADFEDB10AB4EEB5
:10039000600AF1EE10FA03D50220C749087362E043
:1003A000C54890ED020ADFEDAA0AB4EE600AF1EE4C
:1003B00010FA0DDBC04890ED020ADFEDB20AB4EE90
:1003C000600AF1EE10FA03D50320BB4908734AE036
:1003D000B94890ED020ADFEDAB0AB4EE600AF1EE27
:1003E00010FA0DDBB44890ED020ADFEDA70AB4EE77
:1003F000600AF1EE10FA03D50420AF49087332E029
:10040000AD4890ED020ADFEDA00AB4EE600AF1EE0D
:1004100010FA0DDBA84890ED020ADFED9C0AB4EE5D
:10042000600AF1EE10FA03D50520A34908731AE01B
:10043000A14890ED020ADFED950AB4EE600AF1EEF4
:1004400010FA0DDB9C4890ED020ADFED5A0AB4EE7B
:10045000600AF1EE10FA03D506209749087302E00E
:10046000002095490873BDEC028B01BD2DE9F843CE
:100470002DED048B81460C0090461D00BDF93060C7
:10048000BDF934703FB207FA86F000F0CFF90022D0
:100490005FF0804300F08CFB00F042FB01EE100A9D
:1004A000B0EE418A2DB205FA88F000F0BFF90022C3
:1004B0005FF0804300F07CFB00F032FB00EE900A1E
:1004C000B0EE481AB0EE608AF0EE418A24B204FA27
:1004D00089F000F0ABF900225FF0804300F068FB88
:1004E00000F01EFB00EE100AB0EE681AF0EE480AAB
:1004F00000F04AF824B20FFA89F9B4EB090000F0D1
:1005000095F900225FF0804300F052FB00F008FBF9
:1005100008EE100A2DB20FFA88F8B5EB080000F0CB
:1005200085F900225FF0804300F042FB00F0F8FA0A
:1005300008EE900A3FB236B2B81B00F077F90022FD
:100540005FF0804300F034FB00F0EAFA09EE100A95
:1005500038EE280A30EE090A10EE100A00F05CFCB2
:100560000022594B00F024FB00F0DAFA00EE100AEA
:1005700080EE091AC0EE280A80EE080A00F00EF894
:10058000BDEC048BBDE8F183504880ED000A4F4874
:10059000C0ED010A4D4880ED021A70474C4880EDCD
:1005A000000A4B48C0ED010A494880ED021A704725
:1005B0000000B4430140924301C0A8433E48B0F953
:1005C000000000EE100AB8EEC00A4048D0ED000A64
:1005D00030EE600A3E48D0ED000A20EE200ABDEE63
:1005E000C00A10EE100A344908803348B0F90200FE
:1005F00000EE100AB8EEC00A3448D0ED010A30EE21
:10060000600A3348D0ED010A20EE200ABDEEC00A90
:1006100010EE100A284948802748B0F9040000EE7F
:10062000100AB8EEC00A2948D0ED020A30EE600A7E
:100630002748D0ED020A20EE200ABDEEC00A10EED7
:10064000100A1D49888070470100B44101008742AB
:100650000100E14270B50E00C0B200F0F1F80400F4
:100660000D00F6B2300000F0EBF80022194B00F05C
:100670009FFA22002B0000F0F7FB00F051FA11491D
:10068000086070BD01801D4301804A4301807743AB
:100690009DFBFFFFE2F9FFFFE4FAFFFF38010020B6
:1006A0001001002011010020120100201301002080
:1006B0001401002015010020E0000020775AF01AF4
:1006C000DCA54C403401002000000840F000002070
:1006D0000000002000004E4001000020002901D150
:1006E000012038E01D4A126852F400121B4B1A60B8
:1006F00000220B681A600A6812680B681A600A68A0
:1007000012680B7952EA43020B681A6000220B68E8
:100710005A600A68526852F010020B685A60002250
:100720000B68DA610A68D2690B68DA610A68D26913
:1007300052F050020B68DA6100220B681A620A68F4
:10074000126A52F011020B681A620A68126852F0BB
:10075000010209680A60C0B27047000040380240D8
:100760000021002801D1012109E00268126852F439
:10077000807203681A600268127DD207FBD50800F8
:10078000C0B270470021002801D1012105E00268B4
:10079000126852F40072006802600800C0B270472C
:1007A0000022002801D1012206E0C9B203681961C4
:1007B0000168097D8907FBD51000C0B2704781B080
:1007C00001684969009100688069009001B0704734
:1007D0000022002801D1012206E0C9B20368196194
:1007E0000168097D4907FBD51000C0B2704700229F
:1007F000002801D0002901D1012206E003681B7DF9
:100800005B06FBD50068006908701000C0B2704735
:100810000168096851F480610068016070470168EF
:10082000096831F48061006801607047010040F19F
:100830000980F446404200F005F851F0004160475D
:10084000010000BF09D0B0FA80F18840C91CC1F591
:100850008461090501EBD0214005704738B50FB41C
:10086000DDE9020100F074FB0546DDE9000100F05E
:100870006FFB012DB8BF012830DA0198002807D599
:10088000DDE9000181F00041CDE90001082400E02C
:1008900000240398002807D5DDE9020181F000411A
:1008A000CDE9020184F00604DDE90201DDE900235F
:1008B00000F06EFB04D200F07BF941EC100B29E054
:1008C000002D08D5DDE90001DDE9022300F070F913
:1008D00041EC100B20E09FED150B1DE0022808BF36
:1008E000DDE9000120D0022D08BFDDE902011BD0A7
:1008F00085420CBF9FED0F0B9FED0C0B019900295A
:100900004CBF082400240399002948BF84F0060442
:10091000012801D184F00204224605B0BDE8304030
:1009200051EC100B00F04CBB05B030BD00000000D6
:1009300000000000000000000000F03F80B553EC14
:10094000112B51EC100BFFF789FF41EC100B01BD8F
:10095000B0B581EA030C0CF0004C40F2FF7515EACB
:1009600011541DBF15EA1357AC42AF4239E0E419E8
:1009700023EA455343F48013C90241F0004141EAA0
:10098000505EC7021100A7FB020200284FF00000D2
:10099000EEFB01204FF00001E3FB072118BF42F0FE
:1009A0000102401800214941E3FB0E01A4F58064D7
:1009B0000F0302D252004041494154F101046CDD61
:1009C000470872F1004250F1000051EB0451A1F5CB
:1009D00080115CBF41EA0C01B0BD4CEA055100201A
:1009E000B0BD05EA1357AC4214BFAF4241E050EA34
:1009F000410E1CBF52EA430E02E061460020B0BD2A
:100A000024423C441BD15FEA070EF6D0090302BF23
:100A100001460020AEF1140EB1FA81F7AEEB0704E7
:100A200001FA07FE0C37C7F1200100FA07F7C840AA
:100A30004EEA000E23EA455343F48013A2E733F055
:100A40000043B3FA83F704BFB2FA82FE77440B3F48
:100A5000E41BB7F1200E2FBF02FA0EF3BB40C7F123
:100A6000200E22FA0EFE38BF43EA0E03BA40641C81
:100A700082E750EA410E14BF52EA430E6FF00001C4
:100A80004FF4001717EB430F8ABF194617EB410FBE
:100A9000B5E74CEA05510020B0BDD4F10104B4F132
:100AA00020070FDAC4F12007520828BF42F00102E4
:100AB00010FA07F501FA07F7E1BF2A43E04038438F
:100AC000E1400FE0352C98DCC7F1200452EA4002E7
:100AD00020FA07F218BF42F0010231FA07F0A140F4
:100AE0000A43002172F1004250F1000051EB0C0169
:100AF000B0BD10B450F8041B81B102681218001D7B
:100B000050F8043BDC0744BFA9F10104E31852F894
:100B1000044B43F8044B091FF9D1EBE710BC7047B5
:100B20004FEAF17CBCF1E04C2CBFBCF5001F11E09A
:100B30005FEA4C0C34BFBCF17F5F2EE05FEA9C0C97
:100B40004FEA0C1C4FEA3C0CC10071F100414CEB28
:100B500050707047C90241EA5051C00218BF41F0BD
:100B6000010141F000414FEA6C50C0F10900212819
:100B700010D240EACC7CCCF1200C11FA0CF070F1D0
:100B80000040CCF1200C21FA0CF00CF0004C40EBB2
:100B90000C0070474FEACC707047490011F5001FF8
:100BA00004D84FEACC10FF30C0057047C817704713
:100BB000F0B540F2FF7581EA030C0CF0004C15EA29
:100BC00011541DBF15EA1357AC42AF42E5E0BC41DA
:100BD000C1F31301C3F31303801A994143F4801343
:100BE00004D2641E4000494180185941C90241EABB
:100BF0005051B1FBF3F603FB1611A2FB0675D7EBC0
:100C0000C020A94102D2761E80185941C90241EA8A
:100C10005051B1FBF3FE03FB1E11A2FB0E75D7EB87
:100C2000C020A94103D2AEF1010E801859418902BA
:100C300041EA9051760546EA8E2EB1FBF3F603FBAE
:100C40001611A2FB0675D7EB8020A94102D2761EB1
:100C500080185941C90241EA50514EEA060EB1FBD3
:100C6000F3F603FB1611A2FB0675D7EBC020A941D2
:100C700002D2761E80185941C90241EA5051B1FB97
:100C8000F3F703FB1711A2FB0735D3EBC020A941F3
:100C900067F100070CBF004247F0010766F3D52754
:100CA0004FEA1E31B80814F5806412DDBD0775F1F6
:100CB000004250EB0E5051EB045111F5801F5CBF08
:100CC00041EA0C01F0BD4CF07F6141F0E0410020B1
:100CD000F0BDBD076D0840EA0E5041F48011D4F11B
:100CE0000104B4F120060ADAC4F120060200E04053
:100CF00001FA06F3E1401843B24015430EE0342CEC
:100D000013DCC6F1200445EA40056D0820FA06F21E
:100D1000154321FA06F0A1400D43002175F1004270
:100D200050F1000051EB0C01F0BD00205FEA0C0116
:100D3000F0BDCFB992185B41B3FA83F704BFB2FAA2
:100D400082F6BF190B3FB7F120062FBF02FA06F358
:100D5000BB40C7F1200622FA06F638BF3343BA403B
:100D60001CB1E419641E33E77F4231F00041B1FA4F
:100D700081F404BFB0FA80F6A4190B3CB4F120064C
:100D80002FBF00FA06F1A140C4F1200620FA06F6B2
:100D900038BF3143A0403C1B1AE7AC421ABF05EAFA
:100DA0001357AF4212E050EA41061CBF52EA430615
:100DB000BFE750EA4107304661461CBF41EA055192
:100DC000F0BD52EA430C08BFC143F0BD00204FF410
:100DD000001616EB410F98BF16EB430F08BF16EB3A
:100DE000410F24BFC14305E016EB430F0CBF614622
:100DF0004CEA0551F0BD50F8041B61B150F8042BCA
:100E0000D30744BFA9F101039A18002342F8043B19
:100E1000091FFAD1EFE770475FF0FF0C1CEAD051D1
:100E200014BF614506E0C110400721F0E04101F127
:100E30006051704779B900F0004100020AD0B0FA61
:100E400080FC00FA0CF001F16051A1EB0C5101EBB8
:100E5000D0214005704741020CBF40F4E0016FF023
:100E6000000100207047FEE770B44FF0004591EAA2
:100E7000030C44BF6B4000F0A5B900BF841A71EBAE
:100E8000030603D2001BB141121973414FF4001C39
:100E90001CEB410F34BF7CEB430443E00C0DA4EB8F
:100EA0001356352E50DC45EAC323DB0A45EAC1213F
:100EB000C912B6F120050DDD63FA05F6EB4086EAAE
:100EC0000305124218BF45F00105C01851F1000199
:100ED0000CD213E062FA06F5F2405540F3415A4055
:100EE000B340F3405A408018594107D349085FEA9C
:100EF00030005FEA350528BF45F0010501F5801196
:100F0000420875F1004250F1000041EB045170BC01
:100F10004FF4001C1CEB410F38BF70470020090D37
:100F2000090570471CEB410F10D252EA43060BD063
:100F3000BCEB410F05D80C0DAB43661E342EB5DD5E
:100F400002E0AB438018594170BC704770BC7047D9
:100F500003B4DDE90023C3F30A5140F2FF7291426A
:100F600006D001B10CE0190350EA113006D00BE0B5
:100F7000190350EA113014BF0220012002B070475B
:100F80004FF0FF3002B070476FF0010002B07047C1
:100F90004FF4001C1CEB410F94BF1CEB430F09E006
:100FA00041EA030C50EA4C0C52EA0C0C03D2994271
:100FB00008BF9042704714BF8B42824270470000C6
:100FC000D0B514462DED048B534A544B00F0B0F9C4
:100FD00041EC180B1DD89FED529B53EC182B51EC94
:100FE000190BFFF7B5FC00224F4BFFF73DFF0646FC
:100FF0000F4653EC182B51EC190BFFF735FF024647
:101000000B4630463946FFF7D3FD41EC180B44F050
:10101000010451EC180B0022444BFFF7B9FF05D334
:1010200001224FF0795300F083F951D853EC182B7B
:10103000FFF78EFC41EC190B53EC182BFFF788FCE3
:1010400006460F4653EC192B39483A49FFF780FC06
:10105000394A3A4BFFF708FF53EC192BFFF778FC9E
:10106000374A384BFFF700FF32463B46FFF770FC2C
:1010700053EC182BFFF7F8FE06460F4653EC192BDE
:1010800031483249FFF764FC314A324BFFF7ECFE3E
:1010900053EC192BFFF75CFC2F4A304BFFF7E4FEB3
:1010A00053EC192BFFF754FC2D4A2E4BFFF7DCFEB7
:1010B00053EC192BFFF74CFC2B4B0022FFF7D4FE0F
:1010C00002460B4630463946FFF772FD41EC180BDD
:1010D000A00705D551EC180B81F0004141EC180B2D
:1010E00014F007020BD00FF2880303EBC20251EC9D
:1010F000180B53681268FFF7B7FE41EC180B200776
:1011000005D551EC180B81F0004141EC180B51EC66
:10111000180BBDEC048BD0BD57CD9E5E1426D13F7D
:10112000AA4C58E87AB6FB3F0000F0BF000040BE72
:10113000845D57134B57B03FB2934C19ED5EE43FBB
:10114000BEDE02B90240F83FDE39028FC7C0743FED
:101150008AAB1283000CC83F24D7E508B6D8F03F0D
:101160000F34580E5895FD3F0000F03F000000007E
:10117000000000000000000066732D3852C1E03FFF
:10118000182D4454FB21F93F66732D3852C1F03FAE
:10119000182D4454FB21F93F66732D3852C100408D
:1011A000182D4454FB2109403FD038C6A6F1044015
:1011B00070B44FF0004591EA030F44BF6B40FFF756
:1011C0005DBE00BF841A71EB030604D26E40001BA3
:1011D000B141121973414FF4001C1CEB410F34BF95
:1011E0007CEB430684E00C0DA4EB1356362E7DDC1D
:1011F000012E43DC45EAC32343EA525312BFD20215
:1012000092025B08240545EAC12141EA5051D2EB24
:10121000C020994125D407D1B0FA80F610FA06F122
:1012200064D00020203608E0B1FA81F6B140C6F162
:10123000200220FA02F21143B0404FEAF474B4EBFA
:10124000465434F001064FEA74040AD8D6F5001665
:10125000760D04F00044F04061FA06F25040F1408F
:101260004840C00A40EA415021F0004128BF5FEAEF
:10127000500550F1000044EBD12137E045EAC3238B
:10128000DB0A45EAC121C90AB6F120050EDD42EAB2
:101290000242120CC5F1200603FA06F6EB4042EAC0
:1012A00006056D42984161F100010DE062FA06F514
:1012B000F240554063FA06FC82EA0C02F3405A40C1
:1012C0006D42904161EB030111F4801F05D1641E52
:1012D000620502D06D004041494121F4801143086C
:1012E00075F1004350F1000041EB045170BC7047B0
:1012F0001CEB410F15D223F0004352EA43060BD0FA
:101300004FEA4C0CBCEB410F04D80C0D661E342E7A
:10131000B7DDEBE7801A994150EA410608BF00218A
:10132000E4E708BF1CEB430F28BF6FF00001DDE7C7
:101330004FF4001C1CEB410F94BF1CEB430F09E062
:1013400041EA030C50EA4C0C52EA0C0C03D28B42DB
:1013500008BF8242704714BF994290427047000014
:10136000F8B52DED048B154641EC180B82B053EC0B
:10137000182BC448C449FFF7EBFAC44AC44B41ECEC
:10138000190B21F00041FFF703FE80F0F38051ECD0
:10139000190B00220023FFF7CBFF53EC192B99BF49
:1013A0000020BC490020BC49FFF75EFD00F004FAB4
:1013B000040051D0FFF73AFA0022B84BFFF7C8FA01
:1013C00041EC190B53EC192B4FF0A040B449FFF737
:1013D000BFFA02460B4651EC180BFFF7E9FE064632
:1013E0000F4653EC192B4FF0C040AE49FFF7B0FA4F
:1013F00002460B4630463946FFF7DAFE06460F46F0
:1014000053EC192B4FF00050A749FFF7A1FA024601
:101410000B4630463946FFF7CBFE06460F4653ECE7
:10142000192B0020A149FFF793FA02460B463046DC
:101430003946FFF7BDFE06460F4653EC192B4FF019
:1014400000509B49FFF784FA02460B463046394666
:10145000FFF7AEFE41EC180B04F00300451951EC08
:10146000180B6FF00102944BFFF762FF0BD80022BC
:101470004FF07953FFF78CFD05D2E80740F18E81DC
:101480009FED8E8B8AE153EC182BFFF761FA41EC4C
:10149000190BE80731D553EC192B8A488A49FFF715
:1014A00057FA8A4A8A4BFFF7DFFC53EC192BFFF7F8
:1014B0004FFA884A884BFFF7D7FC53EC192BFFF7FC
:1014C00047FA864A864BFFF7CFFC53EC192BFFF700
:1014D0003FFA844A844BFFF7C7FC53EC192BFFF704
:1014E00037FA824B6FF05102FFF7BEFC53EC192B19
:1014F000FFF72EFA0022624B37E053EC182B51EC29
:10150000190BFFF725FA06460F4653EC192B9148A5
:101510009149FFF71DFA914A914BFFF7A5FC53EC57
:10152000192BFFF715FA8F4A8F4BFFF79DFC53ECF1
:10153000192BFFF70DFA8D4A8D4BFFF795FC53ECF5
:10154000192BFFF705FA8B4A8B4BFFF78DFC53ECF9
:10155000192BFFF7FDF9894A564BFFF785FC3246F8
:101560003B46FFF7F5F953EC182BFFF77DFC41ECF8
:10157000180B13E18DED008BDDE90001DDE900239F
:10158000C3F30A5140F2FF72914213D0002904BF05
:10159000190350EA11301CD1E80748BF9FED478B73
:1015A000A80740F1038151EC180B81F0004141EC98
:1015B000180BFBE0190350EA113040F0F78000F0FF
:1015C00027F92121016002B04FF0FF306FF0004198
:1015D000EFE08DED008B00A800F020F945199DED9E
:1015E000008B354B51EC180B6FF00102FFF7A0FE9A
:1015F0000BD800224FF07953FFF7CAFC05D2E80759
:1016000040F1CC809FED2D8BC8E053EC182BFFF7F9
:101610009FF941EC190BE8076AD553EC192B2948BF
:101620002949FFF795F9294A294BFFF71DFC53EC8F
:10163000192BFFF78DF9274A274BFFF715FC53ECC1
:10164000192BFFF785F9254A254BFFF70DFC53ECC5
:10165000192BFFF77DF9234A234BFFF705FC53ECC9
:10166000192BFFF775F9214B6FF05102FFF7FCFBC7
:1016700053EC192BFFF76CF90022014B8AE000BFF5
:101680000000F03F83C8C96D305FE43F0000A0FF59
:10169000FFFFDF410000E03F0000E0BF0000303E00
:1016A000FB21B941B410114026A6513E5C14D33C35
:1016B0009A833B3B5555C5BFFFFF3FBE000000006E
:1016C0000000F03F09260A1039BA213E3BA861C646
:1016D000F97D92BE63AC30909F01FA3EF6FB511645
:1016E0006CC156BFB10255555555A53FFFFFDFBF31
:1016F00053EC182B51EC190BFFF72AF906460F464D
:1017000053EC192B13481449FFF722F9134A144BD1
:10171000FFF7AAFB53EC192BFFF71AF9114A124BEA
:10172000FFF7A2FB53EC192BFFF712F90F4A104BEE
:10173000FFF79AFB53EC192BFFF70AF90D4A0E4BF2
:10174000FFF792FB53EC192BFFF702F90B4A0C4BF6
:1017500018E000BFB08F2FC310D8E53D8F0C73A1E8
:10176000E1E55ABE4DADE44FE31DC73E3EE3B5197A
:10177000A0012ABFFAF010111111813F42555555B1
:101780005555C5BFFFF770FB32463B46FFF7E0F803
:1017900053EC182BFFF768FB41EC180BA80705D595
:1017A00051EC180B81F0004141EC180B02B051ECE8
:1017B000180BBDEC048BF4BDF446400D40EAC1208B
:1017C000490006D200F014F8004248BF6FF0004014
:1017D000604700F00DF84FF0004188428CBF08468A
:1017E00040426047400D40EAC120490080F00D8032
:1017F00040F00040490DA1F58061491C05D4D1F1AC
:101800001F0154BFC840C01770474FF00000704719
:10181000014800F0B7B8000078000020D0B52DEDE9
:10182000048B044682B094ED008B4748474953EC43
:10183000182BFFF78DF8CDE9000100220023FFF7F8
:1018400077FDDDE9002399BF00204149002041498F
:10185000FFF70AFBCDE90001002100A800F093F892
:10186000DDE900230020002100F0CCF84ED03A49F9
:10187000FFF76EF841EC190B53EC192B4FF0A04019
:101880003649FFF765F802460B4651EC180BFFF797
:101890008FFC06460F4653EC192B4FF0C0403049E1
:1018A000FFF756F802460B4630463946FFF780FCF4
:1018B00006460F4653EC192B4FF000502949FFF70D
:1018C00047F802460B4630463946FFF771FC06469C
:1018D0000F4653EC192B00202349FFF739F8024635
:1018E0000B4630463946FFF763FC06460F4653EC7D
:1018F000192B4FF000501D49FFF72AF802460B46FE
:1019000030463946FFF754FC41EC180B84ED008B50
:10191000DDE90001164A174BFFF73AFB04D3164ADC
:10192000164BFFF705FD05D80022154B00F07AF89D
:10193000CDE90001DDE90001FFF73EFF02B000F054
:101940000300BDEC048BD0BD83C8C96D305FE43F9C
:101950000000E03F0000E0BF0000303EFB21B94145
:10196000B410114026A6513E5C14D33C9A833B3BF5
:101970000000C0FFFFFFDFC10100C0FFFFFFDF412C
:101980000000E04170474268C2F30A5240F2FF7320
:101990009A4209D14168090304BF0068002801D1B7
:1019A000012070470220704743685B0004BF036852
:1019B000002B25D040F233439A1A521A012A1FDB1A
:1019C000352A06DB416801F00041416000210160D9
:1019D00013E0012102F01F039940491E920607D52A
:1019E000426811404A40426002681143002202E00E
:1019F000026811404A40026011B14FF0FF30704759
:101A00000020704790420CD141EA030C50EA4C0C84
:101A100007D0994205D14FF4001C1CEB410F38BF91
:101A20008942704770B540F2FF7601F0004C5B00D0
:101A300006EA11545D0D1ABFB442B54278E0B3EB2B
:101A4000410F08BF82424BD2C3F3530343F48013C8
:101A5000C1F3130141F48011641B0B3C13D9C9027B
:101A600041EA5051B1FBF3FE03FB1E11A2FB0EE64F
:101A7000DEEBC020B14101D28018594150EA010685
:101A800053D00B3CEBD80B34C4F12006A14020FA14
:101A900006F6A0403143B1FBF3FE03FB1E11A2FB8F
:101AA0000EE6B0EB0E00B14101D28018594102BFE1
:101AB0000146203D0020C1B3B1FA81F39940C3F142
:101AC000200220FA02F211439840ED1A0A3509DB90
:101AD000C00A40EA41504CEAD12101EB055170BDEA
:101AE00023D070BDD5F10B05B5F120020DDAC5F19B
:101AF00020020300E84001FA02F6E940934073F146
:101B00000043704151EB0C0170BD402D0DDC4308CA
:101B100021FA02F0C2F1200511FA05F6334373F100
:101B2000004370415CF1000170BD6146002070BD52
:101B300053EA020E1ABFB442B54237E0B3EB410F8D
:101B400008BF8242CCD25B08B3FA83F504BFB2FA75
:101B500082F6AD190B3DB5F1200624BF02FA06F35B
:101B600005E0AB40C5F1200622FA06F63343AA4051
:101B7000D5F1010524427FF46BAF31F00041B1FA99
:101B800081F404BFB0FA80F6A4190B3CB4F120062E
:101B900024BF00FA06F105E0A140C4F1200620FAB6
:101BA00006F63143A040D4F1010455E74FF4001587
:101BB00015EB410F2CBF6FF00041EB4218BF6FF0E7
:101BC0000041BDE87040C0F0018070471FB5FFF7CD
:101BD0001FFE212101601FBD80B5804800F02AF959
:101BE0007F4800F027F97F4800F024F97E4800F094
:101BF00021F97E4800F01EF97D4800F01BF97D4870
:101C000000F094F97C4800F091F98248FEF764FDF9
:101C1000784800F05EFA00F03BFA774800F010FBDD
:101C20007C48FEF72CFAFEF70BFA01BD00B599B01F
:101C300000F0FAF800A800F006FB00A800F016FB80
:101C40006E4880ED000B00A800F0FDFA00A800F03F
:101C50000DFB6B4880ED000B00A800F0F4FA9DF836
:101C6000000030386C49087019B000BD80B500F034
:101C700033FAFEF7D7FA01BD38B52DED088B62486F
:101C800090ED000B00F09EF8B0EE408AF0EE608A16
:101C90005A4890ED000B00F095F853EC102B51ECE6
:101CA000180BFFF785FA41EC190B564890ED000B25
:101CB00000F088F8B0EE408AF0EE608A504890ED6F
:101CC000000B00F07FF853EC102B51EC180BFFF7D2
:101CD0006FFA41EC180B51EC190B00225FF08043B6
:101CE000FEF766FF41EC100B00F0C8FA51EC100B48
:101CF00053EC102BFEF72CFE41EC190B3F4890EDF6
:101D0000000B00F05FF800F0C2FAB0EE40AAF0EE6F
:101D100060AA3D4890ED000B00F054F800F0B7FACF
:101D2000B0EE40BAF0EE60BA51EC180B00225FF052
:101D30008043FEF73DFF41EC100B00F09FFAB0EE40
:101D4000408AF0EE608A51EC1A0B53EC1B2BFEF725
:101D5000FFFD04000D0051EC180B53EC182BFEF79F
:101D6000F7FD02000B0020002900FEF7F1FD53EC07
:101D7000192BFFF779F841EC100B00F091FA00F005
:101D80009FFB51EC100B00225FF08043FEF7E0FD5B
:101D900041EC100B9FED1D1B51EC100B53EC112B64
:101DA000FEF7D6FD00221D4BFEF7D2FD41EC100BD5
:101DB00051EC100BFEF7B4FE00EE100ABDEC088BE0
:101DC00031BD000080B59FED161B53EC112B51EC7B
:101DD000100BFEF7BDFD41EC100B01BD24000020EF
:101DE0002C000020340000203C0000204C0000208B
:101DF000440000200C0000201800002018010020E2
:101E00002001002008010020000100200000000047
:101E100000E3B840540000203C01002000408F4007
:101E2000399D52A246DF913F80B5532000F012FA4F
:101E300001BD000010B400210278002A03D0022A5C
:101E400005D002D304E0364902E0364900E03649C5
:101E50000A6803234478E4B26400A3409A430A600A
:101E60000A6883784478E4B26400A3401A430A60A5
:101E70004A68012390F90140A3409A434A604A68A6
:101E8000C37890F90140A3401A434A60CA6803230B
:101E90004478E4B26400A3409A43CA60CA680379F4
:101EA0004478E4B26400A3401A43CA604A6901233B
:101EB00090F90140A3409A434A614A69437990F9F5
:101EC0000140A3401A434A618279FF2A26D0427812
:101ED000082A11DA0A6A0F234478E4B2A400A34066
:101EE0009A430A620A6A83794078C0B2800013FA82
:101EF00000F01043086211E04A6A0F234478E4B20C
:101F0000A400A3409A434A624A6A83794078083819
:101F1000C0B2800013FA00F01043486210BC704752
:101F200000000240000402400008024038B50400EE
:101F30003248006850F4003030490860304800688A
:101F400050F010002E49086000202168C860206809
:101F5000C06850F400502168C8602068C06861798A
:101F600050EA01302168C86020680069A17950EA10
:101F7000013021680861002021688860A0680001A4
:101F800000EE100AB8EE400ADFED1B0A80EE800A70
:101F9000FDEEC00A10EE905AADB200EE905AF8EE87
:101FA000600A30EE600AF3EE000A20EE200A10EE1E
:101FB000100AFEF731FF0022124BFEF755FFFFF724
:101FC000FBFB21688968ADB251EA05112268916076
:101FD00021688968C0B20843216888602068C068A9
:101FE00050F008002168C8602068C06850F0040004
:101FF0002168C86031BD00000024744B40380240A5
:10200000443802400000E03F026812781206FBD517
:10201000C9B2006841607047016809788906FBD53C
:1020200000684068C0B2704770B504000D0000261B
:1020300005E0F6B2715D2000FFF7E6FF761CF6B210
:10204000705D0028F5D170BD70B582B004000D0040
:1020500000262000FFF7E0FFF6B2705505E0761C81
:102060002000FFF7D9FFF6B27055F6B2705D0D286B
:10207000F5D12000FFF7D0FF0020F6B27055002008
:102080008DF800009DF80000401C8DF8000073BD25
:1020900080B55B48006800F015F85A48006800F009
:1020A00011F85948006800F00DF85848006800F031
:1020B00009F85748006800F005F85648006800F035
:1020C00001F801BD80B5010053480068FFF7ACFF7F
:1020D00001BD51490860704780B550480068FFF75E
:1020E000F1FF4F494C480068FFF7AEFF49480068D0
:1020F000FFF7E8FF00F001F801BD80B52DED028B80
:10210000474800F0E5F94649401810F8060C5628F3
:1021100072D0444800F0AAF8434880ED000B4348D1
:1021200000F0A4F8424880ED000B3F484168006889
:102130000022404BFEF73CFDFFF754FBFEF780FB0F
:1021400041EC180B53EC182B00203A49FEF700FC29
:1021500002000B00344841680068FFF729F80022AC
:10216000354BFEF725FD53EC182BFEF77DFE2E4A6E
:10217000C2E900012E484168006800222D4BFEF79D
:1021800017FDFFF72FFBFEF75BFB41EC180B53EC41
:10219000182B00202749FEF7DBFB02000B00244828
:1021A00041680068FFF704F80022234BFEF700FDAA
:1021B00053EC182BFEF758FE1D4AC2E900011848DF
:1021C000807C532809D11848D0E9002300201B49FE
:1021D000FEF7BEFB144AC2E90001114890F8200046
:1021E000572809D11248D0E9002300201349FEF7EF
:1021F000AFFB0F4AC2E90001BDEC028B01BD00003C
:102200005C000020600000206400002068000020C6
:102210006C000020700000202C01002074000020C1
:102220007C0000208300002000010020900000209E
:10223000080100200000594000004E400000F0BF9F
:1022400009490860704780B5010007480068FFF73A
:10225000FBFE01BD80B50100C9B203480068FFF76D
:10226000D3FE01BD000000002801002080B500223F
:10227000002100F0FBF941EC100B01BD80B50022FC
:1022800051EC100BFFF76CF841EC100B01BD80B561
:10229000012251EC100BFFF763F841EC100B01BD6C
:1022A00051EC100B00B500F003F841EC100B00BD31
:1022B00040F2FF7C0B0D4DD0634566D230B421EA6D
:1022C000035141F4801103F2FD3C5FEA5C0C01D341
:1022D00000184941890041EA907180004FF4401490
:1022E0000023E202D50AB1F5100107D46D081DD212
:1022F000091B641900184941491BF7D56D080AD21A
:102300000919641B00184941491BEFD56D08F7D323
:1023100001E0520817D0C01861419B1AAC41001867
:102320004941801AA941F4D452080AD0C01AA141E7
:102330009B186C4100184941801AA941E9D4520800
:10234000F4D15B1C6C4161084FEA330001EB0C5186
:1023500030BC704750EA0103FBD030B4B1FA81F3CE
:1023600011B9B0FA80F41B190B3BB3F120042FBF55
:1023700000FA04F19940C3F1200420FA04F438BFB4
:1023800021439840D3F101039DE76345E1D011F566
:10239000801FDED850EA4101DBD0D943FFF716BCDD
:1023A000D0B52DED048B82B041EC180B8DED008B78
:1023B000DDE90023C3F30A5140F2FF72914213D0CA
:1023C000002904BF190350EA113011D051EC180B49
:1023D00000220023FEF7DCFD3DBF81F0004141EC0F
:1023E000180B0824002407E0190350EA1130EDD03F
:1023F00002B051EC180B60E051EC180B274A284B47
:10240000FEF7C6FD1CD29FED239B51EC190B53EC3C
:10241000182BFEF7CDFE06460F4653EC182B51EC59
:10242000190BFEF721FD32463B46FEF791FAFFF706
:102430003FFF41EC100B51EC180B53EC102B1EE03E
:102440000122184BFEF7A4FD2ED29FED129B51ECFA
:10245000190B53EC182BFEF7ABFE06460F4653EC58
:10246000182B51EC190BFEF7FFFC32463B46FEF7EA
:102470006FFAFFF71DFF84F0020453EC182BFEF7F0
:1024800097FB02B02246BDEC048BBDE8D040FEF7BE
:1024900097BD00BF000000000000F03FCE3B7F660C
:1024A0009EA0E63F0000F03FFFF7B2F92121016056
:1024B00002B04FF0FF306FF00041BDEC048BD0BD97
:1024C00080B551EC100BFFF76BFF41EC100B01BD19
:1024D00000F10103810704D010F8011B89B18107C5
:1024E000FAD10268B2F10131914311F0803F04BF8B
:1024F00050F8042FF6E710F8011B11B110F8011B7A
:10250000FBE7C01A704700002DE9F14D81B0064687
:102510002DED028B88B0884614461F460BA800F0AC
:10252000A7F805460FB10021396020F00800012806
:1025300035D10220009004AB0B994246304600F0A2
:102540002FF9060003D10020CDE902001FE0059815
:10255000FEF76CF9CDE90201022E18DB0DF1180827
:10256000761E9FED3D8BDDE9022351EC180BFEF743
:10257000EFF9824658F8040B8B46FEF757F952469E
:102580005B46FEF771FCCDE90201761EEBD10498A3
:102590000219DDE902013B4600F00CFA44E0022892
:1025A00037D1009004AB0B994246304600F0D4FA84
:1025B000060003D10020CDE902001FE00598FEF7D8
:1025C00035F9CDE90201022E18DB0DF11808761E4F
:1025D0009FED238BDDE9022351EC180BFEF7B8F9D0
:1025E000824658F8040B8B46FEF720F952465B46AC
:1025F000FEF73AFCCDE90201761EEBD1049902A860
:1026000000F0AAFBDDE902013B46224600F0D2F9C8
:102610000AE0032802D10020134905E0042806D16E
:102620004FF0FF306FF00041CDE9020102E00020E1
:10263000CDE90200280743BFDDE9020181F0004136
:1026400041EC100B9DED020B08B051EC100BBDECF2
:10265000028BBDE8FC8D00000000000065CDCD417F
:10266000000000000000B0410000F07F00234BE7B5
:1026700070B402681346002400E05B1C1D78A5F1CD
:102680000906052EF9D3202DF7D02D2D0CBF0824D7
:102690002B2D00D15B1C1D7845F020066E2E28D115
:1026A0005B1C13F8014B44F02004612C02BF13F8AB
:1026B000014B44F020046E2C02D0134600224BE064
:1026C0001C4604222578282D46D114F8015FA5F177
:1026D00061061A2EF9D3A5F141061A2E24BF303D0A
:1026E0000A2DF2D325785F2DEFD0292D34D1631C2C
:1026F00032E0692E33D15B1C13F8015B45F02005F5
:102700006E2D02BF13F8015B45F02005662D02D047
:102710001346002220E01D4644F003022C7844F0CA
:102720002004692C02BF15F8014F44F020046E2CE0
:1027300012D115F8014F44F02004692C02BF15F89E
:10274000014F44F02004742C06D115F8014F44F0D9
:102750002004792C08BF6B1CF1B10B601CE0302DFC
:1027600002BF597841F02001782913D1991C0A78C9
:102770002E2A08BF491C0978A1F16102062A21BF4F
:10278000A1F14102062A30390A2903D29B1C44F0E8
:10279000020201E044F001020360104670BC704781
:1027A0002DE9F0478CB00D4614998046002001EBCE
:1027B000C1012E29A8BF2D2100261E605E6001E008
:1027C0006D1C01262F78302FFAD000270DF1000C58
:1027D00004E01E68761C1E606D1C012695F800E062
:1027E000AEF130040A2C05D3BEF12E0F08BF6D1CCC
:1027F00087B90CE0B942ECDBAEF1300607F80C60AB
:102800007F1CE9E71E68761E1E606D1C01262C7871
:10281000302CF7D02C78A4F1300EBEF10A0F11D372
:10282000B94225DA00AFCF5D052F06DB00AFCF1927
:1028300017F8014C641C07F8014C0F461968491C35
:10284000196015E0B94207DBA4F1300600AC3E5533
:102850007F1C1E68761E1E606D1C0126DAE700A92B
:10286000791811F8011C49B91968491C19607F1EB3
:10287000012FF4DA17B98DF800000127002E5ED081
:102880004FF0090E97FBFEFEC7F1090C0EEBCE0EC2
:10289000E6444FF0090C9EFBFCFC00210CEBCC0441
:1028A000BEEB04040ED001200CE053F8204011F8D8
:1028B0000CC004EB84040CEB440443F820400EF1FC
:1028C000010E491CB9420DDA09249EFBF4F404EB15
:1028D000C4040DF1000CBEEB0404E6D111F80C4069
:1028E000401CEAE7297841F02001652927D12946D3
:1028F00015F8017F2B2F16BF2D2F15F8017B2B27E5
:102900000024A646DFF848C009E0E64505DA0EEBEC
:102910008E0409EB4404A4F1300E6D1C012495F8DB
:102920000090A9F1300ABAF10A0FEED32D2F08BF9B
:10293000CEF1000E1F6877441F6004B90D461AB12E
:1029400006B1A846C2F800800CB0BDE8F08700BF11
:1029500000E1F5050000000038B505462DED028BBD
:102960006868C0F30A5040F2FF7143EC182B8842AC
:1029700006D0012806DA284600F078FA012801DBA3
:10298000002406E06A6840F2FE3161F31E526A607C
:10299000441AD5E9000153EC182BFDF7D9FFC5E91E
:1029A0000001BDEC028B21B22846BDE8344000F0A6
:1029B000D3B90000F8B52DED028B140003B482B03A
:1029C0001F4600F09080DDE9022300200021FFF780
:1029D00019F800F088809FED478B002C40D56442A9
:1029E0000FF22C1508260CE0E00707D5D5E9000109
:1029F00053EC182BFDF7ACFF41EC180B64080835BD
:102A0000761E002C18BF002EEED102A900A800F0FF
:102A10004EFADDE9020153EC182BFEF7C9F8CDE9B7
:102A20000201BDF9001002A800F096F905004DD58D
:102A3000002C4DD002A900A800F039FADDE902010E
:102A40002E4A2F4BFDF784FFCDE90201BDF900109E
:102A500002A800F081F9050038D5641EEAD137E0FC
:102A6000012C33DB0FF2A8050826E00707D5D5E9CE
:102A7000000153EC182BFDF76BFF41EC180B6410B1
:102A80000835761E012C01DB002EEED153EC182BFD
:102A900002A8FFF761FF050018D5012C18DB02A979
:102AA00000A800F004FADDE90201164A164BFDF712
:102AB0004FFFCDE90201BDF9001002A800F04CF96A
:102AC000050003D5641E012CE9DA01E02DB20DB139
:102AD000012D08D1FEF79CFE222101601FB138684C
:102AE00040F001003860DDE9020104B0BDEC028B6A
:102AF000F4BD0000000000000000F03F436FAC6434
:102B00002806C80A3CBF737FDD4F15750000000022
:102B100000000000000024400000000000005940B8
:102B2000000000000088C3400000000084D79741E7
:102B30000080E03779C34143176E05B5B5B89346B9
:102B4000F5F93FE9034F384D321D30F94877825A85
:102B50003CBF737FDD4F15752DE9F54F8BB0002518
:102B60001698C0EBC0080E461C46B8F1240FA8BF4B
:102B70004FF0230825606560002701E0761C0127DF
:102B800030783028FAD00FF2A01AA946CDF800A06C
:102B90000DF1040B04E02068401C2060761C012726
:102BA00031781622504600F0ADF958B1C845F2DB35
:102BB0000099401A0FF28811405C09F80B0009F1E6
:102BC0000109EBE730782E2808BF761CB9F1000F19
:102BD00008D104E02068401E2060761C0127307870
:102BE0003028F7D031781622504600F08BF988B1A2
:102BF000C8450CDBA0EB0A000FF24411405C01A9B0
:102C000009F8010009F101092068401E2060761CC6
:102C10000127E7E7C8451ADA01A818F800000828D4
:102C200006DB01A8404410F8011C491C00F8011CF7
:102C3000C1462068401C206009E001A8484410F803
:102C4000010C70B92068401C2060A9F10109B9F19C
:102C5000010FF2DAB9F1000F04BF8DF804504FF004
:102C60000109206880002060002F52D0072299FBC4
:102C7000F2F2C9F10701C2EBC2025118072291FB1F
:102C8000F2F20020C2EBC2028A1A05D0012503E04D
:102C900044F82520491C401C48450EDA072391FBC7
:102CA000F3F310F80B20C3EBC303CB1A0EBF6D1C5C
:102CB00054F8253002EB0312EAE7307840F02000A8
:102CC000702826D1304616F8011F2B2916BF2D2952
:102CD00016F8011B2B2100220023DFF848C009E071
:102CE000634505DA03EB83020EEB4202A2F13003E7
:102CF000761C012296F800E0AEF13008B8F10A0F18
:102D0000EED32D2908BF5B4221685918216002B912
:102D100006460C9810B107B90B9E066028460DB008
:102D2000BDE8F08F00E1F505303132333435363708
:102D30003839616263646566414243444546000038
:102D4000000102030405060708090A0B0C0D0E0F0B
:102D50000A0B0C0D0E0F000070B504460D4660689E
:102D6000C0F30A5040F2FF71884207D16068000347
:102D700004BF2068002817D0022070BD20B920466B
:102D800000F074F8012867DA012D0FDB40F2FF71C3
:102D9000091A8D420AD3606800284CBF9FED2F0BA3
:102DA0009FED300B84ED000B012070BD4142A94224
:102DB000616806DA6FF31E51401941EA0050606005
:102DC00041E0401E63680122451962F31F5305F17B
:102DD000350001F000416360352803D361600020B5
:102DE000206070BD002215F11F0F04DA22682360F5
:102DF000002020356060684213D0521E2568924141
:102E0000C0F12003D2439D4045EAD272256866682E
:102E1000C54006FA03F32B432360636823FA00F0EE
:102E20006060606808436060B2F1004F03D80DD164
:102E30002078C0070AD52068401C2060206828B987
:102E40006068401C60604FF0FF3070BD6068884271
:102E500004BF20680028F6D1002070BD00000000EB
:102E60000000F0FF000000000000F07F30B4436875
:102E700003F0004201211B031B0B436004BF0368E6
:102E8000002B08D10DE00368DD0F45EA44044460DF
:102E90005B000360491E4468E302F4D523031B0B67
:102EA000436043681A434260084630BC704738B5F7
:102EB0000C4605466068C0F30A5040F2FF71884234
:102EC0000BD1002028806068000304BF2068002820
:102ED00001D0022032BD012032BD012804DA204693
:102EE000FFF7C4FF01280ADA626840F2FE3161F39D
:102EF0001E526260401A28804FF0FF3032BD002021
:102F0000288032BDC9B2830706D0521E22D310F8E2
:102F1000013B9942F7D11FE0083A13D302F10402B2
:102F200041EA012141EA014150F8043B121F21BF4F
:102F30004B40A3F1013C2CEA030C1CF0803FF3D082
:102F4000C9B2001F083210F8013B521E28BF91EA97
:102F5000030FF8D818BF0120401E704780B50F48F6
:102F6000006850F001000D4908600D48006850F0FD
:102F700002000B4908600A48006850F00100084947
:102F80000860FEF729FEFEF771FEFEF74FFEFEF722
:102F900073FE044880ED000AF5E700BF00380240E8
:102FA000303802403001002010B50749794418310B
:102FB000064C7C44163404E00A68081D5118884702
:102FC0000146A142F8D110BD080000002800000011
:102FD00027DEFFFFC40000007C000020000000008E
:102FE00013DBFFFF7C000000580100000000002000
:102FF0000000000024505542582C34302C565447C1
:103000002C302C302C302C302C302C302A35450DE7
:103010000A00000024505542582C34302C524D43A5
:103020002C302C302C302C302C302C302A34370DD6
:103030000A00000024505542582C34302C47474198
:103040002C302C302C302C302C302C302A35410DAB
:103050000A00000024505542582C34302C4753416C
:103060002C302C302C302C302C302C302A34450D88
:103070000A00000024505542582C34302C47535637
:103080002C302C302C302C302C302C302A35390D73
:103090000A00000024505542582C34302C474C4C28
:1030A0002C302C302C302C302C302C302A35430D49
:1030B0000A00000024505542582C34302C474C4C08
:1030C0002C312C312C312C312C312C312A35430D23
:1030D0000A0000004EF68851CEF20001086840F464
:1030E000700008604FF00070E1EE100A70470000B9
:1030F00000F00BF8002801D0FFF756FF0020C04673
:10310000C046FFF72BFF00F002F80120704700F0E7
:1031100001B800000746384600F002F8FBE700005F
:1031200080B5C046C046024A11001820ABBEFBE77E
:1031300026000200C046C046FFF7CCFFFFF7D8FFCD
:103140000000803F0000803F0000803F00100140F1
:103150000100000080250000004400400100000044
:10316000009600000009020000010700000A0200AA
:103170000001070000020200000107000003020036
:10318000000107000107020101010400010602011C
:10319000010104000054004000000000F42F00086A
:1031A000143000083430000854300008743000082F
:0C31B00094300008B4300008000000005B
:040000050800313589
:00000001FF
