:020000040800F2
:100000003820002071120008A70B0008A70B000879
:10001000A70B0008A70B0008A70B000800000000B2
:10002000000000000000000000000000A70B000816
:10003000A70B000800000000A70B0008A70B000892
:1000400000B583B001210B2000F018F81D21092014
:1000500000F014F840F6DD70019040F296600090D8
:1000600040F618133822DFF8B013DFF8B00300F0C1
:1000700002F907BDDFF8A8130860704738B504001F
:100080000D00DFF89C03006800F024FA1A21DFF865
:100090009003006800F03EFADFF88403006800F087
:1000A00048FA2100C9B2DFF87803006800F04AFA84
:1000B0002900C9B2DA48006800F044FAD84800685C
:1000C00000F01AFA31BD38B505000C00D4480068BC
:1000D00000F000FA1A21D248006800F01BFAD0485C
:1000E000006800F026FA2900C9B2CD48006800F087
:1000F00029FACB48006800F0EDF91B21C8480068D8
:1001000000F008FAC648006800F043FAC4480068E6
:1001100000F00FFAC248006800F0EEF92100C04874
:10012000006800F01EFA31BD80B500208DF8000097
:1001300003E000A90620FFF7C6FF9DF80000C007F6
:10014000F7D5B748006800F01DFAB548006800F020
:10015000C1F91A21B248006800F0DCF9B048006823
:1001600000F0E7F90021AE48006800F0EBF9AC4878
:10017000006800F0AFF91B21A948006800F0CAF937
:10018000A748006800F0D5F9A649A548006800F026
:10019000E8F9A549A248006800F0E3F9A349A0489E
:1001A000006800F0DEF9A2499D48006800F0D9F926
:1001B000A0499B48006800F0D4F99948006800F015
:1001C000E8F99748006800F097F99B49944800685F
:1001D00000F0C7F901BD000010B52DED028B040041
:1001E000FFF7A2FF8F4840788E49097851EA002036
:1001F00020808C48C0788B49897851EA0020608043
:10020000884840798749097951EA0020A080200078
:1002100000F0BFF8B4F9000000F0C2F941EC110B96
:10022000B0EE418AF0EE618AB4F9020000F0B8F94C
:1002300041EC100BB0EE481AF0EE681A00F036FAF6
:1002400053EC102B7D487E4900F03AFA00F020FB79
:10025000A06094ED020AB5EE400AF1EE10FA07D55F
:1002600094ED020ADFED6B0A30EE200A84ED020AFB
:10027000BDEC028B10BD2DE9F8432DED028B8146BC
:100280000C0090461D00BDF92860BDF92C703FB2EE
:1002900007FA86F000F084F900225FF0804300F056
:1002A0003FFB00F0F5FA01EE100AB0EE418A2DB2E4
:1002B00005FA88F000F074F900225FF0804300F046
:1002C0002FFB00F0E5FA00EE900AB0EE481AB0EE0F
:1002D000608AF0EE418A24B204FA89F000F060F9F5
:1002E00000225FF0804300F01BFB00F0D1FA00EE2B
:1002F000100AB0EE681AF0EE480A00F036F824B2A0
:100300000FFA89F9B4EB0900022190FBF1F000EE3D
:10031000100AB8EEC00A2DB20FFA88F8B5EB080043
:10032000022190FBF1F000EE900AF8EEE00A3FB2F5
:1003300036B2B81B022190FBF1F001EE100AB8EEC4
:10034000C11A70EE201A71EE811AB0EE082AC1EEC1
:10035000821A81EE811AC1EEA00A81EE800A00F0B5
:100360000EF8BDEC028BBDE8F183364880ED000A43
:100370003448C0ED010A334880ED021A7047324814
:1003800080ED000A3048C0ED010A2F4880ED021AC6
:100390007047B0F9001000EE101AB8EEC00A2949F3
:1003A000D1ED000A30EE600A2749D1ED000A20EEB7
:1003B000200ABDEEC00A10EE101A0180B0F902103A
:1003C00000EE101AB8EEC00A1E49D1ED010A30EE57
:1003D000600A1D49D1ED010A20EE200ABDEEC00AD7
:1003E00010EE101A4180B0F9041000EE101AB8EEA9
:1003F000C00A1449D1ED020A30EE600A1249D1ED6B
:10040000020A20EE200ABDEEC00A10EE101A81800A
:10041000704700000000B4430AF8FFFF10F0FFFF30
:100420002C000020240000202500002026000020B1
:10043000270000202800002029000020775AF01A09
:10044000DCA54C4018000020000000200100002026
:10045000002901D1012038E01D4A126852F400122F
:100460001B4B1A6000220B681A600A6812680B683E
:100470001A600A6812680B7952EA43020B681A6024
:1004800000220B685A600A68526852F010020B682A
:100490005A6000220B68DA610A68D2690B68DA6177
:1004A0000A68D26952F050020B68DA6100220B68C8
:1004B0001A620A68126A52F011020B681A620A681C
:1004C000126852F0010209680A60C0B27047000069
:1004D000403802400021002801D1012109E00268D2
:1004E000126852F4807203681A600268127DD207A3
:1004F000FBD50800C0B270470021002801D10121BE
:1005000005E00268126852F4007200680260080098
:10051000C0B270470022002801D1012206E0C9B212
:10052000036819610168097D8907FBD51000C0B215
:10053000704781B001684969009100688069009046
:1005400001B070470022002801D1012206E0C9B2A3
:10055000036819610168097D4907FBD51000C0B225
:1005600070470022002801D0002901D1012206E0B5
:1005700003681B7D5B06FBD50068006908701000EE
:10058000C0B270470168096851F480610068016079
:1005900070470168096831F4806100680160704744
:1005A000010040F10780F446404200F003F851F0AA
:1005B0000041604709D0B0FA80F18840C91CC1F5FC
:1005C0008461090501EBD0214005704738B50FB4AF
:1005D000DDE9020100F0C7FA0546DDE9000100F09F
:1005E000C2FA012DB8BF012830DA0198002807D5DA
:1005F000DDE9000181F00041CDE90001082400E0BF
:1006000000240398002807D5DDE9020181F00041AC
:10061000CDE9020184F00604DDE90201DDE90023F1
:1006200000F0C2FA04D200F07BF941EC100B29E093
:10063000002D08D5DDE90001DDE9022300F070F9A5
:1006400041EC100B20E09FED150B1DE0022808BFC8
:10065000DDE9000120D0022D08BFDDE902011BD039
:1006600085420CBF9FED0F0B9FED0C0B01990029EC
:100670004CBF082400240399002948BF84F00604D5
:10068000012801D184F00204224605B0BDE83040C3
:1006900051EC100B00F0A0BA05B030BD0000000016
:1006A00000000000000000000000F03F80B553ECA7
:1006B000112B51EC100BFFF789FF41EC100B01BD22
:1006C000B0B581EA030C0CF0004C40F2FF7515EA5E
:1006D00011541DBF15EA1357AC42AF4239E0E4197B
:1006E00023EA455343F48013C90241F0004141EA33
:1006F000505EC7021100A7FB020200284FF0000065
:10070000EEFB01204FF00001E3FB072118BF42F090
:100710000102401800214941E3FB0E01A4F5806469
:100720000F0302D252004041494154F101046CDDF3
:10073000470872F1004250F1000051EB0451A1F55D
:1007400080115CBF41EA0C01B0BD4CEA05510020AC
:10075000B0BD05EA1357AC4214BFAF4241E050EAC6
:10076000410E1CBF52EA430E02E061460020B0BDBC
:1007700024423C441BD15FEA070EF6D0090302BFB6
:1007800001460020AEF1140EB1FA81F7AEEB07047A
:1007900001FA07FE0C37C7F1200100FA07F7C8403D
:1007A0004EEA000E23EA455343F48013A2E733F0E8
:1007B0000043B3FA83F704BFB2FA82FE77440B3FDB
:1007C000E41BB7F1200E2FBF02FA0EF3BB40C7F1B6
:1007D000200E22FA0EFE38BF43EA0E03BA40641C14
:1007E00082E750EA410E14BF52EA430E6FF0000157
:1007F0004FF4001717EB430F8ABF194617EB410F51
:10080000B5E74CEA05510020B0BDD4F10104B4F1C4
:1008100020070FDAC4F12007520828BF42F0010276
:1008200010FA07F501FA07F7E1BF2A43E040384321
:10083000E1400FE0352C98DCC7F1200452EA400279
:1008400020FA07F218BF42F0010231FA07F0A14086
:100850000A43002172F1004250F1000051EB0C01FB
:10086000B0BD10B450F8041B81B102681218001D0D
:1008700050F8043BDC0744BFA9F10104E31852F827
:10088000044B43F8044B091FF9D1EBE710BC704748
:100890004FEAF17CBCF1E04C2CBFBCF5001F11E02D
:1008A0005FEA4C0C34BFBCF17F5F2EE05FEA9C0C2A
:1008B0004FEA0C1C4FEA3C0CC10071F100414CEBBB
:1008C00050707047C90241EA5051C00218BF41F050
:1008D000010141F000414FEA6C50C0F109002128AC
:1008E00010D240EACC7CCCF1200C11FA0CF070F163
:1008F0000040CCF1200C21FA0CF00CF0004C40EB45
:100900000C0070474FEACC707047490011F5001F8A
:1009100004D84FEACC10FF30C0057047C8177047A5
:10092000F0B540F2FF7581EA030C0CF0004C15EABB
:1009300011541DBF15EA1357AC42AF42E5E0BC416C
:10094000C1F31301C3F31303801A994143F48013D5
:1009500004D2641E4000494180185941C90241EA4D
:100960005051B1FBF3F603FB1611A2FB0675D7EB52
:10097000C020A94102D2761E80185941C90241EA1D
:100980005051B1FBF3FE03FB1E11A2FB0E75D7EB1A
:10099000C020A94103D2AEF1010E8018594189024D
:1009A00041EA9051760546EA8E2EB1FBF3F603FB41
:1009B0001611A2FB0675D7EB8020A94102D2761E44
:1009C00080185941C90241EA50514EEA060EB1FB66
:1009D000F3F603FB1611A2FB0675D7EBC020A94165
:1009E00002D2761E80185941C90241EA5051B1FB2A
:1009F000F3F703FB1711A2FB0735D3EBC020A94186
:100A000067F100070CBF004247F0010766F3D527E6
:100A10004FEA1E31B80814F5806412DDBD0775F188
:100A2000004250EB0E5051EB045111F5801F5CBF9A
:100A300041EA0C01F0BD4CF07F6141F0E041002043
:100A4000F0BDBD076D0840EA0E5041F48011D4F1AD
:100A50000104B4F120060ADAC4F120060200E040E5
:100A600001FA06F3E1401843B24015430EE0342C7E
:100A700013DCC6F1200445EA40056D0820FA06F2B1
:100A8000154321FA06F0A1400D43002175F1004203
:100A900050F1000051EB0C01F0BD00205FEA0C01A9
:100AA000F0BDCFB992185B41B3FA83F704BFB2FA35
:100AB00082F6BF190B3FB7F120062FBF02FA06F3EB
:100AC000BB40C7F1200622FA06F638BF3343BA40CE
:100AD0001CB1E419641E33E77F4231F00041B1FAE2
:100AE00081F404BFB0FA80F6A4190B3CB4F12006DF
:100AF0002FBF00FA06F1A140C4F1200620FA06F645
:100B000038BF3143A0403C1B1AE7AC421ABF05EA8C
:100B10001357AF4212E050EA41061CBF52EA4306A7
:100B2000BFE750EA4107304661461CBF41EA055124
:100B3000F0BD52EA430C08BFC143F0BD00204FF4A2
:100B4000001616EB410F98BF16EB430F08BF16EBCC
:100B5000410F24BFC14305E016EB430F0CBF6146B4
:100B60004CEA0551F0BD03B4DDE90023C3F30A519B
:100B700040F2FF72914206D001B10CE0190350EA35
:100B8000113006D00BE0190350EA113014BF0220D7
:100B9000012002B070474FF0FF3002B070476FF095
:100BA000010002B07047FEE74FF4001C1CEB410F40
:100BB00094BF1CEB430F09E041EA030C50EA4C0CD4
:100BC00052EA0C0C03D2994208BF9042704714BFFE
:100BD0008B42824270470000D0B514462DED048B45
:100BE000534A544B00F0F0F841EC180B1DD89FED20
:100BF000529B53EC182B51EC190BFFF761FD0022AF
:100C00004F4B00F0F9F806460F4653EC182B51EC09
:100C1000190B00F0F1F802460B4630463946FFF753
:100C20007FFE41EC180B44F0010451EC180B00223C
:100C3000444BFFF7B9FF05D301224FF0795300F081
:100C4000C3F851D853EC182BFFF73AFD41EC190BC0
:100C500053EC182BFFF734FD06460F4653EC192BC7
:100C600039483A49FFF72CFD394A3A4B00F0C4F8AD
:100C700053EC192BFFF724FD374A384B00F0BCF832
:100C800032463B46FFF71CFD53EC182B00F0B4F83E
:100C900006460F4653EC192B31483249FFF710FD39
:100CA000314A324B00F0A8F853EC192BFFF708FD3E
:100CB0002F4A304B00F0A0F853EC192BFFF700FD42
:100CC0002D4A2E4B00F098F853EC192BFFF7F8FC47
:100CD0002B4B002200F090F802460B463046394676
:100CE000FFF71EFE41EC180BA00705D551EC180BC1
:100CF00081F0004141EC180B14F007020BD00FF209
:100D0000880303EBC20251EC180B5368126800F021
:100D100073F841EC180B200705D551EC180B81F046
:100D2000004141EC180B51EC180BBDEC048BD0BD0D
:100D300057CD9E5E1426D13FAA4C58E87AB6FB3FA9
:100D40000000F0BF000040BE845D57134B57B03F1A
:100D5000B2934C19ED5EE43FBEDE02B90240F83FAB
:100D6000DE39028FC7C0743F8AAB1283000CC83FC4
:100D700024D7E508B6D8F03F0F34580E5895FD3FFC
:100D80000000F03F00000000000000000000000034
:100D900066732D3852C1E03F182D4454FB21F93FB2
:100DA00066732D3852C1F03F182D4454FB21F93F92
:100DB00066732D3852C10040182D4454FB21094060
:100DC0003FD038C6A6F104404FF4001C1CEB410F85
:100DD00094BF1CEB430F09E041EA030C50EA4C0CB2
:100DE00052EA0C0C03D28B4208BF8242704714BFF8
:100DF000994290427047000070B44FF0004591EA6C
:100E0000030C44BF6B4000F06BB800BF841A71EB59
:100E1000030603D2001BB141121973414FF4001CA9
:100E20001CEB410F34BF7CEB430443E00C0DA4EBFF
:100E30001356352E50DC45EAC323DB0A45EAC121AF
:100E4000C912B6F120050DDD63FA05F6EB4086EA1E
:100E50000305124218BF45F00105C01851F1000109
:100E60000CD213E062FA06F5F2405540F3415A40C5
:100E7000B340F3405A408018594107D349085FEA0C
:100E800030005FEA350528BF45F0010501F5801106
:100E9000420875F1004250F1000041EB045170BC72
:100EA0004FF4001C1CEB410F38BF70470020090DA8
:100EB000090570471CEB410F10D252EA43060BD0D4
:100EC000BCEB410F05D80C0DAB43661E342EB5DDCF
:100ED00002E0AB438018594170BC704770BC70474A
:100EE000841A71EB030604D26E40001BB141121943
:100EF00073414FF4001C1CEB410F34BF7CEB4306E5
:100F000084E00C0DA4EB1356362E7DDC012E43DC61
:100F100045EAC32343EA525312BFD20292025B084E
:100F2000240545EAC12141EA5051D2EBC020994144
:100F300025D407D1B0FA80F610FA06F164D000206B
:100F4000203608E0B1FA81F6B140C6F1200220FA5D
:100F500002F21143B0404FEAF474B4EB465434F05B
:100F600001064FEA74040AD8D6F50016760D04F08F
:100F70000044F04061FA06F25040F1404840C00A97
:100F800040EA415021F0004128BF5FEA500550F18E
:100F9000000044EBD12137E045EAC323DB0A45EAF0
:100FA000C121C90AB6F120050EDD42EA0242120C47
:100FB000C5F1200603FA06F6EB4042EA06056D424B
:100FC000984161F100010DE062FA06F5F2405540EA
:100FD00063FA06FC82EA0C02F3405A406D429041EB
:100FE00061EB030111F4801F05D1641E620502D07C
:100FF0006D004041494121F48011430875F10043DF
:1010000050F1000041EB045170BC70471CEB410FE4
:1010100015D223F0004352EA43060BD04FEA4C0CA2
:10102000BCEB410F04D80C0D661E342EB7DDEBE788
:10103000801A994150EA410608BF0021E4E708BF41
:101040001CEB430F28BF6FF00001DDE710B4002157
:101050000278002A03D0022A05D002D304E03649E0
:1010600002E0364900E036490A6803234478E4B2D6
:101070006400A3409A430A600A6883784478E4B223
:101080006400A3401A430A604A68012390F90140B2
:10109000A3409A434A604A68C37890F90140A3404C
:1010A0001A434A60CA6803234478E4B26400A34048
:1010B0009A43CA60CA6803794478E4B26400A340E2
:1010C0001A43CA604A69012390F90140A3409A4338
:1010D0004A614A69437990F90140A3401A434A6141
:1010E0008279FF2A26D04278082A11DA0A6A0F2369
:1010F0004478E4B2A400A3409A430A620A6A83795E
:101100004078C0B2800013FA00F01043086211E08A
:101110004A6A0F234478E4B2A400A3409A434A6287
:101120004A6A837940780838C0B2800013FA00F028
:101130001043486210BC70470000024000040240A7
:101140000008024000B587B01B48006850F001005D
:10115000194908601948006850F0020017490860F2
:101160001648006850F00100144908601448D0E99E
:101170000023CDE904231348D0E90023CDE902235D
:1011800004A8FFF763FF02A8FFF760FF0E48D0E94D
:101190000023CDE9002300A8FFF758F900A8FEF7C7
:1011A00069FFFEF74DFF09490920FEF78CFF08484B
:1011B000FFF712F8FBE700BF00380240303802406A
:1011C0007C120008841200088C12000830000020F5
:1011D0000C00002010B5074979441831064C7C44B6
:1011E000163404E00A68081D511888470146A142D8
:1011F000F8D110BD080000001800000067F6FFFFDE
:1012000034000000900000000000002000000000FA
:101210004EF68851CEF20001086840F47000086074
:101220004FF00070E1EE100A7047000000F00BF87C
:10123000002801D0FFF7CEFF0020C046C046FFF7D0
:1012400081FF00F002F80120704700F001B80000B3
:101250000746384600F002F8FBE7000080B5C046BC
:10126000C046024A11001820ABBEFBE72600020070
:10127000C046C046FFF7CCFFFFF7D8FF01060201CA
:1012800001010400010702010101040000540040B3
:10129000000000000000803F0000803F0000803F11
:1012A000000000000000000000000000000000003E
:1012B000000000000000000000000000000000002E
:0812C000000000000000000026
:04000005080012716C
:00000001FF
