:020000040800F2
:100000004021002015320008BB0E0008BB0E00087E
:10001000BB0E0008BB0E0008BB0E0008000000006D
:10002000000000000000000000000000BB0E0008FF
:10003000BB0E000800000000BB0E0008BB0E00084D
:1000400000B583B001210B2000F01DF81D2109200F
:1000500000F019F840F2AF500190DFF8340600903C
:100060004FF4A563DFF82C2640F27A61DFF828060A
:1000700000F0FCF92D21042000F0ECFA07BDDFF8B8
:100080001C160860704738B504000D00DFF80C0638
:10009000006800F065FB1A21DFF80006006800F038
:1000A0007FFBDFF8F805006800F089FB2100C9B28A
:1000B000DFF8E805006800F08BFB2900C9B2DFF823
:1000C000DC05006800F084FBDFF8D005006800F074
:1000D00059FB31BD38B505000C00DFF8C0050068DC
:1000E00000F03EFB1A21DFF8B405006800F058FB71
:1000F000DFF8A805006800F062FB2900C9B2DFF84C
:100100009C05006800F064FBDFF89005006800F0D3
:1001100027FB1B21DFF88405006800F041FBDFF8B6
:100120007C05006800F0A5FBDFF87005006800F0B2
:1001300046FBDFF86805006800F024FB2100DFF8CB
:100140005C05006800F053FB31BD80B500208DF8E0
:10015000000003E000A90620FFF7BCFF9DF80000A7
:10016000C007F7D5DFF83405006800F07BFBDFF847
:100170002C05006800F0F4FA1A21DFF82005006869
:1001800000F00EFBDFF81405006800F018FB0021FA
:10019000DFF80805006800F01BFBDFF800050068C9
:1001A00000F0DEFA1B21DFF8F404006800F0F8FA32
:1001B000DFF8E804006800F002FBDFF8E414DFF881
:1001C000DC04006800F013FBDFF8D814DFF8CC047F
:1001D000006800F00CFBDFF8D014DFF8C004006802
:1001E00000F005FBDFF8C414DFF8B004006800F08D
:1001F000FEFADFF8BC14DFF8A404006800F0F7FA98
:10020000DFF89804006800F034FBDFF89004006821
:1002100000F0B8FADFF89C14DFF88004006800F002
:10022000E6FA01BD80B52DED028BFFF78EFFDFF8FA
:1002300070044078DFF86814097851EA0020DFF88C
:1002400078140880DFF85804C078DFF854148978EF
:1002500051EA0020DFF860144880DFF84404407958
:10026000DFF83C14097951EA0020DFF84C1488804B
:1002700000F0A4F9DFF84004B0F9000000F000FB42
:1002800041EC110BB0EE418AF0EE618ADFF82804F0
:10029000B0F9020000F0F4FA41EC100BB0EE481A8D
:1002A000F0EE681A00F074FB53EC102BDFF80C042E
:1002B000DFF80C1400F076FB00F05CFCDFF8F813BC
:1002C0008860DFF8F40390ED020ADFF8F803D0ED60
:1002D000000A30EE200ADFF8E00380ED020ADFF8C2
:1002E000D80390ED020AB5EE400AF1EE10FA0BD5F4
:1002F000DFF8C40390ED020ADFEDAD0A30EE200A0C
:10030000DFF8B40380ED020ADFF8AC0390ED020AD7
:10031000DFEDA80AB4EE600AF1EE10FA0FDBDFF8A9
:10032000980390ED020ADFEDA40AB4EE600AF1EE44
:1003300010FA04D50720DFF88013087393E0DFF884
:10034000780390ED020ADFEDC00AB4EE600AF1EE28
:1003500010FA0DDBD84890ED020ADFEDBC0AB4EECE
:10036000600AF1EE10FA03D50120D34908737AE050
:10037000D14890ED020ADFEDB50AB4EE600AF1EE65
:1003800010FA0DDBCC4890ED020ADFEDB10AB4EEB5
:10039000600AF1EE10FA03D50220C749087362E043
:1003A000C54890ED020ADFEDAA0AB4EE600AF1EE4C
:1003B00010FA0DDBC04890ED020ADFEDB20AB4EE90
:1003C000600AF1EE10FA03D50320BB4908734AE036
:1003D000B94890ED020ADFEDAB0AB4EE600AF1EE27
:1003E00010FA0DDBB44890ED020ADFEDA70AB4EE77
:1003F000600AF1EE10FA03D50420AF49087332E029
:10040000AD4890ED020ADFEDA00AB4EE600AF1EE0D
:1004100010FA0DDBA84890ED020ADFED9C0AB4EE5D
:10042000600AF1EE10FA03D50520A34908731AE01B
:10043000A14890ED020ADFED950AB4EE600AF1EEF4
:1004400010FA0DDB9C4890ED020ADFED5A0AB4EE7B
:10045000600AF1EE10FA03D506209749087302E00E
:10046000002095490873BDEC028B01BD2DE9F843CE
:100470002DED048B81460C0090461D00BDF93060C7
:10048000BDF934703FB207FA86F000F0F9F90022A6
:100490005FF0804300F0B6FB00F06CFB01EE100A49
:1004A000B0EE418A2DB205FA88F000F0E9F9002299
:1004B0005FF0804300F0A6FB00F05CFB00EE900ACA
:1004C000B0EE481AB0EE608AF0EE418A24B204FA27
:1004D00089F000F0D5F900225FF0804300F092FB34
:1004E00000F048FB00EE100AB0EE681AF0EE480A81
:1004F00000F04AF824B20FFA89F9B4EB090000F0D1
:10050000BFF900225FF0804300F07CFB00F032FB7B
:1005100008EE100A2DB20FFA88F8B5EB080000F0CB
:10052000AFF900225FF0804300F06CFB00F022FB8B
:1005300008EE900A3FB236B2B81B00F0A1F90022D3
:100540005FF0804300F05EFB00F014FB09EE100A40
:1005500038EE280A30EE090A10EE100A00F086FC88
:100560000022594B00F04EFB00F004FB00EE100A95
:1005700080EE091AC0EE280A80EE080A00F00EF894
:10058000BDEC048BBDE8F183504880ED000A4F4874
:10059000C0ED010A4D4880ED021A70474C4880EDCD
:1005A000000A4B48C0ED010A494880ED021A704725
:1005B0000000B4430140924301C0A8433E48B0F953
:1005C000000000EE100AB8EEC00A4048D0ED000A64
:1005D00030EE600A3E48D0ED000A20EE200ABDEE63
:1005E000C00A10EE100A344908803348B0F90200FE
:1005F00000EE100AB8EEC00A3448D0ED010A30EE21
:10060000600A3348D0ED010A20EE200ABDEEC00A90
:1006100010EE100A284948802748B0F9040000EE7F
:10062000100AB8EEC00A2948D0ED020A30EE600A7E
:100630002748D0ED020A20EE200ABDEEC00A10EED7
:10064000100A1D49888070470100B44101008742AB
:100650000100E14270B50E00C0B200F01BF90400C9
:100660000D00F6B2300000F015F90022194B00F031
:10067000C9FA22002B0000F021FC00F07BFA11499E
:10068000086070BD01801D4301804A4301807743AB
:100690009DFBFFFFE2F9FFFFE4FAFFFF38010020B6
:1006A0001001002011010020120100201301002080
:1006B0001401002015010020E0000020775AF01AF4
:1006C000DCA54C403401002000000840F000002070
:1006D0000000002000004E4001000020002901D150
:1006E000012038E01D4A126852F400121B4B1A60B8
:1006F00000220B681A600A6812680B681A600A68A0
:1007000012680B7952EA43020B681A6000220B68E8
:100710005A600A68526852F010020B685A60002250
:100720000B68DA610A68D2690B68DA610A68D26913
:1007300052F050020B68DA6100220B681A620A68F4
:10074000126A52F011020B681A620A68126852F0BB
:10075000010209680A60C0B27047000040380240D8
:100760000021002801D1012109E00268126852F439
:10077000807203681A600268127DD207FBD50800F8
:10078000C0B270470021002801D1012105E00268B4
:10079000126852F40072006802600800C0B270472C
:1007A0000022002801D1012206E0C9B203681961C4
:1007B0000168097D8907FBD51000C0B2704781B080
:1007C00001684969009100688069009001B0704734
:1007D0000022002801D1012206E0C9B20368196194
:1007E0000168097D4907FBD51000C0B2704700229F
:1007F000002801D0002901D1012206E003681B7DF9
:100800005B06FBD50068006908701000C0B2704735
:1008100038B500230468246854F4807405682C609B
:100820000468247DE407FBD5C9B20468216101682E
:10083000097D8907FBD501684969009101688969CB
:10084000009108E0DBB2995C046821610168097DD0
:100850004907FBD55B1CDBB2995C0029F2D1FFF79D
:1008600091FF32BD0168096851F480610068016040
:1008700070470168096831F4806100680160704761
:10088000010040F10980F446404200F005F851F0C3
:1008900000416047010000BF09D0B0FA80F18840F4
:1008A000C91CC1F58461090501EBD02140057047E1
:1008B00038B50FB4DDE9020100F074FB0546DDE94F
:1008C000000100F06FFB012DB8BF012830DA01985C
:1008D000002807D5DDE9000181F00041CDE90001E4
:1008E000082400E000240398002807D5DDE9020170
:1008F00081F00041CDE9020184F00604DDE9020146
:10090000DDE9002300F06EFB04D200F07BF941EC3E
:10091000100B29E0002D08D5DDE90001DDE90223F7
:1009200000F070F941EC100B20E09FED150B1DE07D
:10093000022808BFDDE9000120D0022D08BFDDE953
:1009400002011BD085420CBF9FED0F0B9FED0C0BDE
:10095000019900294CBF082400240399002948BFAD
:1009600084F00604012801D184F00204224605B077
:10097000BDE8304051EC100B00F04EBB05B030BD6F
:100980000000000000000000000000000000F03F38
:1009900080B553EC112B51EC100BFFF789FF41ECA4
:1009A000100B01BDB0B581EA030C0CF0004C40F215
:1009B000FF7515EA11541DBF15EA1357AC42AF423B
:1009C00039E0E41923EA455343F48013C90241F0A6
:1009D000004141EA505EC7021100A7FB0202002855
:1009E0004FF00000EEFB01204FF00001E3FB072178
:1009F00018BF42F00102401800214941E3FB0E01FB
:100A0000A4F580640F0302D252004041494154F1E1
:100A100001046CDD470872F1004250F1000051EB17
:100A20000451A1F580115CBF41EA0C01B0BD4CEA54
:100A300005510020B0BD05EA1357AC4214BFAF42C8
:100A400041E050EA410E1CBF52EA430E02E061460B
:100A50000020B0BD24423C441BD15FEA070EF6D013
:100A6000090302BF01460020AEF1140EB1FA81F76E
:100A7000AEEB070401FA07FE0C37C7F1200100FABC
:100A800007F7C8404EEA000E23EA455343F48013AB
:100A9000A2E733F00043B3FA83F704BFB2FA82FE51
:100AA00077440B3FE41BB7F1200E2FBF02FA0EF381
:100AB000BB40C7F1200E22FA0EFE38BF43EA0E03F8
:100AC000BA40641C82E750EA410E14BF52EA430E5A
:100AD0006FF000014FF4001717EB430F8ABF194660
:100AE00017EB410FB5E74CEA05510020B0BDD4F13A
:100AF0000104B4F120070FDAC4F12007520828BF1F
:100B000042F0010210FA07F501FA07F7E1BF2A43A4
:100B1000E0403843E1400FE0352C98DCC7F1200479
:100B200052EA400220FA07F218BF42F0010231FAFD
:100B300007F0A1400A43002172F1004250F1000089
:100B400051EB0C01B0BD10B450F8041B81B1026828
:100B50001218001D50F8043BDC0744BFA9F1010442
:100B6000E31852F8044B43F8044B091FF9D1EBE7A3
:100B700010BC70474FEAF17CBCF1E04C2CBFBCF5D7
:100B8000001F11E05FEA4C0C34BFBCF17F5F2EE028
:100B90005FEA9C0C4FEA0C1C4FEA3C0CC10071F15F
:100BA00000414CEB50707047C90241EA5051C002FD
:100BB00018BF41F0010141F000414FEA6C50C0F113
:100BC0000900212810D240EACC7CCCF1200C11FA8B
:100BD0000CF070F10040CCF1200C21FA0CF00CF07C
:100BE000004C40EB0C0070474FEACC707047490056
:100BF00011F5001F04D84FEACC10FF30C005704734
:100C0000C8177047F0B540F2FF7581EA030C0CF08D
:100C1000004C15EA11541DBF15EA1357AC42AF4200
:100C2000E5E0BC41C1F31301C3F31303801A9941FA
:100C300043F4801304D2641E400049418018594196
:100C4000C90241EA5051B1FBF3F603FB1611A2FBB6
:100C50000675D7EBC020A94102D2761E80185941F3
:100C6000C90241EA5051B1FBF3FE03FB1E11A2FB86
:100C70000E75D7EBC020A94103D2AEF1010E80184A
:100C80005941890241EA9051760546EA8E2EB1FB20
:100C9000F3F603FB1611A2FB0675D7EB8020A941E2
:100CA00002D2761E80185941C90241EA50514EEADB
:100CB000060EB1FBF3F603FB1611A2FB0675D7EB8C
:100CC000C020A94102D2761E80185941C90241EACA
:100CD0005051B1FBF3F703FB1711A2FB0735D3EB20
:100CE000C020A94167F100070CBF004247F001078F
:100CF00066F3D5274FEA1E31B80814F5806412DD7B
:100D0000BD0775F1004250EB0E5051EB045111F547
:100D1000801F5CBF41EA0C01F0BD4CF07F6141F0E7
:100D2000E0410020F0BDBD076D0840EA0E5041F4DF
:100D30008011D4F10104B4F120060ADAC4F12006CE
:100D40000200E04001FA06F3E1401843B2401543C7
:100D50000EE0342C13DCC6F1200445EA40056D0892
:100D600020FA06F2154321FA06F0A1400D430021B6
:100D700075F1004250F1000051EB0C01F0BD002074
:100D80005FEA0C01F0BDCFB992185B41B3FA83F76B
:100D900004BFB2FA82F6BF190B3FB7F120062FBF8E
:100DA00002FA06F3BB40C7F1200622FA06F638BF66
:100DB0003343BA401CB1E419641E33E77F4231F07B
:100DC0000041B1FA81F404BFB0FA80F6A4190B3CDB
:100DD000B4F120062FBF00FA06F1A140C4F12006AD
:100DE00020FA06F638BF3143A0403C1B1AE7AC425C
:100DF0001ABF05EA1357AF4212E050EA41061CBF82
:100E000052EA4306BFE750EA4107304661461CBF3D
:100E100041EA0551F0BD52EA430C08BFC143F0BDA1
:100E200000204FF4001616EB410F98BF16EB430F4E
:100E300008BF16EB410F24BFC14305E016EB430F7B
:100E40000CBF61464CEA0551F0BD50F8041B61B17E
:100E500050F8042BD30744BFA9F101039A180023CB
:100E600042F8043B091FFAD1EFE770475FF0FF0C2F
:100E70001CEAD05114BF614506E0C110400721F0C3
:100E8000E04101F16051704779B900F00041000282
:100E90000AD0B0FA80FC00FA0CF001F16051A1EB2D
:100EA0000C5101EBD0214005704741020CBF40F4CA
:100EB000E0016FF0000100207047FEE770B44FF0D2
:100EC000004591EA030C44BF6B4000F0A7B900BF96
:100ED000841A71EB030603D2001BB141121973414E
:100EE0004FF4001C1CEB410F34BF7CEB430443E088
:100EF0000C0DA4EB1356352E50DC45EAC323DB0A58
:100F000045EAC121C912B6F120050DDD63FA05F6E7
:100F1000EB4086EA0305124218BF45F00105C018F0
:100F200051F100010CD213E062FA06F5F24055408F
:100F3000F3415A40B340F3405A408018594107D317
:100F400049085FEA30005FEA350528BF45F0010532
:100F500001F58011420875F1004250F1000041EBAB
:100F6000045170BC4FF4001C1CEB410F38BF70479C
:100F70000020090D090570471CEB410F10D252EA01
:100F800043060BD0BCEB410F05D80C0DAB43661EDE
:100F9000342EB5DD02E0AB438018594170BC704778
:100FA00070BC704703B4DDE90023C3F30A5140F27B
:100FB000FF72914206D001B10CE0190350EA1130E2
:100FC00006D00BE0190350EA113014BF02200120B3
:100FD00002B070474FF0FF3002B070476FF0010071
:100FE00002B070474FF4001C1CEB410F94BF1CEB88
:100FF000430F09E041EA030C50EA4C0C52EA0C0C96
:1010000003D2994208BF9042704714BF8B4282427C
:101010007047000000000000D0B514462DED048B91
:10102000534A544B00F0B0F941EC180B1DD89FED1A
:10103000529B53EC182B51EC190BFFF7B3FC002219
:101040004F4BFFF73BFF06460F4653EC182B51EC76
:10105000190BFFF733FF02460B4630463946FFF7C0
:10106000D1FD41EC180B44F0010451EC180B0022A7
:10107000444BFFF7B7FF05D301224FF0795300F03F
:1010800083F951D853EC182BFFF78CFC41EC190B6A
:1010900053EC182BFFF786FC06460F4653EC192B32
:1010A00039483A49FFF77EFC394A3A4BFFF706FFC9
:1010B00053EC192BFFF776FC374A384BFFF7FEFE4F
:1010C00032463B46FFF76EFC53EC182BFFF7F6FE5B
:1010D00006460F4653EC192B31483249FFF762FCA4
:1010E000314A324BFFF7EAFE53EC192BFFF75AFC5B
:1010F0002F4A304BFFF7E2FE53EC192BFFF752FC5F
:101100002D4A2E4BFFF7DAFE53EC192BFFF74AFC62
:101110002B4B0022FFF7D2FE02460B4630463946E3
:10112000FFF770FD41EC180BA00705D551EC180B2B
:1011300081F0004141EC180B14F007020BD00FF2C4
:10114000880303EBC20251EC180B53681268FFF7D7
:10115000B5FE41EC180B200705D551EC180B81F0BA
:10116000004141EC180B51EC180BBDEC048BD0BDC9
:1011700057CD9E5E1426D13FAA4C58E87AB6FB3F65
:101180000000F0BF000040BE845D57134B57B03FD6
:10119000B2934C19ED5EE43FBEDE02B90240F83F67
:1011A000DE39028FC7C0743F8AAB1283000CC83F80
:1011B00024D7E508B6D8F03F0F34580E5895FD3FB8
:1011C0000000F03F000000000000000000000000F0
:1011D00066732D3852C1E03F182D4454FB21F93F6E
:1011E00066732D3852C1F03F182D4454FB21F93F4E
:1011F00066732D3852C10040182D4454FB2109401C
:101200003FD038C6A6F1044070B44FF0004591EAD3
:10121000030F44BF6B40FFF75BBE00BF841A71EB46
:10122000030604D26E40001BB141121973414FF402
:10123000001C1CEB410F34BF7CEB430684E00C0D1B
:10124000A4EB1356362E7DDC012E43DC45EAC32386
:1012500043EA525312BFD20292025B08240545EAC8
:10126000C12141EA5051D2EBC020994125D407D188
:10127000B0FA80F610FA06F164D00020203608E0BB
:10128000B1FA81F6B140C6F1200220FA02F2114310
:10129000B0404FEAF474B4EB465434F001064FEA20
:1012A00074040AD8D6F50016760D04F00044F04018
:1012B00061FA06F25040F1404840C00A40EA41500D
:1012C00021F0004128BF5FEA500550F1000044EBD7
:1012D000D12137E045EAC323DB0A45EAC121C90A27
:1012E000B6F120050EDD42EA0242120CC5F12006DD
:1012F00003FA06F6EB4042EA06056D42984161F1B9
:1013000000010DE062FA06F5F240554063FA06FC72
:1013100082EA0C02F3405A406D42904161EB0301B6
:1013200011F4801F05D1641E620502D06D0040419A
:10133000494121F48011430875F1004350F1000048
:1013400041EB045170BC70471CEB410F15D223F0E8
:10135000004352EA43060BD04FEA4C0CBCEB410F62
:1013600004D80C0D661E342EB7DDEBE7801A9941C8
:1013700050EA410608BF0021E4E708BF1CEB430F19
:1013800028BF6FF00001DDE74FF4001C1CEB410F9C
:1013900094BF1CEB430F09E041EA030C50EA4C0CEC
:1013A00052EA0C0C03D28B4208BF8242704714BF32
:1013B0009942904270470000F8B52DED048B154618
:1013C00041EC180B82B053EC182BC448C449FFF70A
:1013D000E9FAC44AC44B41EC190B21F00041FFF774
:1013E00001FE80F0F38051EC190B00220023FFF77F
:1013F000CBFF53EC192B99BF0020BC490020BC49FE
:10140000FFF75CFD00F004FA040051D0FFF738FA52
:101410000022B84BFFF7C6FA41EC190B53EC192B1D
:101420004FF0A040B449FFF7BDFA02460B4651EC1D
:10143000180BFFF7E9FE06460F4653EC192B4FF049
:10144000C040AE49FFF7AEFA02460B463046394679
:10145000FFF7DAFE06460F4653EC192B4FF000500B
:10146000A749FFF79FFA02460B4630463946FFF779
:10147000CBFE06460F4653EC192B0020A149FFF77F
:1014800091FA02460B4630463946FFF7BDFE064646
:101490000F4653EC192B4FF000509B49FFF782FA8F
:1014A00002460B4630463946FFF7AEFE41EC180BBC
:1014B00004F00300451951EC180B6FF00102944B36
:1014C000FFF762FF0BD800224FF07953FFF78AFD38
:1014D00005D2E80740F18E819FED8E8B8AE153ECB7
:1014E000182BFFF75FFA41EC190BE80731D553ECE5
:1014F000192B8A488A49FFF755FA8A4A8A4BFFF71F
:10150000DDFC53EC192BFFF74DFA884A884BFFF7A7
:10151000D5FC53EC192BFFF745FA864A864BFFF7AB
:10152000CDFC53EC192BFFF73DFA844A844BFFF7AF
:10153000C5FC53EC192BFFF735FA824B6FF05102C3
:10154000FFF7BCFC53EC192BFFF72CFA0022624B7F
:1015500037E053EC182B51EC190BFFF723FA064632
:101560000F4653EC192B91489149FFF71BFA914A0A
:10157000914BFFF7A3FC53EC192BFFF713FA8F4A9B
:101580008F4BFFF79BFC53EC192BFFF70BFA8D4A9F
:101590008D4BFFF793FC53EC192BFFF703FA8B4AA3
:1015A0008B4BFFF78BFC53EC192BFFF7FBF9894AA8
:1015B000564BFFF783FC32463B46FFF7F3F953ECFB
:1015C000182BFFF77BFC41EC180B13E18DED008B22
:1015D000DDE90001DDE90023C3F30A5140F2FF72A7
:1015E000914213D0002904BF190350EA11301CD1D5
:1015F000E80748BF9FED478BA80740F1038151ECF6
:10160000180B81F0004141EC180BFBE0190350EA84
:10161000113040F0F78000F027F92121016002B07D
:101620004FF0FF306FF00041EFE08DED008B00A830
:1016300000F020F945199DED008B354B51EC180B4E
:101640006FF00102FFF7A0FE0BD800224FF0795394
:10165000FFF7C8FC05D2E80740F1CC809FED2D8B49
:10166000C8E053EC182BFFF79DF941EC190BE80784
:101670006AD553EC192B29482949FFF793F9294AD0
:10168000294BFFF71BFC53EC192BFFF78BF9274A6B
:10169000274BFFF713FC53EC192BFFF783F9254A6F
:1016A000254BFFF70BFC53EC192BFFF77BF9234A73
:1016B000234BFFF703FC53EC192BFFF773F9214B76
:1016C0006FF05102FFF7FAFB53EC192BFFF76AF9A1
:1016D0000022014B8AE000BF0000F03F83C8C96DC3
:1016E000305FE43F0000A0FFFFFFDF410000E03F6C
:1016F0000000E0BF0000303EFB21B941B4101140B2
:1017000026A6513E5C14D33C9A833B3B5555C5BF3E
:10171000FFFF3FBE000000000000F03F09260A1056
:1017200039BA213E3BA861C6F97D92BE63AC3090C8
:101730009F01FA3EF6FB51166CC156BFB1025555DA
:101740005555A53FFFFFDFBF53EC182B51EC190B8C
:10175000FFF728F906460F4653EC192B1348144996
:10176000FFF720F9134A144BFFF7A8FB53EC192B92
:10177000FFF718F9114A124BFFF7A0FB53EC192B96
:10178000FFF710F90F4A104BFFF798FB53EC192B9A
:10179000FFF708F90D4A0E4BFFF790FB53EC192B9E
:1017A000FFF700F90B4A0C4B18E000BFB08F2FC3B6
:1017B00010D8E53D8F0C73A1E1E55ABE4DADE44F65
:1017C000E31DC73E3EE3B519A0012ABFFAF0101190
:1017D0001111813F425555555555C5BFFFF76EFB59
:1017E00032463B46FFF7DEF853EC182BFFF766FB5B
:1017F00041EC180BA80705D551EC180B81F00041FE
:1018000041EC180B02B051EC180BBDEC048BF4BD8D
:10181000F446400D40EAC120490006D200F014F819
:10182000004248BF6FF00040604700F00DF84FF0F5
:10183000004188428CBF084640426047400D40EA64
:10184000C120490080F00D8040F00040490DA1F515
:101850008061491C05D4D1F11F0154BFC840C01795
:1018600070474FF000007047014800F0B7B8000023
:1018700078000020D0B52DED048B044682B094EDA5
:10188000008B4748474953EC182BFFF78BF8CDE9FD
:10189000000100220023FFF777FDDDE9002399BF57
:1018A0000020414900204149FFF708FBCDE9000134
:1018B000002100A800F093F8DDE9002300200021BA
:1018C00000F0CCF84ED03A49FFF76CF841EC190B18
:1018D00053EC192B4FF0A0403649FFF763F802464E
:1018E0000B4651EC180BFFF78FFC06460F4653ECE6
:1018F000192B4FF0C0403049FFF754F802460B4611
:1019000030463946FFF780FC06460F4653EC192B4C
:101910004FF000502949FFF745F802460B46304684
:101920003946FFF771FC06460F4653EC192B002091
:101930002349FFF737F802460B4630463946FFF792
:1019400063FC06460F4653EC192B4FF000501D491F
:10195000FFF728F802460B4630463946FFF754FC9D
:1019600041EC180B84ED008BDDE90001164A174BA2
:10197000FFF738FB04D3164A164BFFF705FD05D8D1
:101980000022154B00F07AF8CDE90001DDE90001F5
:10199000FFF73EFF02B000F00300BDEC048BD0BDAA
:1019A00083C8C96D305FE43F0000E03F0000E0BF46
:1019B0000000303EFB21B941B410114026A6513E33
:1019C0005C14D33C9A833B3B0000C0FFFFFFDFC1A8
:1019D0000100C0FFFFFFDF410000E04170474268A7
:1019E000C2F30A5240F2FF739A4209D141680903D7
:1019F00004BF0068002801D1012070470220704711
:101A000043685B0004BF0368002B25D040F23343DA
:101A10009A1A521A012A1FDB352A06DB416801F0A7
:101A2000004141600021016013E0012102F01F0329
:101A30009940491E920607D5426811404A404260CB
:101A400002681143002202E0026811404A4002602D
:101A500011B14FF0FF3070470020704790420CD119
:101A600041EA030C50EA4C0C07D0994205D14FF4DF
:101A7000001C1CEB410F38BF8942704770B540F223
:101A8000FF7601F0004C5B0006EA11545D0D1ABFB1
:101A9000B442B54278E0B3EB410F08BF82424BD26B
:101AA000C3F3530343F48013C1F3130141F48011D2
:101AB000641B0B3C13D9C90241EA5051B1FBF3FE40
:101AC00003FB1E11A2FB0EE6DEEBC020B14101D2EA
:101AD0008018594150EA010653D00B3CEBD80B3427
:101AE000C4F12006A14020FA06F6A0403143B1FB24
:101AF000F3FE03FB1E11A2FB0EE6B0EB0E00B1419C
:101B000001D28018594102BF0146203D0020C1B3D7
:101B1000B1FA81F39940C3F1200220FA02F2114395
:101B20009840ED1A0A3509DBC00A40EA41504CEAF8
:101B3000D12101EB055170BD23D070BDD5F10B054E
:101B4000B5F120020DDAC5F120020300E84001FAE8
:101B500002F6E940934073F10043704151EB0C01F0
:101B600070BD402D0DDC430821FA02F0C2F12005C2
:101B700011FA05F6334373F1004370415CF1000143
:101B800070BD6146002070BD53EA020E1ABFB44218
:101B9000B54237E0B3EB410F08BF8242CCD25B08BD
:101BA000B3FA83F504BFB2FA82F6AD190B3DB5F175
:101BB000200624BF02FA06F305E0AB40C5F120067B
:101BC00022FA06F63343AA40D5F1010524427FF4F8
:101BD0006BAF31F00041B1FA81F404BFB0FA80F686
:101BE000A4190B3CB4F1200624BF00FA06F105E06D
:101BF000A140C4F1200620FA06F63143A040D4F1FA
:101C0000010455E74FF4001515EB410F2CBF6FF0A1
:101C10000041EB4218BF6FF00041BDE87040C0F0DA
:101C2000018070471FB5FFF71FFE212101601FBD16
:101C300080B58D4800F05CF98C4800F059F98C486B
:101C400000F056F98B4800F053F98B4800F050F93A
:101C50008A4800F04DF98A4800F0C6F9894800F03A
:101C6000C3F99048FEF738FD854800F095FA00F07A
:101C70006DFA844800F046FB8A48FEF700FAFEF74A
:101C8000DFF901BD00B599B000F016F900A800F029
:101C90003CFB00A800F04CFB7B4880ED000B00A84B
:101CA00000F033FB00A800F043FB784880ED000B08
:101CB00000A800F02AFB9DF8000030387A4908702F
:101CC00019B000BD80B500F06AFAFEF7ABFA01BDAD
:101CD00038B52DED088B6F4890ED000B00F0B8F88B
:101CE000B0EE408AF0EE608A674890ED000B00F09D
:101CF000AFF853EC102B51EC180BFFF785FA41ECC1
:101D0000190B634890ED000B00F0A2F8B0EE408A8A
:101D1000F0EE608A5D4890ED000B00F099F853EC0E
:101D2000102B51EC180BFFF76FFA41EC180B51EC2C
:101D3000190B00225FF08043FEF764FF41EC100BAB
:101D400000F0FEFA51EC100B53EC102BFEF72AFEBC
:101D500041EC190B4C4890ED000B00F079F800F0C5
:101D6000F8FAB0EE40AAF0EE60AA4A4890ED000BF7
:101D700000F06EF800F0EDFAB0EE40BAF0EE60BAA6
:101D800051EC180B00225FF08043FEF73BFF41EC63
:101D9000100B00F0D5FAB0EE408AF0EE608A51ECFC
:101DA0001A0B53EC1B2BFEF7FDFD04000D0051EC4C
:101DB000180B53EC182BFEF7F5FD02000B0020006A
:101DC0002900FEF7EFFD53EC192BFFF777F841ECF4
:101DD000100B00F0C7FA00F0D5FB51EC100B0022FD
:101DE0005FF08043FEF7DEFD41EC100B9FED2A1BF8
:101DF00051EC100B53EC112BFEF7D4FD00222B4BB2
:101E0000FEF7D0FD41EC100B51EC100BFEF7B2FECB
:101E100000EE100ABDEC088B31BD214890F90C0092
:101E2000214991F90010401A40B2704710B584B0B2
:101E3000040089B200A800F044F88DF803400020A7
:101E40008DF8040000AA1E211648FEF7E1FC1FBD14
:101E500080B59FED171B53EC112B51EC100BFEF7C7
:101E6000A1FD41EC100B01BD240000202C0000203E
:101E7000340000203C0000204C00002044000020E2
:101E80000C00002018000020180100202001002074
:101E900008010020000100200000000000E3B8401D
:101EA000E0000020540000203D01002000408F4051
:101EB000399D52A246DF913F80B5532000F02CFAA5
:101EC00001BD10B402220DE089B20A2391FBF3F4A4
:101ED00003FB1413303352B2135489B20A2391FB1B
:101EE000F3F1521E52B2002AEED510BC704700002A
:101EF00010B400210278002A03D0022A05D002D3B0
:101F000004E0364902E0364900E036490A68032316
:101F10004478E4B26400A3409A430A600A68837874
:101F20004478E4B26400A3401A430A604A6801237B
:101F300090F90140A3409A434A604A68C37890F9F7
:101F40000140A3401A434A60CA6803234478E4B2BC
:101F50006400A3409A43CA60CA6803794478E4B233
:101F60006400A3401A43CA604A69012390F9014002
:101F7000A3409A434A614A69437990F90140A340DA
:101F80001A434A618279FF2A26D04278082A11DA58
:101F90000A6A0F234478E4B2A400A3409A430A6279
:101FA0000A6A83794078C0B2800013FA00F01043C7
:101FB000086211E04A6A0F234478E4B2A400A34007
:101FC0009A434A624A6A837940780838C0B28000EE
:101FD00013FA00F01043486210BC70470000024042
:101FE000000402400008024038B50400324800688E
:101FF00050F40030304908603048006850F010005C
:102000002E49086000202168C8602068C06850F42C
:1020100000502168C8602068C068617950EA0130CA
:102020002168C86020680069A17950EA0130216800
:102030000861002021688860A068000100EE100A95
:10204000B8EE400ADFED1B0A80EE800AFDEEC00A02
:1020500010EE905AADB200EE905AF8EE600A30EEF3
:10206000600AF3EE000A20EE200A10EE100AFEF7D6
:10207000FDFE0022124BFEF721FFFFF7C9FB21688E
:102080008968ADB251EA05112268916021688968BA
:10209000C0B20843216888602068C06850F008001A
:1020A0002168C8602068C06850F004002168C860DA
:1020B00031BD00000024744B4038024044380240D7
:1020C0000000E03F026812781206FBD5C9B2006832
:1020D00041607047016809788906FBD5006840684F
:1020E000C0B2704770B504000D00002605E0F6B2DE
:1020F000715D2000FFF7E6FF761CF6B2705D0028E8
:10210000F5D170BD70B582B004000D00002620002E
:10211000FFF7E0FFF6B2705505E0761C2000FFF7F0
:10212000D9FFF6B27055F6B2705D0D28F5D12000DA
:10213000FFF7D0FF0020F6B2705500208DF80000A8
:102140009DF80000401C8DF8000073BD80B55D480F
:10215000006800F01AF85C48006800F016F85B4868
:10216000006800F012F85A48006800F00EF859486C
:10217000006800F00AF85848006800F006F8574870
:10218000006800684068009001BD80B501005348B8
:102190000068FFF7A7FF01BD50490860704780B590
:1021A0004F480068FFF7F1FF4E494C480068FFF7C1
:1021B000A9FF49480068FFF7E8FF00F001F801BDFA
:1021C00080B52DED028B474800F0E4F945494018F1
:1021D00010F8060C562872D0434800F0A9F843487E
:1021E00080ED000B424800F0A3F8424880ED000B60
:1021F0003E484168006800223F4BFEF703FDFFF7B1
:102200001DFBFEF747FB41EC180B53EC182B00208D
:102210003949FEF7C7FB02000B00344841680068EB
:10222000FEF7F2FF0022354BFEF7ECFC53EC182BC7
:10223000FEF744FE2D4AC2E900012E4841680068BD
:1022400000222D4BFEF7DEFCFFF7F8FAFEF722FB2B
:1022500041EC180B53EC182B00202749FEF7A2FB8A
:1022600002000B00234841680068FEF7CDFF002202
:10227000224BFEF7C7FC53EC182BFEF71FFE1D4A3E
:10228000C2E900011748807C532809D11748D0E9DA
:10229000002300201A49FEF785FB144AC2E9000119
:1022A000104890F82000572809D11248D0E900239F
:1022B00000201349FEF776FB0E4AC2E90001BDEC8F
:1022C000028B01BD5C000020600000206400002043
:1022D000680000206C000020700000202C0100200D
:1022E000740000207C0000208300002000010020FA
:1022F00090000020080100200000594000004E40DE
:102300000000F0BF09490860704780B50100074828
:102310000068FFF7F7FE01BD80B50100C9B20348B0
:102320000068FFF7CFFE01BD00000000280100207B
:1023300080B50022002100F0FBF941EC100B01BD3B
:1023400080B5002251EC100BFFF736F841EC100B72
:1023500001BD80B5012251EC100BFFF72DF841ECC7
:10236000100B01BD51EC100B00B500F003F841EC6F
:10237000100B00BD40F2FF7C0B0D4DD0634566D2C3
:1023800030B421EA035141F4801103F2FD3C5FEACD
:102390005C0C01D300184941890041EA907180002A
:1023A0004FF440140023E202D50AB1F5100107D41E
:1023B0006D081DD2091B641900184941491BF7D546
:1023C0006D080AD20919641B00184941491BEFD551
:1023D0006D08F7D301E0520817D0C01861419B1A6D
:1023E000AC4100184941801AA941F4D452080AD0DE
:1023F000C01AA1419B186C4100184941801AA9419B
:10240000E9D45208F4D15B1C6C4161084FEA3300F7
:1024100001EB0C5130BC704750EA0103FBD030B4E3
:10242000B1FA81F311B9B0FA80F41B190B3BB3F187
:1024300020042FBF00FA04F19940C3F1200420FAD0
:1024400004F438BF21439840D3F101039DE763456D
:10245000E1D011F5801FDED850EA4101DBD0D9432D
:10246000FFF7E0BBD0B52DED048B82B041EC180B2B
:102470008DED008BDDE90023C3F30A5140F2FF72BA
:10248000914213D0002904BF190350EA113011D032
:1024900051EC180B00220023FEF7A4FD3DBF81F094
:1024A000004141EC180B0824002407E0190350EA0E
:1024B0001130EDD002B051EC180B60E051EC180B6C
:1024C000274A284BFEF78EFD1CD29FED239B51EC33
:1024D000190B53EC182BFEF797FE06460F4653ECEC
:1024E000182B51EC190BFEF7E9FC32463B46FEF780
:1024F00059FAFFF73FFF41EC100B51EC180B53EC6E
:10250000102B1EE00122184BFEF76CFD2ED29FED22
:10251000129B51EC190B53EC182BFEF775FE064677
:102520000F4653EC182B51EC190BFEF7C7FC324643
:102530003B46FEF737FAFFF71DFF84F0020453EC29
:10254000182BFEF75FFB02B02246BDEC048BBDE802
:10255000D040FEF761BD00BF000000000000F03F6A
:10256000CE3B7F669EA0E63F0000F03FFFF77CF980
:102570002121016002B04FF0FF306FF00041BDEC4F
:10258000048BD0BD80B551EC100BFFF76BFF41EC15
:10259000100B01BD00F10103810704D010F8011BED
:1025A00089B18107FAD10268B2F10131914311F08A
:1025B000803F04BF50F8042FF6E710F8011B11B15B
:1025C00010F8011BFBE7C01A704700002DE9F14D20
:1025D00081B006462DED028B88B0884614461F4612
:1025E0000BA800F0A7F805460FB10021396020F0D4
:1025F0000800012835D10220009004AB0B99424617
:10260000304600F02FF9060003D10020CDE902008A
:102610001FE00598FEF734F9CDE90201022E18DB20
:102620000DF11808761E9FED3D8BDDE9022351EC7C
:10263000180BFEF7B7F9824658F8040B8B46FEF7E5
:102640001FF952465B46FEF739FCCDE90201761EC2
:10265000EBD104980219DDE902013B4600F00AFAC9
:1026600044E0022837D1009004AB0B994246304633
:1026700000F0D2FA060003D10020CDE902001FE0ED
:102680000598FEF7FDF8CDE90201022E18DB0DF1E9
:102690001808761E9FED238BDDE9022351EC180B01
:1026A000FEF780F9824658F8040B8B46FEF7E8F8EF
:1026B00052465B46FEF702FCCDE90201761EEBD1E5
:1026C000049902A800F0A8FBDDE902013B4622467E
:1026D00000F0D0F90AE0032802D10020134905E0F8
:1026E000042806D14FF0FF306FF00041CDE9020120
:1026F00002E00020CDE90200280743BFDDE9020126
:1027000081F0004141EC100B9DED020B08B051EC43
:10271000100BBDEC028BBDE8FC8D0000000000003A
:1027200065CDCD41000000000000B0410000F07F09
:1027300000234BE770B402681346002400E05B1CE2
:102740001D78A5F10906052EF9D3202DF7D02D2DE2
:102750000CBF08242B2D00D15B1C1D7845F02006F2
:102760006E2E28D15B1C13F8014B44F02004612C21
:1027700002BF13F8014B44F020046E2C02D0134624
:1027800000224BE01C4604222578282D46D114F85F
:10279000015FA5F161061A2EF9D3A5F141061A2EA3
:1027A00024BF303D0A2DF2D325785F2DEFD0292D9F
:1027B00034D1631C32E0692E33D15B1C13F8015B0A
:1027C00045F020056E2D02BF13F8015B45F0200592
:1027D000662D02D01346002220E01D4644F003027D
:1027E0002C7844F02004692C02BF15F8014F44F006
:1027F00020046E2C12D115F8014F44F02004692CEE
:1028000002BF15F8014F44F02004742C06D115F8CE
:10281000014F44F02004792C08BF6B1CF1B10B6010
:102820001CE0302D02BF597841F02001782913D1E6
:10283000991C0A782E2A08BF491C0978A1F1610267
:10284000062A21BFA1F14102062A30390A2903D202
:102850009B1C44F0020201E044F0010203601046B8
:1028600070BC70472DE9F0478CB00D461499804636
:10287000002001EBC1012E29A8BF2D2100261E60DA
:102880005E6001E06D1C01262F78302FFAD0002702
:102890000DF1000C04E01E68761C1E606D1C012604
:1028A00095F800E0AEF130040A2C05D3BEF12E0FEE
:1028B00008BF6D1C87B90CE0B942ECDBAEF1300605
:1028C00007F80C607F1CE9E71E68761E1E606D1C11
:1028D00001262C78302CF7D02C78A4F1300EBEF1E4
:1028E0000A0F11D3B94225DA00AFCF5D052F06DB01
:1028F00000AFCF1917F8014C641C07F8014C0F46C4
:102900001968491C196015E0B94207DBA4F13006CB
:1029100000AC3E557F1C1E68761E1E606D1C012695
:10292000DAE700A9791811F8011C49B91968491C9E
:1029300019607F1E012FF4DA17B98DF80000012706
:10294000002E5ED04FF0090E97FBFEFEC7F1090C7A
:102950000EEBCE0EE6444FF0090C9EFBFCFC002172
:102960000CEBCC04BEEB04040ED001200CE053F8B9
:10297000204011F80CC004EB84040CEB440443F831
:1029800020400EF1010E491CB9420DDA09249EFBCC
:10299000F4F404EBC4040DF1000CBEEB0404E6D126
:1029A00011F80C40401CEAE7297841F02001652924
:1029B00027D1294615F8017F2B2F16BF2D2F15F88B
:1029C000017B2B270024A646DFF848C009E0E64536
:1029D00005DA0EEB8E0409EB4404A4F1300E6D1CF5
:1029E000012495F80090A9F1300ABAF10A0FEED34C
:1029F0002D2F08BFCEF1000E1F6877441F6004B969
:102A00000D461AB106B1A846C2F800800CB0BDE868
:102A1000F08700BF00E1F50538B505462DED028BC6
:102A20006868C0F30A5040F2FF7143EC182B8842EB
:102A300006D0012806DA284600F078FA012801DBE2
:102A4000002406E06A6840F2FE3161F31E526A60BB
:102A5000441AD5E9000153EC182BFDF7A3FFC5E993
:102A60000001BDEC028B21B22846BDE8344000F0E5
:102A7000D3B90000F8B52DED028B140003B482B079
:102A80001F4600F09080DDE9022300200021FEF7C0
:102A9000E5FF00F088809FED478B002C40D5644215
:102AA0000FF22C1508260CE0E00707D5D5E9000148
:102AB00053EC182BFDF776FF41EC180B6408083532
:102AC000761E002C18BF002EEED102A900A800F03F
:102AD0004EFADDE9020153EC182BFEF793F8CDE92D
:102AE0000201BDF9001002A800F096F905004DD5CD
:102AF000002C4DD002A900A800F039FADDE902014E
:102B00002E4A2F4BFDF74EFFCDE90201BDF9001013
:102B100002A800F081F9050038D5641EEAD137E03B
:102B2000012C33DB0FF2A8050826E00707D5D5E90D
:102B3000000153EC182BFDF735FF41EC180B641026
:102B40000835761E012C01DB002EEED153EC182B3C
:102B500002A8FFF761FF050018D5012C18DB02A9B8
:102B600000A800F004FADDE90201164A164BFDF751
:102B700019FFCDE90201BDF9001002A800F04CF9DF
:102B8000050003D5641E012CE9DA01E02DB20DB178
:102B9000012D08D1FEF768FE222101601FB13868BF
:102BA00040F001003860DDE9020104B0BDEC028BA9
:102BB000F4BD0000000000000000F03F436FAC6473
:102BC0002806C80A3CBF737FDD4F15750000000062
:102BD00000000000000024400000000000005940F8
:102BE000000000000088C3400000000084D7974127
:102BF0000080E03779C34143176E05B5B5B89346F9
:102C0000F5F93FE9034F384D321D30F94877825AC4
:102C10003CBF737FDD4F15752DE9F54F8BB0002557
:102C20001698C0EBC0080E461C46B8F1240FA8BF8A
:102C30004FF0230825606560002701E0761C01271E
:102C400030783028FAD00FF2A01AA946CDF800A0AB
:102C50000DF1040B04E02068401C2060761C012765
:102C600031781622504600F0ADF958B1C845F2DB74
:102C70000099401A0FF28811405C09F80B0009F125
:102C80000109EBE730782E2808BF761CB9F1000F58
:102C900008D104E02068401E2060761C01273078AF
:102CA0003028F7D031781622504600F08BF988B1E1
:102CB000C8450CDBA0EB0A000FF24411405C01A9EF
:102CC00009F8010009F101092068401E2060761C06
:102CD0000127E7E7C8451ADA01A818F80000082814
:102CE00006DB01A8404410F8011C491C00F8011C37
:102CF000C1462068401C206009E001A8484410F843
:102D0000010C70B92068401C2060A9F10109B9F1DB
:102D1000010FF2DAB9F1000F04BF8DF804504FF043
:102D20000109206880002060002F52D0072299FB03
:102D3000F2F2C9F10701C2EBC2025118072291FB5E
:102D4000F2F20020C2EBC2028A1A05D0012503E08C
:102D500044F82520491C401C48450EDA072391FB06
:102D6000F3F310F80B20C3EBC303CB1A0EBF6D1C9B
:102D700054F8253002EB0312EAE7307840F02000E7
:102D8000702826D1304616F8011F2B2916BF2D2991
:102D900016F8011B2B2100220023DFF848C009E0B0
:102DA000634505DA03EB83020EEB4202A2F1300326
:102DB000761C012296F800E0AEF13008B8F10A0F57
:102DC000EED32D2908BF5B4221685918216002B952
:102DD00006460C9810B107B90B9E066028460DB048
:102DE000BDE8F08F00E1F505303132333435363748
:102DF0003839616263646566414243444546000078
:102E0000000102030405060708090A0B0C0D0E0F4A
:102E10000A0B0C0D0E0F000070B504460D466068DD
:102E2000C0F30A5040F2FF71884207D16068000386
:102E300004BF2068002817D0022070BD20B92046AA
:102E400000F074F8012867DA012D0FDB40F2FF7102
:102E5000091A8D420AD3606800284CBF9FED2F0BE2
:102E60009FED300B84ED000B012070BD4142A94263
:102E7000616806DA6FF31E51401941EA0050606044
:102E800041E0401E63680122451962F31F5305F1BA
:102E9000350001F000416360352803D361600020F4
:102EA000206070BD002215F11F0F04DA2268236034
:102EB000002020356060684213D0521E2568924180
:102EC000C0F12003D2439D4045EAD272256866686E
:102ED000C54006FA03F32B432360636823FA00F02E
:102EE0006060606808436060B2F1004F03D80DD1A4
:102EF0002078C0070AD52068401C2060206828B9C7
:102F00006068401C60604FF0FF3070BD60688842B0
:102F100004BF20680028F6D1002070BD000000002A
:102F20000000F0FF000000000000F07F30B44368B4
:102F300003F0004201211B031B0B436004BF036825
:102F4000002B08D10DE00368DD0F45EA440444601E
:102F50005B000360491E4468E302F4D523031B0BA6
:102F6000436043681A434260084630BC704738B536
:102F70000C4605466068C0F30A5040F2FF71884273
:102F80000BD1002028806068000304BF206800285F
:102F900001D0022032BD012032BD012804DA2046D2
:102FA000FFF7C4FF01280ADA626840F2FE3161F3DC
:102FB0001E526260401A28804FF0FF3032BD002060
:102FC000288032BDC9B2830706D0521E22D310F822
:102FD000013B9942F7D11FE0083A13D302F10402F2
:102FE00041EA012141EA014150F8043B121F21BF8F
:102FF0004B40A3F1013C2CEA030C1CF0803FF3D0C2
:10300000C9B2001F083210F8013B521E28BF91EAD6
:10301000030FF8D818BF0120401E704780B516482E
:10302000006850F00100144908601448006850F02E
:103030000200124908601148006850F001000F4971
:103040000860FEF7F5FDFEF73DFEFEF71BFEFEF7FE
:103050003FFE0B4880ED000AFEF7DFFE09490870CD
:10306000084890F9000010F1010FECD164214620CE
:10307000FEF7DCFEE7E700BF0038024030380240D0
:10308000300100203C01002010B507497944183177
:10309000064C7C44163404E00A68081D5118884721
:1030A0000146A142F8D110BD080000002800000030
:1030B0009BDDFFFFC40000007C000020000000003A
:1030C00087DAFFFF7C0000005801000000000020AC
:1030D0000000000024505542582C34302C565447E0
:1030E0002C302C302C302C302C302C302A35450D07
:1030F0000A00000024505542582C34302C524D43C5
:103100002C302C302C302C302C302C302A34370DF5
:103110000A00000024505542582C34302C474741B7
:103120002C302C302C302C302C302C302A35410DCA
:103130000A00000024505542582C34302C4753418B
:103140002C302C302C302C302C302C302A34450DA7
:103150000A00000024505542582C34302C47535656
:103160002C302C302C302C302C302C302A35390D92
:103170000A00000024505542582C34302C474C4C47
:103180002C302C302C302C302C302C302A35430D68
:103190000A00000024505542582C34302C474C4C27
:1031A0002C312C312C312C312C312C312A35430D42
:1031B0000A0000004EF68851CEF20001086840F483
:1031C000700008604FF00070E1EE100A70470000D8
:1031D00000F00BF8002801D0FFF756FF0020C04692
:1031E000C046FFF71BFF00F002F80120704700F017
:1031F00001B800000746384600F002F8FBE700007F
:1032000080B5C046C046024A11001820ABBEFBE79D
:1032100026000200C046C046FFF7CCFFFFF7D8FFEC
:103220000000803F0000803F0000803F0010014010
:103230000100000080250000004400400100000063
:10324000009600000009020000010700000A0200C9
:103250000001070000020200000107000003020055
:10326000000107000107020101010400010602013B
:10327000010104000054004000000000D4300008A8
:10328000F4300008143100083431000854310008CB
:0C329000743100089431000800000000B8
:0400000508003215A8
:00000001FF
