:020000040800F2
:1000000098200020811800081F0900081F09000817
:100010001F0900081F0900081F0900080000000050
:100020000000000000000000000000001F090008A0
:100030001F090008000000001F0900081F09000830
:10004000F0B540F2FF7581EA030C0CF0004C15EAA4
:1000500011541DBF15EA1357AC42AF42E5E0BC4155
:10006000C1F31301C3F31303801A994143F48013BE
:1000700004D2641E4000494180185941C90241EA36
:100080005051B1FBF3F603FB1611A2FB0675D7EB3B
:10009000C020A94102D2761E80185941C90241EA06
:1000A0005051B1FBF3FE03FB1E11A2FB0E75D7EB03
:1000B000C020A94103D2AEF1010E80185941890236
:1000C00041EA9051760546EA8E2EB1FBF3F603FB2A
:1000D0001611A2FB0675D7EB8020A94102D2761E2D
:1000E00080185941C90241EA50514EEA060EB1FB4F
:1000F000F3F603FB1611A2FB0675D7EBC020A9414E
:1001000002D2761E80185941C90241EA5051B1FB12
:10011000F3F703FB1711A2FB0735D3EBC020A9416E
:1001200067F100070CBF004247F0010766F3D527CF
:100130004FEA1E31B80814F5806412DDBD0775F171
:10014000004250EB0E5051EB045111F5801F5CBF83
:1001500041EA0C01F0BD4CF07F6141F0E04100202C
:10016000F0BDBD076D0840EA0E5041F48011D4F196
:100170000104B4F120060ADAC4F120060200E040CE
:1001800001FA06F3E1401843B24015430EE0342C67
:1001900013DCC6F1200445EA40056D0820FA06F29A
:1001A000154321FA06F0A1400D43002175F10042EC
:1001B00050F1000051EB0C01F0BD00205FEA0C0192
:1001C000F0BDCFB992185B41B3FA83F704BFB2FA1E
:1001D00082F6BF190B3FB7F120062FBF02FA06F3D4
:1001E000BB40C7F1200622FA06F638BF3343BA40B7
:1001F0001CB1E419641E33E77F4231F00041B1FACB
:1002000081F404BFB0FA80F6A4190B3CB4F12006C7
:100210002FBF00FA06F1A140C4F1200620FA06F62D
:1002200038BF3143A0403C1B1AE7AC421ABF05EA75
:100230001357AF4212E050EA41061CBF52EA430690
:10024000BFE750EA4107304661461CBF41EA05510D
:10025000F0BD52EA430C08BFC143F0BD00204FF48B
:10026000001616EB410F98BF16EB430F08BF16EBB5
:10027000410F24BFC14305E016EB430F0CBF61469D
:100280004CEA0551F0BD10B450F8041B81B102686E
:100290001218001D50F8043BDC0744BFA9F101040B
:1002A000E31852F8044B43F8044B091FF9D1EBE76C
:1002B00010BC70472DE9F54F8BB000251698C0EBA8
:1002C000C0080E461C46B8F1240FA8BF4FF0230803
:1002D00025606560002701E0761C01273078302812
:1002E000FAD00FF2A01AA946CDF800A00DF1040B28
:1002F00004E02068401C2060761C0127317816221B
:10030000504600F0D7F858B1C845F2DB0099401AC2
:100310000FF28811405C09F80B0009F10109EBE7C5
:1003200030782E2808BF761CB9F1000F08D104E000
:100330002068401E2060761C012730783028F7D0D6
:1003400031781622504600F0B5F888B1C8450CDB6C
:10035000A0EB0A000FF24411405C01A909F801006A
:1003600009F101092068401E2060761C0127E7E79B
:10037000C8451ADA01A818F80000082806DB01A809
:10038000404410F8011C491C00F8011CC1462068BB
:10039000401C206009E001A8484410F8010C70B925
:1003A0002068401C2060A9F10109B9F1010FF2DABF
:1003B000B9F1000F04BF8DF804504FF00109206817
:1003C00080002060002F52D0072299FBF2F2C9F181
:1003D0000701C2EBC2025118072291FBF2F2002082
:1003E000C2EBC2028A1A05D0012503E044F8252099
:1003F000491C401C48450EDA072391FBF3F310F823
:100400000B20C3EBC303CB1A0EBF6D1C54F8253071
:1004100002EB0312EAE7307840F02000702826D182
:10042000304616F8011F2B2916BF2D2916F8011B7F
:100430002B2100220023DFF848C009E0634505DADC
:1004400003EB83020EEB4202A2F13003761C012281
:1004500096F800E0AEF13008B8F10A0FEED32D297E
:1004600008BF5B4221685918216002B906460C9802
:1004700010B107B90B9E066028460DB0BDE8F08F9D
:1004800000E1F505303132333435363738396162C1
:10049000636465664142434445460000000102032F
:1004A0000405060708090A0B0C0D0E0F0A0B0C0DAC
:1004B0000E0F0000C9B2830706D0521E22D310F8D7
:1004C000013B9942F7D11FE0083A13D302F104022D
:1004D00041EA012141EA014150F8043B121F21BFCA
:1004E0004B40A3F1013C2CEA030C1CF0803FF3D0FD
:1004F000C9B2001F083210F8013B521E28BF91EA12
:10050000030FF8D818BF0120401E704700100140AB
:10051000010000008025000038B505462DED028B56
:100520006868C0F30A5040F2FF7143EC182B884210
:1005300006D0012806DA284600F0EEF8012801DB93
:10054000002406E06A6840F2FE3161F31E526A60E0
:10055000441AD5E9000153EC182B00F00FF9C5E956
:100560000001BDEC028B21B22846BDE8344000F00A
:10057000D7B90000F8B52DED028B140003B482B09A
:100580001F4600F09080DDE902230020002100F0EA
:1005900051FA00F088809FED478B002C40D56442D3
:1005A0000FF22C1508260CE0E00707D5D5E900016D
:1005B00053EC182B00F0E2F841EC180B64080835F6
:1005C000761E002C18BF002EEED102A900A800F064
:1005D00041FADDE9020153EC182BFFF731FDCDE9BB
:1005E0000201BDF9001002A800F09AF905004DD5EE
:1005F000002C4DD002A900A800F02CFADDE9020180
:100600002E4A2F4B00F0BAF8CDE90201BDF90010D7
:1006100002A800F085F9050038D5641EEAD137E05C
:10062000012C33DB0FF2A8050826E00707D5D5E932
:10063000000153EC182B00F0A1F841EC180B6410EA
:100640000835761E012C01DB002EEED153EC182B61
:1006500002A8FFF761FF050018D5012C18DB02A9DD
:1006600000A800F0F7F9DDE90201164A164B00F088
:1006700085F8CDE90201BDF9001002A800F050F99B
:10068000050003D5641E012CE9DA01E02DB20DB19D
:10069000012D08D100F00AFA222101601FB138684B
:1006A00040F001003860DDE9020104B0BDEC028BCE
:1006B000F4BD0000000000000000F03F436FAC6498
:1006C0002806C80A3CBF737FDD4F15750000000087
:1006D000000000000000244000000000000059401D
:1006E000000000000088C3400000000084D797414C
:1006F0000080E03779C34143176E05B5B5B893461E
:10070000F5F93FE9034F384D321D30F94877825AE9
:100710003CBF737FDD4F157530B4436803F0004272
:1007200001211B031B0B436004BF0368002B08D18E
:100730000DE00368DD0F45EA440444605B0003609C
:10074000491E4468E302F4D523031B0B436043684E
:100750001A434260084630BC704750F8041B61B130
:1007600050F8042BD30744BFA9F101039A180023C2
:1007700042F8043B091FFAD1EFE77047B0B581EAB0
:10078000030C0CF0004C40F2FF7515EA11541DBF2C
:1007900015EA1357AC42AF4239E0E41923EA455356
:1007A00043F48013C90241F0004141EA505EC702A0
:1007B0001100A7FB020200284FF00000EEFB012011
:1007C0004FF00001E3FB072118BF42F0010240187F
:1007D00000214941E3FB0E01A4F580640F0302D21E
:1007E00052004041494154F101046CDD470872F167
:1007F000004250F1000051EB0451A1F580115CBFA3
:1008000041EA0C01B0BD4CEA05510020B0BD05EA3B
:100810001357AC4214BFAF4241E050EA410E1CBF37
:1008200052EA430E02E061460020B0BD24423C443F
:100830001BD15FEA070EF6D0090302BF0146002074
:10084000AEF1140EB1FA81F7AEEB070401FA07FE20
:100850000C37C7F1200100FA07F7C8404EEA000E36
:1008600023EA455343F48013A2E733F00043B3FA7D
:1008700083F704BFB2FA82FE77440B3FE41BB7F163
:10088000200E2FBF02FA0EF3BB40C7F1200E22FA52
:100890000EFE38BF43EA0E03BA40641C82E750EAFA
:1008A000410E14BF52EA430E6FF000014FF40017DF
:1008B00017EB430F8ABF194617EB410FB5E74CEA18
:1008C00005510020B0BDD4F10104B4F120070FDAC6
:1008D000C4F12007520828BF42F0010210FA07F5C0
:1008E00001FA07F7E1BF2A43E0403843E1400FE057
:1008F000352C98DCC7F1200452EA400220FA07F2B6
:1009000018BF42F0010231FA07F0A1400A4300216A
:1009100072F1004250F1000051EB0C01B0BDFEE756
:1009200070B504460D466068C0F30A5040F2FF718E
:10093000884207D16068000304BF2068002817D0F0
:10094000022070BD20B92046FFF7E6FE012867DAD5
:10095000012D0FDB40F2FF71091A8D420AD3606846
:1009600000284CBF9FED2F0B9FED300B84ED000B4B
:10097000012070BD4142A942616806DA6FF31E5141
:10098000401941EA0050606041E0401E6368012266
:10099000451962F31F5305F1350001F00041636012
:1009A000352803D361600020206070BD002215F15E
:1009B0001F0F04DA2268236000202035606068423F
:1009C00013D0521E25689241C0F12003D2439D40AE
:1009D00045EAD27225686668C54006FA03F32B43E0
:1009E0002360636823FA00F0606060680843606019
:1009F000B2F1004F03D80DD12078C0070AD5206886
:100A0000401C2060206828B96068401C60604FF07E
:100A1000FF3070BD6068884204BF20680028F6D1AE
:100A2000002070BD000000000000F0FF000000008A
:100A30000000F07F90420CD141EA030C50EA4C0CCC
:100A400007D0994205D14FF4001C1CEB410F38BF71
:100A50008942704738B50C4605466068C0F30A50B5
:100A600040F2FF7188420BD10020288060680003AB
:100A700004BF2068002801D0022032BD012032BD11
:100A8000012804DA2046FFF747FE01280ADA6268E7
:100A900040F2FE3161F31E526260401A28804FF02E
:100AA000FF3032BD0020288032BD0000014800F038
:100AB00003B800001C000020704700002DE9F0473B
:100AC0008CB00D4614998046002001EBC1012E29FF
:100AD000A8BF2D2100261E605E6001E06D1C01266E
:100AE0002F78302FFAD000270DF1000C04E01E689B
:100AF000761C1E606D1C012695F800E0AEF13004F6
:100B00000A2C05D3BEF12E0F08BF6D1C87B90CE06F
:100B1000B942ECDBAEF1300607F80C607F1CE9E768
:100B20001E68761E1E606D1C01262C78302CF7D0B6
:100B30002C78A4F1300EBEF10A0F11D3B94225DA98
:100B400000AFCF5D052F06DB00AFCF1917F8014CC2
:100B5000641C07F8014C0F461968491C196015E020
:100B6000B94207DBA4F1300600AC3E557F1C1E687D
:100B7000761E1E606D1C0126DAE700A9791811F8AF
:100B8000011C49B91968491C19607F1E012FF4DA4C
:100B900017B98DF800000127002E5ED04FF0090E26
:100BA00097FBFEFEC7F1090C0EEBCE0EE6444FF0AC
:100BB000090C9EFBFCFC00210CEBCC04BEEB0404F6
:100BC0000ED001200CE053F8204011F80CC004EBCB
:100BD00084040CEB440443F820400EF1010E491C40
:100BE000B9420DDA09249EFBF4F404EBC4040DF1C0
:100BF000000CBEEB0404E6D111F80C40401CEAE7FF
:100C0000297841F02001652927D1294615F8017F6F
:100C10002B2F16BF2D2F15F8017B2B270024A6465E
:100C2000DFF848C009E0E64505DA0EEB8E0409EB73
:100C30004404A4F1300E6D1C012495F80090A9F134
:100C4000300ABAF10A0FEED32D2F08BFCEF1000EF5
:100C50001F6877441F6004B90D461AB106B1A84653
:100C6000C2F800800CB0BDE8F08700BF00E1F505D8
:100C700080B55B48006800F015F85A48006800F03D
:100C800011F85948006800F00DF85848006800F065
:100C900009F85748006800F005F85648006800F069
:100CA00001F801BD80B501005348006800F02EF93D
:100CB00001BD51490860704780B550480068FFF792
:100CC000F1FF4F494C48006800F030F9494800688E
:100CD000FFF7E8FF00F001F801BD80B52DED028BB4
:100CE000474800F03FF94649401810F8060C5628CE
:100CF00072D0444800F051F9434880ED000B43485E
:100D000000F04BF9424880ED000B3F484168006815
:100D10000022404BFFF794F900F05EF900F07CF9F7
:100D200041EC180B53EC182B00203A49FFF726FD35
:100D300002000B0034484168006800F07BF9002293
:100D4000354BFFF77DF953EC182B00F033FA2E4AA0
:100D5000C2E900012E484168006800222D4BFFF7D0
:100D60006FF900F039F900F057F941EC180B53EC2A
:100D7000182B00202749FFF701FD02000B00244833
:100D80004168006800F056F90022234BFFF758F93C
:100D900053EC182B00F00EFA1D4AC2E90001184866
:100DA000807C532809D11848D0E9002300201B4932
:100DB000FFF7E4FC144AC2E90001114890F8200052
:100DC000572809D11248D0E9002300201349FFF722
:100DD000D5FC0F4AC2E90001BDEC028B01BD000049
:100DE0000000002004000020080000200C0000206B
:100DF00010000020140000208400002018000020B3
:100E0000200000202700002088000020340000205F
:100E1000900000200000594000004E400000F0BF4C
:100E200038B504002F48006850F010002D490860C4
:100E300000202168C8602068C06850F40050216814
:100E4000C8602068C068617950EA01302168C860D4
:100E500020680069A17950EA01302168086100200A
:100E600021688860A068000100EE100AB8EE400A10
:100E7000DFED1B0A80EE800AFDEEC00A10EE905AEC
:100E8000ADB200EE905AF8EE600A30EE600AF3EE72
:100E9000000A20EE200A10EE100A00F0FFF90022EE
:100EA000114B00F087F900F081F821688968ADB234
:100EB00051EA05112268916021688968C0B208432F
:100EC000216888602068C06850F008002168C86008
:100ED0002068C06850F004002168C86031BD00007F
:100EE0000024744B443802400000E03F026812784E
:100EF0001206FBD5C9B200684160704701680978E5
:100F00008906FBD500684068C0B2704770B5040020
:100F10000D00002605E0F6B2715D2000FFF7E6FF48
:100F2000761CF6B2705D0028F5D170BD70B5040076
:100F30000D0000262000FFF7E1FFF6B2705505E036
:100F4000761C2000FFF7DAFFF6B27055F6B2705D3E
:100F50000D28F5D12000FFF7D1FF0020F6B2705523
:100F600070BD000000F10103810704D010F8011BDF
:100F700089B18107FAD10268B2F10131914311F0D0
:100F8000803F04BF50F8042FF6E710F8011B11B1A1
:100F900010F8011BFBE7C01A704780B50022002142
:100FA00000F056FA41EC100B01BD0000F446400D74
:100FB00040EAC120490006D200F014F8004248BFC0
:100FC0006FF00040604700F00DF84FF0004188429C
:100FD0008CBF084640426047400D40EAC1204900AE
:100FE00080F00D8040F00040490DA1F58061491C62
:100FF00005D4D1F11F0154BFC840C01770474FF04E
:1010000000007047010040F10980F446404200F0C2
:1010100005F851F000416047010000BF09D0B0FA67
:1010200080F18840C91CC1F58461090501EBD0211C
:101030004005704770B44FF0004591EA030F44BF7C
:101040006B4000F0C1B800BF841A71EB030604D2F4
:101050006E40001BB141121973414FF4001C1CEB90
:10106000410F34BF7CEB430684E00C0DA4EB135618
:10107000362E7DDC012E43DC45EAC32343EA52537E
:1010800012BFD20292025B08240545EAC12141EA5F
:101090005051D2EBC020994125D407D1B0FA80F647
:1010A00010FA06F164D00020203608E0B1FA81F68B
:1010B000B140C6F1200220FA02F21143B0404FEADB
:1010C000F474B4EB465434F001064FEA74040AD8C1
:1010D000D6F50016760D04F00044F04061FA06F2F1
:1010E0005040F1404840C00A40EA415021F00041E0
:1010F00028BF5FEA500550F1000044EBD12137E0F2
:1011000045EAC323DB0A45EAC121C90AB6F1200535
:101110000EDD42EA0242120CC5F1200603FA06F681
:10112000EB4042EA06056D42984161F100010DE095
:1011300062FA06F5F240554063FA06FC82EA0C02B8
:10114000F3405A406D42904161EB030111F4801F5E
:1011500005D1641E620502D06D004041494121F471
:101160008011430875F1004350F1000041EB045138
:1011700070BC70471CEB410F15D223F0004352EABC
:1011800043060BD04FEA4C0CBCEB410F04D80C0DBE
:10119000661E342EB7DDEBE7801A994150EA41060E
:1011A00008BF0021E4E708BF1CEB430F28BF6FF026
:1011B0000001DDE770B44FF0004591EA030C44BF35
:1011C0006B40FFF741BF00BF841A71EB030603D2E7
:1011D000001BB141121973414FF4001C1CEB410F6D
:1011E00034BF7CEB430443E00C0DA4EB1356352EC7
:1011F00050DC45EAC323DB0A45EAC121C912B6F136
:1012000020050DDD63FA05F6EB4086EA0305124280
:1012100018BF45F00105C01851F100010CD213E0D0
:1012200062FA06F5F2405540F3415A40B340F340AC
:101230005A408018594107D349085FEA30005FEAF5
:10124000350528BF45F0010501F58011420875F10B
:10125000004250F1000041EB045170BC4FF4001CFF
:101260001CEB410F38BF70470020090D090570477E
:101270001CEB410F10D252EA43060BD0BCEB410FDE
:1012800005D80C0DAB43661E342EB5DD02E0AB4332
:101290008018594170BC704770BC70475FF0FF0CFC
:1012A0001CEAD05114BF614506E0C110400721F08F
:1012B000E04101F16051704779B900F0004100024E
:1012C0000AD0B0FA80FC00FA0CF001F16051A1EBF9
:1012D0000C5101EBD0214005704741020CBF40F496
:1012E000E0016FF000010020704700002DE9F14D92
:1012F00081B006462DED028B88B0884614461F4605
:101300000BA800F0A7F805460FB10021396020F0C6
:101310000800012835D10220009004AB0B99424609
:101320003046FFF7CBFB060003D10020CDE90200D9
:101330001FE00598FFF766FECDE90201022E18DBDB
:101340000DF11808761E9FED3D8BDDE9022351EC6F
:10135000180BFFF713FA824658F8040B8B46FFF779
:1013600051FE52465B46FFF725FFCDE90201761E8E
:10137000EBD104980219DDE902013B46FFF7FAF8C8
:1013800044E0022837D1009004AB0B994246304626
:10139000FEF790FF060003D10020CDE902001FE018
:1013A0000598FFF72FFECDE90201022E18DB0DF1A3
:1013B0001808761E9FED238BDDE9022351EC180BF4
:1013C000FFF7DCF9824658F8040B8B46FFF71AFE4C
:1013D00052465B46FFF7EEFECDE90201761EEBD1E9
:1013E000049902A8FFF79CFADDE902013B46224678
:1013F000FFF7C0F80AE0032802D10020134905E0F6
:10140000042806D14FF0FF306FF00041CDE9020112
:1014100002E00020CDE90200280743BFDDE9020118
:1014200081F0004141EC100B9DED020B08B051EC36
:10143000100BBDEC028BBDE8FC8D0000000000002D
:1014400065CDCD41000000000000B0410000F07FFC
:1014500000234BE770B402681346002400E05B1CD5
:101460001D78A5F10906052EF9D3202DF7D02D2DD5
:101470000CBF08242B2D00D15B1C1D7845F02006E5
:101480006E2E28D15B1C13F8014B44F02004612C14
:1014900002BF13F8014B44F020046E2C02D0134617
:1014A00000224BE01C4604222578282D46D114F852
:1014B000015FA5F161061A2EF9D3A5F141061A2E96
:1014C00024BF303D0A2DF2D325785F2DEFD0292D92
:1014D00034D1631C32E0692E33D15B1C13F8015BFD
:1014E00045F020056E2D02BF13F8015B45F0200585
:1014F000662D02D01346002220E01D4644F0030270
:101500002C7844F02004692C02BF15F8014F44F0F8
:1015100020046E2C12D115F8014F44F02004692CE0
:1015200002BF15F8014F44F02004742C06D115F8C1
:10153000014F44F02004792C08BF6B1CF1B10B6003
:101540001CE0302D02BF597841F02001782913D1D9
:10155000991C0A782E2A08BF491C0978A1F161025A
:10156000062A21BFA1F14102062A30390A2903D2F5
:101570009B1C44F0020201E044F0010203601046AB
:1015800070BC704710B400210278002A03D0022AF0
:1015900005D002D304E0364902E0364900E036497E
:1015A0000A6803234478E4B26400A3409A430A60C3
:1015B0000A6883784478E4B26400A3401A430A605E
:1015C0004A68012390F90140A3409A434A604A685F
:1015D000C37890F90140A3401A434A60CA680323C4
:1015E0004478E4B26400A3409A43CA60CA680379AD
:1015F0004478E4B26400A3401A43CA604A690123F4
:1016000090F90140A3409A434A614A69437990F9AD
:101610000140A3401A434A618279FF2A26D04278CA
:10162000082A11DA0A6A0F234478E4B2A400A3401E
:101630009A430A620A6A83794078C0B2800013FA3A
:1016400000F01043086211E04A6A0F234478E4B2C4
:10165000A400A3409A434A624A6A837940780838D2
:10166000C0B2800013FA00F01043486210BC70470B
:1016700000000240000402400008024010B588B09B
:101680001748006850F001001549086015480068C7
:1016900050F00100134908601348D0E90023CDE958
:1016A00002231248D0E90023CDE9002302A8FFF766
:1016B00069FF00A8FFF766FF04A80D491CC91CC0FC
:1016C0000C390C3804A8FFF7ABFB04A8FFF7F1FABC
:1016D000FFF7CEFAFFF7F0FAFFF7EEFAFAE700BFEE
:1016E00000380240303802408C1800089418000876
:1016F0000C05000810B5074979441831064C7C44A4
:10170000163404E00A68081D511888470146A142B2
:10171000F8D110BD08000000280000003FF0FFFFD6
:101720007800000020000020000000005BEBFFFFBD
:101730002000000068010000000000200000000000
:1017400024505542582C34302C5654472C302C30D1
:101750002C302C302C302C302A35450D0A0000005E
:1017600024505542582C34302C524D432C302C30C0
:101770002C302C302C302C302A34370D0A0000004D
:1017800024505542582C34302C4747412C302C30B3
:101790002C302C302C302C302A35410D0A00000022
:1017A00024505542582C34302C4753412C302C3087
:1017B0002C302C302C302C302A34450D0A000000FF
:1017C00024505542582C34302C4753562C302C3052
:1017D0002C302C302C302C302A35390D0A000000EA
:1017E00024505542582C34302C474C4C2C302C3043
:1017F0002C302C302C302C302A35430D0A000000C0
:1018000024505542582C34302C474C4C2C312C3120
:101810002C312C312C312C312A35430D0A0000009B
:101820004EF68851CEF20001086840F4700008605E
:101830004FF00070E1EE100A7047000000F00BF866
:10184000002801D0FFF756FF0020C046C046FFF732
:1018500015FF00F002F80120704700F001B8000009
:101860000746384600F002F8FBE7000080B5C046A6
:10187000C046024A11001820ABBEFBE7260002005A
:10188000C046C046FFF7CCFFFFF7D8FF00090200B3
:1018900000010700000A02000001070040170008CD
:1018A0006017000880170008A0170008C01700087C
:0C18B000E017000800180008000000000D
:040000050800188156
:00000001FF
