:020000040800F2
:1000000010200020AD0600088B0600088B060008B3
:100010008B0600088B0600088B0600080000000015
:100020000000000000000000000000008B06000837
:100030008B060008000000008B0600088B060008F5
:10004000841A71EB030604D26E40001BB1411219F1
:1000500073414FF4001C1CEB410F34BF7CEB430693
:1000600084E00C0DA4EB1356362E7DDC012E43DC10
:1000700045EAC32343EA525312BFD20292025B08FD
:10008000240545EAC12141EA5051D2EBC0209941F3
:1000900025D407D1B0FA80F610FA06F164D000201A
:1000A000203608E0B1FA81F6B140C6F1200220FA0C
:1000B00002F21143B0404FEAF474B4EB465434F00A
:1000C00001064FEA74040AD8D6F50016760D04F03E
:1000D0000044F04061FA06F25040F1404840C00A46
:1000E00040EA415021F0004128BF5FEA500550F13D
:1000F000000044EBD12137E045EAC323DB0A45EA9F
:10010000C121C90AB6F120050EDD42EA0242120CF5
:10011000C5F1200603FA06F6EB4042EA06056D42F9
:10012000984161F100010DE062FA06F5F240554098
:1001300063FA06FC82EA0C02F3405A406D42904199
:1001400061EB030111F4801F05D1641E620502D02A
:100150006D004041494121F48011430875F100438D
:1001600050F1000041EB045170BC70471CEB410F93
:1001700015D223F0004352EA43060BD04FEA4C0C51
:10018000BCEB410F04D80C0D661E342EB7DDEBE737
:10019000801A994150EA410608BF0021E4E708BFF0
:1001A0001CEB430F28BF6FF00001DDE738B50400FA
:1001B0002F48006850F010002D4908600020216889
:1001C000C8602068C06850F400502168C86020688A
:1001D000C068617950EA01302168C8602068006910
:1001E000A17950EA01302168086100202168886007
:1001F000A068000100EE100AB8EE400ADFED1B0A0D
:1002000080EE800AFDEEC00A10EE905AADB200EE0C
:10021000905AF8EE600A30EE600AF3EE000A20EE23
:10022000200A10EE100A00F03FF80022114B00F0F7
:1002300073F800F0E5F821688968ADB251EA05115C
:100240002268916021688968C0B20843216888608B
:100250002068C06850F008002168C8602068C06845
:1002600050F004002168C86031BD00000024744BC8
:10027000443802400000E03F026812781206FBD5C5
:10028000C9B200684160704770B504000D000026D7
:1002900005E0F6B2715D2000FFF7EEFF761CF6B2C6
:1002A000705D0028F5D170BD5FF0FF0C1CEAD051E5
:1002B00014BF614506E0C110400721F0E04101F1A3
:1002C0006051704779B900F0004100020AD0B0FADD
:1002D00080FC00FA0CF001F16051A1EB0C5101EB34
:1002E000D0214005704741020CBF40F4E0016FF09F
:1002F00000010020704750F8041B61B150F8042B36
:10030000D30744BFA9F101039A18002342F8043B24
:10031000091FFAD1EFE7704770B44FF0004591EA3A
:10032000030C44BF6B40FFF78BBE00BF841A71EB18
:10033000030603D2001BB141121973414FF4001C94
:100340001CEB410F34BF7CEB430443E00C0DA4EBEA
:100350001356352E50DC45EAC323DB0A45EAC1219A
:10036000C912B6F120050DDD63FA05F6EB4086EA09
:100370000305124218BF45F00105C01851F10001F4
:100380000CD213E062FA06F5F2405540F3415A40B0
:10039000B340F3405A408018594107D349085FEAF7
:1003A00030005FEA350528BF45F0010501F58011F1
:1003B000420875F1004250F1000041EB045170BC5D
:1003C0004FF4001C1CEB410F38BF70470020090D93
:1003D000090570471CEB410F10D252EA43060BD0BF
:1003E000BCEB410F05D80C0DAB43661E342EB5DDBA
:1003F00002E0AB438018594170BC704770BC704735
:10040000F446400D40EAC120490006D200F00EF843
:10041000004248BF6FF00040604700F007F84FF01F
:10042000004188428CBF08464042604740F000408F
:10043000490DA1F58061491C05D4D1F11F0154BFBC
:10044000C840C01770474FF00000704710B400213B
:100450000278002A03D0022A05D002D304E03649EC
:1004600002E0364900E036490A6803234478E4B2E2
:100470006400A3409A430A600A6883784478E4B22F
:100480006400A3401A430A604A68012390F90140BE
:10049000A3409A434A604A68C37890F90140A34058
:1004A0001A434A60CA6803234478E4B26400A34054
:1004B0009A43CA60CA6803794478E4B26400A340EE
:1004C0001A43CA604A69012390F90140A3409A4344
:1004D0004A614A69437990F90140A3401A434A614D
:1004E0008279FF2A26D04278082A11DA0A6A0F2375
:1004F0004478E4B2A400A3409A430A620A6A83796A
:100500004078C0B2800013FA00F01043086211E096
:100510004A6A0F234478E4B2A400A3409A434A6293
:100520004A6A837940780838C0B2800013FA00F034
:100530001043486210BC70470000024000040240B3
:100540000008024000B585B01D48006850F0010069
:100550001B4908601B48006850F0020019490860F8
:100560001848006850F00100164908601648D0E9A4
:100570000023CDE903231548D0E90023CDE9012369
:1005800003A8FFF763FF01A8FFF760FF104800888A
:10059000ADF800000F4800F021F8002000E0401CFA
:1005A0000D498842FBD300A800F02CF800A800F009
:1005B00029F8002008498842F8D2401CFAE700BF19
:1005C0000038024030380240B8060008C006000873
:1005D00066060008001001400024F40080B50C49B4
:1005E000086001200A49087100200949487100206B
:1005F000074988714FF41640054988600448FFF7A1
:10060000D5FD01BD80B501000148FFF73DFE01BDEC
:100610000000002010B5074979441831064C7C448D
:10062000163404E00A68081D511888470146A142A3
:10063000F8D110BD0800000014000000BBFCFFFF53
:100640000C00000000000020000000004EF6885161
:10065000CEF20001086840F4700008604FF00070AE
:10066000E1EE100A7047730000F00BF8002801D08B
:10067000FFF7D0FF0020C046C046FFF763FF00F041
:1006800002F80120704700F001B8FEE7074638463F
:1006900000F002F8FBE7000080B5C046C046024A01
:1006A00011001820ABBEFBE726000200C046C04682
:1006B000FFF7CCFFFFF7D8FF000A02000001070098
:0806C00000090200000107001F
:04000005080006AD3C
:00000001FF
