:020000040800F2
:10000000002000203D0300084701000847010008C8
:1000100047010008470100084701000800000000F0
:100020000000000000000000000000004701000880
:1000300047010008000000004701000847010008D0
:1000400001000020002901D1012038E01D4A12687A
:1000500052F400121B4B1A6000220B681A600A68E7
:1000600012680B681A600A6812680B7952EA430238
:100070000B681A6000220B685A600A68526852F0D6
:1000800010020B685A6000220B68DA610A68D269B4
:100090000B68DA610A68D26952F050020B68DA61C3
:1000A00000220B681A620A68126A52F011020B6889
:1000B0001A620A68126852F0010209680A60C0B246
:1000C00070470000403802400021002801D1012182
:1000D00009E00268126852F4807203681A600268CC
:1000E000127DD207FBD50800C0B27047002100285E
:1000F00001D1012105E00268126852F40072006823
:1001000002600800C0B270470022002801D101221D
:1001100007E0C9B20368196101684969006880692C
:1001200001001000C0B270470022002801D1012256
:1001300006E0C9B2036819610168097D0906FBD5AB
:100140001000C0B27047FEE710B400210278002A08
:1001500003D0022A05D002D304E0364902E0364932
:1001600000E036490A6803234478E4B26400A340FF
:100170009A430A600A6883784478E4B26400A34032
:100180001A430A604A68012390F90140A3409A4348
:100190004A604A68C37890F90140A3401A434A6014
:1001A000CA6803234478E4B26400A3409A43CA6057
:1001B000CA6803794478E4B26400A3401A43CA6071
:1001C0004A69012390F90140A3409A434A614A6970
:1001D000437990F90140A3401A434A618279FF2A8A
:1001E00026D04278082A11DA0A6A0F234478E4B24A
:1001F000A400A3409A430A620A6A83794078C0B295
:10020000800013FA00F01043086211E04A6A0F23DD
:100210004478E4B2A400A3409A434A624A6A8379CC
:1002200040780838C0B2800013FA00F010434862EA
:1002300010BC704700000240000402400008024069
:1002400000B589B02248006850F0010020490860DC
:100250002048006850F002001E4908601E48D0E99E
:100260000023CDE906231D48D0E90023CDE904236E
:1002700006A8FFF769FF04A8FFF766FF1848D0E952
:100280000023CDE9002300A8FFF7DAFE00A8FFF75E
:100290001BFFAC2100A8FFF737FF842100A8FFF760
:1002A00043FF332100A8FFF73FFF00A8FFF71EFF21
:1002B0000848006850F00100064908600948D0E984
:1002C0000023CDE9022302A8FFF73EFFFEE700BFAF
:1002D000003802403038024048030008500300084C
:1002E00058030008600300084EF68851CEF2000162
:1002F000086840F4700008604FF00070E1EE100AEA
:10030000704700000120C046002801D0C046C0460A
:100310000020C046C046FFF793FF00F000F800F051
:1003200001B800000746384600F002F8FBE700007D
:1003300001491820ABBEFBE726000200C046C046BC
:10034000FFF7D2FFFFF7DEFF010602010100040004
:1003500001070201010004000054004000000000F9
:08036000000201000101FF0091
:040000050800033DAF
:00000001FF
